:020000040800F2
:1000000000C00020115A0008015D0008055D0008CD
:10001000095D00080D5D0008115D0008615D0008C4
:10002000615D0008615D0008615D0008615D0008B8
:10003000615D0008615D0008615D00087162000893
:10004000615D0008615D0008615D00087959000884
:10005000615D0008615D0008A5780008C5780008AA
:10006000E57800080579000825790008615D000839
:10007000615D0008615D0008615D0008615D000868
:10008000615D0008615D0008D95D0008615D0008E0
:10009000615D0008615D0008615D00084579000848
:1000A000FD64000821650008456500087D650008BD
:1000B000D165000841660008B1660008615D00086E
:1000C000615D0008615D0008615D0008615D000818
:1000D000615D0008A9690008FD690008516A00080F
:1000E00089790008C1590008615D0008D9670008D6
:1000F000FD6700082168000859680008295E0008AB
:10010000615D0008615D000821670008615D00080D
:10011000A56A0008F96A000891670008B567000839
:10012000615D0008615D0008615D0008615D0008B7
:1001300010B5054C237833B9044B13B10448AFF321
:1001400000800123237010BD001700200000000074
:10015000DCA9000808B5064B1BB106480649AFF3F9
:1001600000800648036813B1054B03B1984708BDEA
:1001700000000000DCA90008041700200017002080
:100180000000000004F0C7BE38B50D46044604F078
:10019000DDFE290A49006039204601F0FE0104F025
:1001A0006CFF204604F042FFE9B2204604F065FFF0
:1001B000204604F03BFF204604F0C8FE2046A12163
:1001C00004F05BFF204604F031FF0021204604F0DC
:1001D0007BFF0546204604F00CFF204604F0D1FECC
:1001E000284638BD70B50D461646044604F0AEFEEE
:1001F000290A49006039204601F0FE0104F03DFF64
:10020000204604F013FFE9B2204604F036FF2046F2
:1002100004F00CFF3146204604F02FFF204604F086
:1002200005FF204604F0ADFEBDE870400A2007F04F
:100230003FBA000008B5154A5178937843EA012384
:10024000A3F52043113B112B16D8DFE803F01B1D4B
:10025000090B0D151515151515151515150F111378
:10026000022008BD032008BD072008BD042008BDEA
:10027000052008BD062008BD00218022034809F0A2
:10028000C7FA08BD002008BD012008BD1C170020CA
:1002900010B5074C6018114604F03EFD054B1B7865
:1002A0001C4414F8073C1B1A5842584110BD00BFAB
:1002B0001C1700209F170020084B18795B7943EA30
:1002C000002045F25553984205D04CF20103C31A61
:1002D0005842584170470120704700BF1C1700204A
:1002E000044B9B79552B044B0CBF012200221A7042
:1002F000704700BF1C1700209C17002010B5084C49
:10030000E379552B01D1012010BD064802F096FA81
:10031000E3798342F7D0D0F1010038BF002010BD4F
:100320001C170020AB17002013B50D4B1C7A552C61
:1003300001D1012012E00B48694602F0DAF90023EE
:100340001A461DF803108C42F3D019B90132D2B20B
:10035000052AEED00133052BF3D1002002B010BDE9
:100360001C170020AB17002070B505461E46FFF78E
:100370008FFF044698B12846FFF79EFF044658B108
:100380002846FFF7ADFF2846FFF7B8FF044648B9F7
:1003900046B10C480C4911E00A480C490EE00948E6
:1003A0000B490BE02846FFF7BFFF044640B99DF814
:1003B00010300BB9012403E00248064906F0ECFDB9
:1003C000204670BDFC1700206AC1000818C1000853
:1003D00046C10008A1C100081E4B13B51B78002BB5
:1003E00035D000230093042117220123FFF7BCFF1F
:1003F00020B3194B1C7A012C1DD11848D97C01F06F
:1004000031FE70B1224616480F2105F041F9214610
:10041000144801F085F812482146022205F05EF8E2
:100420000CE00F481021022205F032F90E490F4866
:1004300006F0B2FD02E00A4804F0C8FE0C4B064884
:100440001A78002102B0BDE8104009F0E1B902B00D
:1004500010BD00BF090000201C170020AA170020B3
:10046000F4170020A0170020D9C10008FC170020B5
:100470009F170020184B07B51B784BB30023009340
:1004800004210A220123FFF76FFFC0B1134814496A
:1004900002F0E1F838B11349134806F07DFD134826
:1004A0000321022209E012490F4806F075FD114BA5
:1004B0000A220E481A700421012205F0E9F80E4BB9
:1004C0000E481A78002103B05DF804EB09F0A0B9DA
:1004D00003B05DF804FB00BF09000020AB1700204B
:1004E0002417002007C20008FC170020F417002082
:1004F00037C20008F51700209F1700201C170020A6
:1005000013B50023009304210F22FFF72DFF10B332
:100510001D4C1E4804F10A0101F0B1FB002830D047
:100520001A4804F10A0101F0EAFB50B318491948CE
:1005300006F032FD1848E17902F047F9A0B11749F9
:10054000144806F029FD16480521012205F0A0F8FF
:100550000E4801F0B5FC134B0B481A78002102B08D
:10056000BDE8104009F054B90A480F4906F014FDDF
:100570000E4B0A221A700A480621012205F088F85B
:10058000E9E704480A49F1E71C170020AE170020EC
:10059000CAC20008FC170020AB17002067C2000881
:1005A000F41700209F17002099C20008F5170020BB
:1005B000F7C200080E4B07B51B78ABB100230093C0
:1005C000042105220123FFF7CFFE20B101210948B4
:1005D0000A4604F083FF084B08481A78002103B04C
:1005E0005DF804EB09F014B903B05DF804FB00BF3B
:1005F00009000020F41700209F1700201C1700207E
:10060000104B13B51B78DBB10124009404210622A2
:100610002346FFF7A9FE50B10B4B0C480721224699
:100620001C7005F035F81020214607F015F8084B2E
:1006300008481A78002102B0BDE8104009F0E8B877
:1006400002B010BD090000209D170020F417002003
:100650009F1700201C170020354B37B51B78002B47
:1006600063D001240094042106222346FFF77CFE78
:1006700030B3304B1B7813B12F48304950E0304B2A
:100680001B7833BB2F4B1B781BBB2F4B1B7803BB3B
:100690002E4D2B7823B92E4B1B7803F0FF01DBB1D5
:1006A0001F2006F0C3FF00B92870262006F0BEFF09
:1006B00008B9274B18702B7883BB254B1B786BBB75
:1006C000244B25481A78002103B0BDE8304009F0DA
:1006D0009FB81948214923E0102006F0BDFF2620CD
:1006E00006F040FF1F2006F03DFF224609211C486E
:1006F00004F0CEFF1B4803F0EDFF1F201A49022231
:1007000006F012FF02222620184906F00DFF1020E5
:10071000214606F0A1FF05F09FFCD1E706481449E9
:1007200003B0BDE8304006F037BC03B030BD00BFB9
:1007300009000020C0170020FC17002024C3000877
:10074000D6170020D4170020D5170020B817002096
:10075000C11700209F1700201C17002056C3000857
:10076000F4170020B9170020592D0008052E0008A5
:1007700091C3000830B58D4B85B01B78002B00F07D
:1007800012810123009304210722FFF7EDFD68B3D6
:10079000874B1B7853B1874B10221A708648002173
:1007A000022204F09BFE8548854967E0854C23784A
:1007B0001BBB854B1B7803BB51E0844906F0ECFB67
:1007C0007C4B0A221A707C482146022204F086FEE5
:1007D0001F207F49022206F0A7FE26207D49022223
:1007E00006F0A2FE1020012106F036FF7A4B002110
:1007F0001A787A4809F00CF8D5E01F2006F016FFA9
:1008000000B92070262006F011FF08B96E4B187051
:10081000237873BB6C4B1B785BBB262006F0A2FED3
:100820001F2006F09FFE1020002106F015FF6248F1
:100830000B21012204F02CFF684B9B7A8DF80F30BE
:100840009DF80F309DF80F30642B1AD99DF80F30AA
:10085000F02B4AD09DF80F30F12B64D145E0604B6E
:100860001B784BB95F4B1B7833B95F4B1B781BB9B7
:10087000D3E752485D4901E050485D4906F08CFBE2
:1008800091E05C4801F092FE04465A4801F028FDD0
:1008900030B99DF80F3003B39DF80F30642B1CD096
:1008A0009DF80F309C42D1D15349444806F074FB67
:1008B0000124404B4048214602221C7004F00EFEE9
:1008C0001F204349022206F02FFE26204149022222
:1008D00006F02AFE1020214622E09DF80F300BB9C9
:1008E000F02300E0F1238DF80F304449334806F03F
:1008F00053FB9DF80F10424802F01AFF364B0021BF
:100900001A78364808F084FF1F203149022206F089
:100910000BFE26202F49022206F006FE10200121A0
:1009200006F09AFE3FE0334801F0DAFC044668B175
:100930009DF80F102F4801F0B5FD04461F48002C0C
:100940003FF43BAF2F4906F027FB14E01B482E492C
:1009500006F022FB2A4803F0BDFEE8B12B491748F8
:1009600006F01AFB9DF80F10224801F09BFD05468A
:1009700028B1274B1C70224803F012FA10E01349EB
:100980000E4806F009FB0B4B0A221A700A4829464A
:10099000022204F0A3FD03E008481E4906F0FCFA19
:1009A00005F05AFB14E705B030BD00BF0900002078
:1009B000C0170020F5170020F4170020FC170020B6
:1009C000BEC30008B8170020C1170020AAC4000841
:1009D000592D0008052E00089F1700201C17002025
:1009E000D4170020D6170020D5170020A1C5000875
:1009F000CCC50008AB1700202BC40008EEC30008CC
:100A0000B917002084C40008E1C4000840C50008EC
:100A1000CA17002072C50008194B37B51B786BB395
:100A20000124009404210B222346FFF79DFCE0B132
:100A30001448154901F035FF054628B113480D212A
:100A4000224604F025FE10E01149124806F0A4FAEF
:100A50000E480E21224604F01BFE0F4B0A221A708C
:100A60000A482946022204F039FD0C4B0C481A783A
:100A7000002103B0BDE8304008F0CABE03B030BD6D
:100A800009000020AB17002026170020F4170020D3
:100A900022C60008FC170020F51700209F17002031
:100AA0001C17002010B50446FFF7C4FB07282DD8FB
:100AB000DFE800F004090E131D2227182046BDE8C8
:100AC0001040FFF789BC2046BDE81040FFF7D2BCBC
:100AD0002046BDE81040FFF713BD2046BDE810409A
:100AE000FFF768BD2046BDE81040FFF789BD2046EE
:100AF000BDE81040FFF7B0BD2046BDE81040FFF74D
:100B000039BE2046BDE81040FFF786BF10BD00008B
:100B10002DE9F0474D4E00278146377005F09CFACD
:100B20003C463D464A4806F0F3F8002840F38A80E8
:100B300005F092FA96F800A045480AF101033370D7
:100B400006F092F8DFF8208108F80A00032006F08A
:100B5000AFFD33781022434413F8011C3D4806F0E2
:100B60009EFA3C483C4906F0FCF996F90030002B0F
:100B700006DA364B002140468022197008F048FE04
:100B8000327808EB020313F8013CFE2B03D1571E09
:100B9000FFB264BB04E054BB0D2B01D127E001245C
:100BA000062DBFD12D492B4806F0F6F929482C49CE
:100BB00006F0F2F937B92B4B1B7893B14846FFF793
:100BC00071FF0EE031780023C91BDAB2F8188A42AF
:100BD000C0B203F10103EEDA18F8000008F80200D1
:100BE000F3E700233370BDE8F04705F035BA052D73
:100BF000D5D8DFE805F003070A0D10130D2B12D02E
:100C000000248FE70A2B0BD110E00D2B08D110E048
:100C10000A2B05D110E00D2B02D110E00A2BC1D018
:100C2000002425467EE701252C467BE7012402258A
:100C300078E70124032575E70124042572E70124E0
:100C400005256FE700233370BDE8F0879F1700206C
:100C500014180020FC170020BBD5000841C600086E
:100C600065C60008080000201C17002008B50120F8
:100C7000002106F08BFC0120014606F0EDFC32203D
:100C8000002106F083FC1320002106F07FFC1420D5
:100C9000002106F07BFC1320002106F0DDFC14206F
:100CA000012106F0D9FCBDE808403220002106F001
:100CB000D3BC0000014806F089B800BF141800201A
:100CC00008B561B10021142006F0C6FC962006F09C
:100CD000EFFCBDE808401420012106F0BDBC08BDB2
:100CE00008B50021012006F0B7FC0C4806F071F8A9
:100CF0000220002106F04AFC0320002106F046FCF9
:100D00000220002106F0A8FC0320002106F0A4FC2C
:100D1000BDE808401420002106F09EBC14180020F5
:100D200010B50B78452B12D14B78522B0FD18B7805
:100D3000CC78303B03EB8303303C04EB4304E4B258
:100D400021460A22034806F0B3F9204610BD0A20C6
:100D500010BD00BFFC1700200B784F2B07D148783F
:100D60004B2804D113704B7801205370704700203A
:100D700070470000F0B593B00F46684668491646C4
:100D80001C4606F0B2FA664903A806F0AEFA06A8B9
:100D9000634906F0AAFA0025B5420DD2795D0A2210
:100DA0000FA806F009FB0FA9684606F03FFB0FA845
:100DB00006F059FA0135EFE75A490CA806F095FA02
:100DC0000CA9684606F080FB0022034669460FA87E
:100DD00006F07EFB0FA903A806F0D5FA0FA806F0CF
:100DE00042FA0CA806F03FFA4E490CA806F07DFA2C
:100DF0000CA9684606F068FB029B021D69460FA815
:100E000006F066FB0FA906A806F0BDFA0FA806F0CB
:100E10002AFA0CA806F027FA059B022B05D103A895
:100E200006F07CFB3038C5B210E0042B30D103A8AB
:100E300006F074FB642290FBF2F302FB1302303BDA
:100E4000303A03EB830302EB4305EDB2364909A8C0
:100E500006F04BFA09A90FA806F08BFA10222946D2
:100E60000CA806F0A9FA0CA90FA806F0F5FA2F496C
:100E700006F0FFFA01462E4806F084F80CA806F0AA
:100E8000F2F90FA806F0EFF909A806F0ECF92570C1
:100E9000089B022B05D106A806F040FB3038C5B2EE
:100EA00010E0042B30D106A806F038FB642290FB3A
:100EB000F2F302FB1302303B303A03EB830302EB05
:100EC0004305EDB21B4909A806F00FFA09A90FA8BE
:100ED00006F04FFA102229460CA806F06DFA0CA96C
:100EE0000FA806F0B9FA114906F0C3FA01461048F6
:100EF00006F048F80CA806F0B6F90FA806F0B3F90A
:100F000009A806F0B0F9657006A806F0ACF903A8C8
:100F100006F0A9F9684606F0A6F913B0F0BD00BFC7
:100F200071DD000890C6000895C600089CC6000840
:100F3000FC170020A2C60008F8B54C78432C08D155
:100F40008C78532C05D1CC78B4F151056C426C41AE
:100F500000E000240026F5B24F5D01363A2FFAD1A9
:100F60000135EDB200279542FEB207F1010706D820
:100F700011F805C0013501F806C0EDB2F3E73CB940
:100F80002046C2B2B2420BD20A5C1A540130F8E7D2
:100F9000069A022412681470721ED2B2FFF7EAFE9B
:100FA0000120F8BD37B5144809B9144900E01449C7
:100FB00005F0D7FF642006F07BFB00240E4805F007
:100FC000A7FE0028E5B208DD062C10D00A4805F07F
:100FD0004BFE0DF804000134F0E745B19DF80230F6
:100FE0004F2B03D19DF803304B2B02D002E00020A1
:100FF00000E0012003B030BD14180020AAC600088C
:10100000AEC6000810B504460120014606F024FBD8
:1010100007484FF4165105F0D9FE20460121FFF78D
:101020004FFE20460121BDE81040FFF7BBBF00BFC7
:10103000141800202DE9F0419EB005AD0C4607467E
:101040000021904628466422039308F0E1FB2146E4
:101050002C4805F086FF642006F02AFB002429486E
:1010600005F056FE0028E6B207DD642C45D0254881
:1010700005F0FAFD28550134F1E726B92249234845
:1010800005F08AFF39E09DF814300D2B35D19DF81D
:1010900015300A2B31D11EAB334413F8653C0A2BB3
:1010A0002BD1023E1EAB334413F8643C0D2B24D1EC
:1010B0000021CCB2A31CDBB2B34201F1010107DA7B
:1010C0001EAA134413F8643C144404F8643CF0E78B
:1010D00038462946FFF724FE0A280CD103AB0093BB
:1010E0003846294622464346FFF726FF00280CBF14
:1010F0000320022002E0012000E003201EB0BDE832
:10110000F08100BF14180020B4C60008FC170020AE
:101110002DE9F041B2B006460D469046002164220A
:1011200068461F4608F074FB19A80021642208F0E5
:101130006FFB0024E3B2E85C013420B132AA13440F
:1011400003F8640CF6E70146CAB25D1818F80240CD
:10115000EDB232AA01312A4414B102F8644CF3E72B
:101160000D2302F8643C6B1C32A8DBB203442F4809
:101170000A2203F8642C036819A95B6898472C4875
:10118000AA1C036819A99B68D2B29847642006F08C
:101190008FFA274805F0BCFD0028E5B208DD642C75
:1011A0003FD0234805F060FD0DF804000134F0E75E
:1011B000002D36D09DF800300D2B32D19DF8013036
:1011C0000A2B2ED132AB2B4413F8C93C0A2B28D161
:1011D000023D32AB2B4413F8C83C0D2B21D100212A
:1011E0008B1CDBB2AB4201F1010209DA32A80344E5
:1011F00013F8C83CC9B2014401F8C83C1146EFE7F6
:1012000030466946FFF78CFD0A2808D1304669460A
:101210003A46FFF7A1FD80F00100C0B202E00120D4
:1012200000E0032032B0BDE8F08100BFFC170020D1
:1012300014180020F7B51E46044617460D46002137
:101240008DF80710FFF7AEFE04F006FF204631468A
:101250002FB12A460DF10703FFF7ECFE03E0089AD1
:101260002B46FFF755FF03282AD8DFE800F01104CA
:101270000207002311E01648164901E014481649F8
:1012800005F08AFE20460121FFF78CFE00201CE0BD
:1012900012490F4805F080FE12E09DF807205E1C01
:1012A000DBB29A420A4809D9E95C102205F0F7FE40
:1012B00007480B4905F055FE3346EEE705F056FEAC
:1012C00020460121FFF76EFE012003B0F0BD00BFF4
:1012D000FC170020C8C60008D9C60008E2C60008EE
:1012E000BBD500082DE9F0438BB004AF8046002148
:1012F0000922384602AE002408F08AFA00944046DB
:10130000314601222C4BFFF795FF054610B92B48BB
:101310002B494BE02346F25C07AC092A01D8303256
:1013200004E0A2F10A01052998BF3732E2540133E3
:10133000082BF0D14FF0000922488DF8249000F0DE
:1013400081FF0246C0B120491C4805F025FE1D481A
:10135000394600F0E5FE50B14B46E15CFA5C914243
:1013600017D10133082BF8D1144818491EE0184949
:10137000124805F011FE07E0009440463146154B37
:10138000FFF758FF054698B121460E4800F018FFB8
:101390000AE01149094805F0FFFD00974046314633
:1013A00000220C4BFFF746FF054601E005F0F4FD77
:1013B00028460BB0BDE8F083EEC60008FC170020FD
:1013C000F9C60008AA17002019C70008A1C700081D
:1013D00037C700085BC7000864C700082DE9F04F55
:1013E00089B002AF07F10C068346894690461C4639
:1013F000304600210A2208F00BFA002C48D1C7F829
:1014000004D05846CDF80080314601224B46FFF704
:1014100011FF824608B1214602E03C483C496BE09E
:10142000CCB218F804300131002BF9D1E11D01F4E0
:10143000FC71ADEB010D02A9D8B2A04203D2F05C61
:10144000C8540133F8E70B46581AC0B2A0420DD277
:1014500013F8010B092801D8303004E0A0F10A0587
:10146000052DF1D8373003F8010CEDE70025EBB27C
:10147000A3423FD24B5D013508EB050010F8010C8B
:101480009842F4D02148234905F086FD7B689D46AB
:101490006C460023DAB219F8021001330A29F9D197
:1014A000931D03F4FC73ADEB030DA2F1020E02AB2E
:1014B0000020C1B2551EA94200F1010003DA19F85B
:1014C00001505D54F5E700223D215A55584603F876
:1014D0000E10CDF800803146FFF7ACFE054628B966
:1014E0000A480D4905F058FDAA4601E04FF0010AEF
:1014F000A54605E00548094905F04EFD7B689D4677
:1015000050461C37BD46BDE8F08F00BFFC170020D9
:10151000CBC70008F1C7000848C800086AC800081F
:101520007FB50F2204460D466846002108F070F989
:101530006348644905F030FD0A2604F08DFD002D56
:101540006CD12046FFF7CEFE5F498DF800005F4A60
:101550002B462046FFF742FF5D498DF801005D4AAA
:101560002B462046FFF73AFF5B498DF802005B4AA5
:101570002B462046FFF732FF59498DF80300594AA0
:101580002B462046FFF72AFF574A58492B468DF82D
:1015900004002046FFF722FF8DF80500544800F0B4
:1015A000A1FDF1280CBF534A4A4A53492B46204615
:1015B000FFF714FF51498DF80600514A00232046D9
:1015C000FFF70CFF4F498DF807004D4A00232046D6
:1015D000FFF704FF4C498DF80800464A00232046D7
:1015E000FFF7FCFE49498DF80900494A00232046CF
:1015F000FFF7F4FE47498DF80A00474A00232046CA
:10160000FFF7ECFE334A8DF80B00444920460023D7
:10161000FFF7E4FE0D228DF80C000EE0344800F0D8
:1016200061FDF1280CBF334A2A4A20463249012382
:10163000FFF7D4FE01228DF8000000231DF80310EF
:10164000A9B937491E4805F0A7FC2046FFF7DAFC88
:101650002046FFF745FB04F0FFFC2046FFF7D2FCD5
:101660004FF4FA6006F024F804F0F6FC05E00133CC
:10167000D9B29142E2D304B070BD2A4805F048FBCC
:10168000002803DD274805F0EFFAF6E7013E16F0E3
:10169000FF067FF452AF14222348012103F0E6FB3A
:1016A0002249074805F078FC40F6B83006F000F80B
:1016B00004F0D2FC04B0BDE8704004F001BD00BFEE
:1016C000FC17002080C800089FC80008ABC80008AD
:1016D000B4C80008B1C80008BEC80008CAC80008DD
:1016E000D3C80008DFC80008F3C80008E8C800082D
:1016F000AA17002000C90008F6C8000803C900089E
:101700000DC9000810C900081AC9000824C900083A
:101710002DC9000830C900083AC900083DC90008B1
:1017200047C9000814180020F017002064C90008F9
:1017300007B5384800F012FC002839D1364B37493C
:101740001870344800F09BFA28B13248334900F051
:10175000D6FA002853D1324801F089F820B1304838
:1017600001F00AF800284FD101238DF800302C48F1
:10177000002369468DF801308DF802308DF8033072
:101780008DF8043000F067FF18B12648264905F0AF
:1017900003FC26480021052203F068FB08E004F062
:1017A0005BFC282005F042FF40B12148FFF7B0F96B
:1017B000184800F0D3FB0028F1D01AE041F288303D
:1017C00003F0B6FC04F048FC282005F02FFF0028A9
:1017D000EBD116484FF4167103F086FB154803F061
:1017E000F5FC282005F022FF0028DED104F034FCAF
:1017F000F7E7094B01221A7003B05DF804FB0E49AC
:10180000084805F0C9FBA6E70C49064805F0C4FBEB
:10181000AAE700BFAE17002009000020A117002092
:10182000AB170020FC17002090C90008F01700201B
:101830009E170020F4170020ADC90008C1C9000898
:1018400038B5282005F0F2FE002860D1642003F0AE
:101850006FFC282005F0EAFE0446002850D12C48F1
:101860004FF4167103F040FB2A482B4905F094FB16
:10187000022C02D80134E4B204E02648264905F0DF
:101880008BFB002404F0E8FB40F6B83003F050FC7A
:1018900004F0E2FB272005F0C9FE0028E8D164200F
:1018A00003F046FC272005F0C1FE05460028DFD1E5
:1018B00017484FF4167103F017FB2946102005F066
:1018C000CBFE262005F04EFE1F2005F04BFE1348F0
:1018D00002F000FF1F201249022205F025FE2620FB
:1018E0001049022205F020FE1020012105F0B4FE6F
:1018F000272005F09BFE0028BAD104F0ADFBF7E7E6
:10190000282005F093FE10B904F0A6FBF8E738BDD7
:10191000F0170020FC170020F0C90008B9170020BC
:10192000592D0008052E00088F4B30B51A688DB070
:1019300022F0E06242F000721A6006204FF47A71E1
:1019400004F07AFB89484FF4E13105F03FFA4FF497
:1019500016518748FFF7AEF904F0E6FA854801F022
:10196000A7FA0221834801F0EFFA834800F078F9E2
:10197000824803F047FA04F06FFB7D48FFF776F9E1
:1019800001217B48FFF70EFB7D4D4FF4FA6005F017
:101990008FFE00247B482C70FFF7BAF801232B70D0
:1019A00004F05AFB21467248FFF7BAFD764800F072
:1019B00023FB76496D4805F0EFFA7548222100F0C7
:1019C0005FFC012806D17248232100F059FC012850
:1019D000044620D001210A466D4800F03CFC6D49C8
:1019E000684605F082FC694606A805F0C2FC102294
:1019F000012103A805F0F1FC03A906A805F02CFDC0
:101A0000654905F036FD01210446102209A805F0BC
:101A1000E4FC20461AE06149684605F066FC694628
:101A200006A805F0A6FC1022214603A805F0D5FC67
:101A300003A906A805F010FD574905F01AFD214637
:101A40000546102209A805F0C8FC284609A905F09A
:101A500003FD0146454805F095FA09A805F003FC89
:101A600003A805F000FC06A805F0FDFB684605F09C
:101A7000FAFB4748242100F001FC0128044616D156
:101A80004348252100F0FAFB054680B9444906A8E1
:101A900005F02BFC06A909A805F06BFC214609A856
:101AA00005F0F9FC3C4905F0E4FC294614E000226D
:101AB0003748012100F0E6FB3A4906A805F015FC7D
:101AC00006A909A805F055FC012109A805F0E3FCC9
:101AD000314905F0CEFC002105F0DDFC014623482C
:101AE00005F050FA09A805F0BEFB06A805F0BBFBFF
:101AF00003F00EF8FFF7A4FE2B4800F0FDF9FFF706
:101B000017FE2948294900F033FAA8B905221B48D5
:101B1000012103F0ABF92649144805F03DFA2548A8
:101B200003F06EFC1748FEF7F3FF40F6B83003F001
:101B3000FFFA04F091FAE4E71F490C4805F02CFA8B
:101B400002210E480A2203F091F904F085FA1B4B9A
:101B5000092208481A7002F0E3FB04F07DFA02F053
:101B6000F1FF0DB030BD00BF04000140FC170020A4
:101B7000A0170020B9170020AD170020F017002093
:101B8000080000209E170020AA17002071DD000821
:101B9000AC17002069CA0008D0D00008B4CA0008F9
:101BA000CACA0008E0CA0008AE170020A11700202A
:101BB0001CCA0008F417002050CA0008F5170020BE
:101BC00008B5272005F032FDF0B904F045FA41F2DE
:101BD000883003F0ADFA04F03FFA272005F026FD27
:101BE00058B90A484FF4167103F07EF908480949BC
:101BF00005F0D2F9084801F051F8272005F016FD4C
:101C000010B904F029FAF8E708BD00BFF01700206A
:101C1000FC1700202BCB0008AB17002010B50A4C96
:101C200004F01AFA0948FEF773FF204601F04EFC53
:101C3000204601F065FE204602F0DEFB03F044F88A
:101C4000BDE81040FFF7BCBFB91700209E17002069
:101C50001520012105F000BD1520002105F0FCBC78
:101C600010B500210446152005F090FC1520012137
:101C700005F0F2FC2046BDE81040FEF783BA7FB5C0
:101C800005460E46FFF7E8FF0D2433192146284686
:101C900013F80D2C0134FEF7A5FA162CF5D13046B9
:101CA000092103F039F80646214628463246FEF758
:101CB00099FA0D2421462846FEF766FA01AB234423
:101CC0000134162C03F80D0CF4D101A8092103F0FE
:101CD00023F8B04203D0FFF7BBFF00200DE02846F9
:101CE0000B21FEF751FA552804D028460B21552226
:101CF000FEF778FAFFF7ACFF012004B070BD7FB5A6
:101D000005460E46FFF7A8FF17243319214628463B
:101D100013F8172C0134FEF765FA202CF5D1304664
:101D2000092102F0F9FF0646214628463246FEF711
:101D300059FA172421462846FEF726FA01AB234418
:101D40000134202C03F8170CF4D101A8092102F06A
:101D5000E3FFB04203D0FFF77BFF00200DE02846F1
:101D60000C21FEF711FA552804D028460C215522E3
:101D7000FEF738FAFFF76CFF012004B070BDF0B534
:101D800085B001AD06460F4628460021092207F01E
:101D90003FFD0D2421463046FEF7F6F92B1901349C
:101DA000162C03F80D0CF5D121463046FEF7ECF960
:101DB00009210446284602F0AFFF844206D10023E1
:101DC000EA5CFA540133092BFAD101E0002000E06B
:101DD000012005B0F0BDF0B585B001AD06460F4657
:101DE00028460021092207F013FD1724214630461A
:101DF000FEF7CAF92B190134202C03F8170CF5D182
:101E000021463046FEF7C0F909210446284602F073
:101E100083FF844206D10023EA5CFA540133092B84
:101E2000FAD101E0002000E0012005B0F0BD37B597
:101E30000C461E210546FEF7A7F91F218DF8040068
:101E40002846FEF7A1F902218DF8050001A802F04D
:101E500063FF207003B030BD10B50B210446FEF7C0
:101E600093F988B1FFF7F8FE204600220B21FEF718
:101E7000B9F9FFF7EDFE20460B21FEF785F9D0F109
:101E8000010038BF002010BD012010BD10B50C218D
:101E90000446FEF779F988B1FFF7DEFE20460022FE
:101EA0000C21FEF79FF9FFF7D3FE20460C21FEF729
:101EB0006BF9D0F1010038BF002010BD012010BD2A
:101EC00010B521210446FEF75FF9552811D0FFF720
:101ED000C3FE204655222121FEF784F9FFF7B8FE04
:101EE00020462121FEF750F9B0F1550358425841E0
:101EF00010BD012010BD000038B50446272005F0B4
:101F000095FB40BB04F0A8F841F2883005F0D0FB07
:101F100004F0A2F8272005F089FB0546D8B90E4841
:101F20004FF47A7102F0E0FF20462121FEF72CF9F0
:101F300040B1FFF791FE204621212A46FEF752F9D3
:101F4000FFF786FE20462121FEF71EF9D0F10100A1
:101F500038BF002038BD38BDF017002008B521215A
:101F6000FEF712F9B0F155035842584108BD000080
:101F700038B504460D46FFF702FF20B1204629463A
:101F8000FFF729FF40BB20462946FFF7F8FE48B17E
:101F90001449154805F000F820462946BDE83840A8
:101FA000FFF7ADBE20462946FFF715FF48B10F49A0
:101FB0000D4804F0F1FF20462946BDE83840FFF700
:101FC0005EBE0B49084804F0E7FF2046FFF744FFD8
:101FD0002046FFF75BFF03E00348064904F0DCFFFF
:101FE000012038BD92CB0008FC170020C9CB0008A7
:101FF00000CC000814CC000810B548210446FEF7B8
:10200000C3F8552811D0FFF727FE20465522482156
:10201000FEF7E8F8FFF71CFE20464821FEF7B4F86B
:10202000B0F155035842584110BD012010BD10B504
:102030004D210446FEF7A8F8552810D0FFF70CFEF6
:10204000204655224D21FEF7CDF8FFF701FE204630
:102050000021FEF799F8003018BF012010BD0120C3
:1020600010BD000037B58DF807101031C9B2012935
:10207000044629D84C21FEF787F89DF807308342A3
:1020800028D002ADFFF7E8FD15F8012D20464C21C0
:10209000FEF7A8F80121284602F03EFE4E21024636
:1020A0002046FEF79FF820464C21FEF76DF89DF87C
:1020B0000730834205D12046FFF7B9FFFFF7C8FD7F
:1020C00008E0FFF7C5FD03E00448054904F064FF9C
:1020D000002000E0012003B030BD00BFFC1700204D
:1020E00044CC000837B54C210446FEF74DF802AB4E
:1020F00003F8010D1846012102F00EFE4E2105469F
:102100002046FEF741F8854202D19DF8070004E021
:102110002046F021FFF7A6FFF02003B030BD0000FD
:10212000F7B505460E464F2421462846FEF72CF803
:1021300000AB23440134572C03F84F0CF4D1082191
:10214000684602F0E9FD214607462846FEF71CF8DE
:1021500087420CD100231DF80320F2540133082BD1
:10216000F9D10448044904F017FF012000E00020E1
:1021700003B0F0BDFC1700207ACC000810B5582140
:102180000446FEF701F8552808D0FFF765FD204604
:1021900058215522FEF726F8FFF75AFD10BD10B55D
:1021A00058210446FDF7F0FF40B1FFF755FD2046EA
:1021B00058210022FEF716F8FFF74AFD10BD000077
:1021C000F7B50F460546FFF747FD3846082102F0F0
:1021D000A3FD4F2406463B192146284613F84F2CF1
:1021E0000134FDF7FFFF572CF5D121462846324632
:1021F000FDF7F8FF4F2421462846FDF7C5FF00AB49
:1022000023440134572C03F84F0CF4D168460821BD
:1022100002F082FD864206D02846FFF7C0FFFFF796
:1022200017FD002007E00549054804F0B5FE2846E3
:10223000FFF7A4FF012003B0F0BD00BF8FCC000862
:10224000FC17002008B55821FDF79EFFB0F155039B
:102250005842584108BD70B504460E461546FFF772
:10226000FBFC204632462221FDF7BCFF20462321FD
:102270002A46FDF7B7FFFFF7EBFC70BDFDF784BF03
:10228000FDF782BF70B504460E461546FFF7E4FC25
:10229000204632462421FDF7A5FF204625212A4667
:1022A000FDF7A0FFFFF7D4FC70BD10B52621044652
:1022B000FDF76AFF552811D0FFF7CEFC20465522C6
:1022C0002621FDF78FFFFFF7C3FC20462621FDF7EF
:1022D0005BFFB0F155035842584110BD012010BDBD
:1022E00008B52621FDF750FFB0F15503584258417B
:1022F00008BD10B526210446FDF746FF88B1FFF75B
:10230000ABFC204600222621FDF76CFFFFF7A0FC66
:1023100020462621FDF738FFD0F1010038BF00200C
:1023200010BD012010BD37B5C1F307258DF805108C
:102330000F39B1F5E97F04468DF804500ED22721FC
:10234000FDF722FF85420BD1204628219DF805503C
:10235000FDF71AFF854203D101202EE000202CE07A
:10236000FFF77AFC204627219DF80420FDF73AFF6D
:102370009DF8052020462821FDF734FF022101A801
:1023800002F0CAFC05462A4620462921FDF72AFF0D
:10239000FFF75EFC27212046FDF7F6FE28218DF889
:1023A00004002046FDF7F0FE02218DF8050001A88B
:1023B00002F0B2FC431B5842584103B030BD13B584
:1023C00027210446FDF7E0FE28218DF80400204671
:1023D000FDF7DAFE29218DF805002046FDF7D4FE31
:1023E0000221044601A802F097FC844205BF9DF833
:1023F00004009DF805304FF6FF7043EA002002B05C
:1024000010BD13B564298DF8071028D8012003F0FA
:10241000A3FD9DF80730C0B2984222D001389842FF
:102420001FD013B901238DF8073001210DF10700EA
:1024300002F072FC044603F083FD01209DF80710B2
:1024400003F091FD0220214603F08DFD03F07EFD97
:10245000022003F081FD031B5842584102E0002096
:1024600000E0012002B010BD13B5012003F074FD9F
:1024700002AB03F8010D1846012102F04DFC0446A1
:10248000022003F069FD844209D19DF80730012B39
:1024900004BF00238DF807309DF8070000E0FF20FF
:1024A00002B010BD13B564298DF8071028D8032099
:1024B00003F052FD9DF80730C0B2984222D0013897
:1024C00098421FD013B901238DF8073001210DF177
:1024D000070002F021FC044603F032FD03209DF8C2
:1024E000071003F040FD0420214603F03CFD03F0FB
:1024F0002DFD042003F030FD031B5842584102E03B
:10250000002000E0012002B010BD13B5032003F04D
:1025100023FD02AB03F8010D1846012102F0FCFB7C
:102520000446042003F018FD844209D19DF80730C9
:10253000012B04BF00238DF807309DF8070000E051
:10254000FF2002B010BD13B564298DF8071028D8FC
:10255000052003F001FD9DF80730C0B2984222D05B
:10256000013898421FD013B901238DF8073001219B
:102570000DF1070002F0D0FB044603F0E1FC05205A
:102580009DF8071003F0EFFC0620214603F0EBFC5A
:1025900003F0DCFC062003F0DFFC031B584258412B
:1025A00002E0002000E0012002B010BD13B50520BC
:1025B00003F0D2FC02AB03F8010D1846012102F032
:1025C000ABFB0446062003F0C7FC844209D19DF80A
:1025D0000730012B04BF00238DF807309DF807005A
:1025E00000E0FF2002B010BD38B5054603F0A8FC9E
:1025F0000124204603F0B0FC50B12046002103F036
:10260000B2FC204603F0A8FC10B103F09FFC19E0D7
:102610000134E4B2072CECD103F098FCFFF71CFB6B
:10262000412428462146FDF7AFFD68B128462146E2
:102630000022FDF7D7FD28462146FDF7A5FD18B17C
:10264000FFF706FB002038BD0134472CE9D1FFF726
:10265000FFFA012038BDF8B504460E462F25731940
:102660002046294613F82F7CFDF78EFD874203D1C3
:102670000135342DF3D136E0FFF7EEFA2F2573192B
:102680002946204613F82F2C0135FDF7ABFD342DDC
:10269000F5D10521304602F03FFB0746294620468A
:1026A0003A46FDF79FFD2F2520462946FDF76CFD94
:1026B000731913F82F3C834217D10135342DF3D110
:1026C00020462946FDF760FDB8420ED1204635214F
:1026D000FDF75AFD552804D0204635215522FDF737
:1026E00081FDFFF7B5FA0120F8BDFFF7B1FA002030
:1026F000F8BDF7B505460E462F2421462846FDF7BE
:1027000043FD00AB23440134342C03F82F0CF4D1E7
:102710000521684602F000FB214607462846FDF7E2
:1027200033FD874207D100231DF80320F254013303
:10273000052BF9D101E0002000E0012003B0F0BD3D
:1027400073B505462F2421462846FDF71DFD00AB35
:1027500023440134342C03F82F0CF4D168460521AE
:1027600002F0DAFA214606462846FDF70DFD331A37
:102770005842584102B070BD38B50546FFF76CFAB3
:102780002F2428462146FDF7FFFC68B12846214644
:102790000022FDF727FD28462146FDF7F5FC18B17C
:1027A000FFF756FA002038BD0134342CE9D1284611
:1027B0003521FDF7E9FC20B1284635210022FDF73F
:1027C00011FDFFF745FA012038BD37B50D468DF8EC
:1027D000071036210446FDF7D7FC85422BD002AD09
:1027E000FFF73AFA15F8012D20463621FDF7FAFCDD
:1027F0000121284602F090FA372102462046FDF7D3
:10280000F1FC20463621FDF7BFFC9DF807308342DE
:102810000DD120463821FDF7B7FC552804D02046BD
:1028200038215522FDF7DEFCFFF712FA03E0FFF72F
:102830000FFA002000E0012003B030BD3621FDF783
:10284000A3BC37B536210546FDF79EFC02AB03F865
:10285000010D1846012102F05FFA3721044628468F
:10286000FDF792FC231A5842584103B030BD10B511
:1028700036210446FDF788FC88B1FFF7EDF92046C4
:1028800036210022FDF7AEFC20463621FDF77CFC08
:1028900018B1FFF7DDF9002010BDFFF7D9F90120CD
:1028A00010BDF8B505460E462A24331928462146A0
:1028B00013F82A7CFDF768FC874215D101342F2CD0
:1028C000F3D10FE00134052C11D128464721FDF743
:1028D0005BFC552804D0284647215522FDF782FC91
:1028E000FFF7B6F90120F8BDFFF7B6F9002404F1AF
:1028F0002A0728463946325DFDF774FC28463946DA
:10290000FDF742FC335D8342DCD0FFF7A1F90020E4
:10291000F8BD10B547210446FDF736FC552801D017
:10292000142010BD20462B21FDF72EFC431EDBB2E8
:10293000632BF5D810BD10B547210446FDF724FCE4
:10294000552801D0142010BD20462D21FDF71CFC78
:10295000431EDBB2632BF5D810BD08B52E21FDF761
:1029600013FC431EDBB20A2B28BF032008BD73B53E
:102970000D4649210446FDF707FC4A21064620463C
:10298000FDF702FC40EA06202B1A642B3AD9401BC3
:10299000642837D92B0A022101A88DF804308DF85C
:1029A000055002F0B9F90546FFF756F920464921CE
:1029B0009DF80420FDF716FC20464A219DF80520CD
:1029C000FDF710FC2A4620464B21FDF70BFCFFF7D4
:1029D0003FF949212046FDF7D7FB4A218DF8040035
:1029E0002046FDF7D1FB02218DF8050001A802F079
:1029F00093F94B2105462046FDF7C6FB431B584281
:102A0000584100E0012002B070BD73B50D46492168
:102A10000446FDF7B9FB4A218DF804002046FDF776
:102A2000B3FB02218DF8050001A802F075F94B21D6
:102A300006462046FDF7A8FB86420DD19DF80530DD
:102A40009DF8040043EA002043F2AF6398422860F7
:102A500094BF0020012000E0002002B070BD73B5DB
:102A60000D4639210446FDF78FFB3A2106462046E4
:102A7000FDF78AFB40EA0620401B642848D96430F1
:102A8000642845D92B0A022101A88DF804308DF85D
:102A9000055002F041F90546FFF7DEF820463921DE
:102AA0009DF80420FDF79EFB20463A219DF8052065
:102AB000FDF798FB2A4620463B21FDF793FB392181
:102AC0002046FDF761FB3A218DF804002046FDF712
:102AD0005BFB02218DF8050001A802F01DF93B21E6
:102AE00005462046FDF750FBA8420DD120463C216B
:102AF000FDF74AFB552804D020463C215522FDF71E
:102B000071FBFFF7A5F803E0FFF7A2F8002000E053
:102B1000012002B070BD73B50D4639210446FDF7A2
:102B200033FB3A218DF804002046FDF72DFB0221EE
:102B30008DF8050001A802F0EFF83B21064620467B
:102B4000FDF722FB86420DD19DF804209DF805304B
:102B5000012043EA0223B3F5967F38BF4FF4487350
:102B60002B6000E0002002B070BD73B50D463D2122
:102B70000446FDF709FB3E2106462046FDF704FB0F
:102B800040EA0620401B642848D96430642845D9AF
:102B90002B0A022101A88DF804308DF8055002F0AF
:102BA000BBF80546FFF758F820463D219DF8042064
:102BB000FDF718FB20463E219DF80520FDF712FB8E
:102BC0002A4620463F21FDF70DFB3D212046FDF71B
:102BD000DBFA3E218DF804002046FDF7D5FA0221EC
:102BE0008DF8050001A802F097F83F210546204620
:102BF000FDF7CAFAA8420DD120464021FDF7C4FADC
:102C0000552804D0204640215522FDF7EBFAFFF766
:102C10001FF803E0FFF71CF8002000E0012002B0DD
:102C200070BD73B50D463D210446FDF7ADFA3E215A
:102C30008DF804002046FDF7A7FA02218DF8050063
:102C400001A802F069F83F2106462046FDF79CFAEC
:102C500086420DD19DF804209DF80530012043EAFD
:102C60000223B3F5967F38BF4FF448732B6000E022
:102C7000002002B070BD38B53C210546FDF784FA4E
:102C8000402104462846FDF77FFA552C04D1B0F1C7
:102C900055035842584138BD002038BD10B53C217D
:102CA0000446FDF771FA20B920464021FDF76CFA81
:102CB00068B1FEF7D1FF20463C210022FDF792FAD1
:102CC000204640210022FDF78DFAFEF7C1FF0120CA
:102CD00010BD37B53C210446FDF756FA552807D0FC
:102CE00020464021FDF750FA55281AD0012030E047
:102CF00039212046FDF748FA3A218DF80400204694
:102D0000FDF742FA02218DF8050001A802F004F84F
:102D10003B2105462046FDF737FA8542E0D00020EA
:102D200017E03D212046FDF72FFA3E218DF80400E3
:102D30002046FDF729FA02218DF8050001A801F0CF
:102D4000EBFF3F2105462046FDF71EFA2B1A58429D
:102D5000584103B030BD000010B51F2004F002FC44
:102D60001F2004F063FC012820D142F2107004F00F
:102D7000ADFC1F2004F05AFC012804462ED1214648
:102D8000252004F069FC194B00221C70184B6424A8
:102D90001A7042F2107004F099FC013CF9D1252020
:102DA000214604F059FC1348134915E01F2004F094
:102DB0003DFC98B942F2107004F088FC1F2004F02A
:102DC00035FC58B9094B187001F0F8FE2520012197
:102DD00004F042FC0748094904F0DEF8BDE8104061
:102DE0001F200749022204F09FBB00BFB817002034
:102DF000C8170020FC170020A4CC0008C9CC00088C
:102E0000592D000810B5262004F0ACFB262004F054
:102E10000DFC012820D142F2107004F057FC26204E
:102E200004F004FC012804462ED12146252004F09C
:102E300013FC194B00221C70184B64241A7042F2C8
:102E4000107004F043FC013CF9D12520214604F028
:102E500003FC1348134915E0262004F0E7FB98B95A
:102E600042F2107004F032FC262004F0DFFB58B967
:102E7000094B187001F0A2FE2520012104F0ECFBA3
:102E80000748094904F088F8BDE8104026200749A2
:102E9000022204F049BB00BFC1170020C817002060
:102EA000FC170020EFCC000816CD0008052E000806
:102EB00008B50720002104F069FB2420002104F05C
:102EC00065FB1020002104F061FB0620032104F0C3
:102ED0005DFB0420032104F059FB0520032104F0CD
:102EE00055FB1F20022104F051FB2620022104F093
:102EF0004DFB1020012104F0AFFB1F200E490222E0
:102F000004F012FB02220D49262004F00DFB1F20C5
:102F100004F08CFB0A4B012814BF002218704FF0FC
:102F2000260018BF1A7004F081FB064B012816BF5B
:102F3000002218701A7008BD592D0008052E0008CF
:102F4000B8170020C1170020012910B50C460BD07E
:102F50001CD22520012104F07FFB0720002104F072
:102F60007BFB2420012108E0252004F075FB0720CD
:102F7000214604F071FB2420002104F06DFB4FF486
:102F80007A7004F095FB2520002109E0072001213B
:102F900004F062FB2420012104F05EFB25200121C6
:102FA000BDE8104004F058BB73B51B480C461646EC
:102FB0001D46FFF760FE60B31748FFF78AFE20B991
:102FC0001548FFF76BFE022024E01348FFF7B3FC1F
:102FD00004F024FF0022114B05F0B0F805F066FA6A
:102FE000206025B901A90C48FFF795FD05E0012DEA
:102FF0000BD1094801A9FFF714FE019805F05CFB0D
:103000000146206805F0B0FB2060019B0020336082
:1030100000E0032002B070BDAB1700200000244088
:1030200008B501F0CBFD07480221FFF78DFF064AE6
:1030300000231370054A1370054A1370BDE8084059
:1030400001F0AEBDB9170020D6170020D41700201C
:10305000D51700203F4B2DE9F0411A78884602F041
:10306000FF04002A72D000221A703B4B1B783BB938
:103070003A4B1B7823B93A4B1B7803F0FF053BB161
:10308000384A137803F0FF0513B1002313700125AC
:10309000354B1C68B4F5167F34BF002401240DB9EC
:1030A000002C53D0FFF7BCFF304802210A2201F068
:1030B000DDFE2F48FFF798FA07462E4867B92E49DC
:1030C00003F06AFF2D4B0A221A702D48394602225E
:1030D00002F004FA012439E02A4903F05DFF244894
:1030E000FFF707F90646234866B9274903F054FF5E
:1030F000224B0A221A7022483146022202F0EEF9CF
:103100003C4623E0214903F047FF2DB119482049EF
:1031100003F042FF052211E094B1B8F1000F05D190
:1031200014481C4903F038FF022207E0B8F1010FF0
:1031300006D11048184903F02FFF03220F4B1A70D5
:103140000F480021022202F0C9F934462046BDE8AA
:10315000F08100BFC2170020D6170020D41700202E
:10316000D5170020B1170020C4170020F017002049
:10317000AB170020FC1700203ECD0008F5170020FB
:10318000F417002077CD0008B1CD0008E4CD000889
:1031900017CE000842CE000878CE000870B51F4D4B
:1031A0000C462B781646002B35D000232B701C4D77
:1031B000FFF736FF0E231B4802210A222B7001F075
:1031C00055FE24B91849194803F0E6FE21E0012C08
:1031D00008D11749154803F0DFFE31461548FFF7BF
:1031E00010F916E0023C012C13D813490F4803F0E4
:1031F000D3FE1048FFF77DF8044650B90F490B483D
:1032000003F0CAFE0A230E48214602222B7002F068
:1032100065F9012070BD184670BD00BF9D170020E4
:10322000F5170020F0170020ADCE0008FC17002095
:10323000D7CE0008AB17002003CF00082ECF000820
:10324000F41700200000000030B58DB001AD002162
:103250002C22284606F0DCFA02F0FEFE00240620AE
:1032600004F0D6F9285104342C2CF8D10B226B46EB
:103270000AACA34207D053F8040F5968884284BFB0
:1032800058601960F5E7013A12F0FF02EFD1079894
:1032900004F0B4FD08A3D3E9002304F025FE0022C6
:1032A000074B04F021FE0022064B04F06BFC05F0F6
:1032B000DDF80DB030BD00BF0000000000C8E93FE0
:1032C000000034400000E03F2DE9F8439846244BCD
:1032D0000E461B78144613B10020BDE8F883214B3D
:1032E0001A78002AF8D1204D2B682F46022BF3D9EB
:1032F0001E4B01221A70FFF7A7FF64281C4A2BD827
:1033000013680BB93B68136039681368033399423B
:10331000E2D3174B00251D605CB1012C17D1154974
:10332000154803F039FE154B357020461C70BDE87A
:10333000F8831148124903F02FFEB8F1000F01D1B4
:10334000642333700D4B01201870BDE8F8830D49DC
:10335000094803F021FEBFE72B681360BCE700BFFC
:10336000B8170020C1170020C4170020C217002082
:10337000BC17002087CF0008FC170020CA170020C8
:1033800060CF0008B0CF0008032BF8B505460C4607
:1033900017462FD0022B2DD0FFF756FF0646384692
:1033A00005F08AF9214605F0D7F80446304605F0C5
:1033B00083F9214605F094FB08B90020F8BD2846A2
:1033C000FFF742FF05F078F9214605F089FB0A4C2A
:1033D00070B123780133DBB223702378632BECD9EF
:1033E0000649074803F0D8FD002323700120F8BDEB
:1033F0002070F8BD1846F8BDD7170020C3CF0008CD
:10340000FC17002038B504462548007880B92548C7
:10341000007868B924480568032D054608D9234873
:10342000007838B92248007820B92248007808B9D5
:10343000002038BD2046FFF7A7FF03282ED801A3A0
:1034400053F820F031340008553400087D3400086A
:10345000313400082046FFF7E3FD174B06221A70AF
:1034600016480021022202F039F8154802210A22EA
:1034700001F0FCFC00232B60012038BD0E4C2378AA
:103480000A2BD5D00F49104803F086FD0A230B48BC
:1034900000210222237002F021F8C9E738BD00BFE5
:1034A000B8170020C1170020C4170020D61700202D
:1034B000D4170020D5170020F5170020F41700209E
:1034C000F0170020E5CF0008FC170020F8B50546EE
:1034D00002F0C2FD2A4B1A781E46002A4FD1294B12
:1034E000294C1A781F462AB9284B1B7803F0FF0293
:1034F000002B43D01F2004F099F800B93870262023
:1035000004F094F808B9214B18702846FFF79CFE88
:10351000632805D8236864200133236001F008FE86
:10352000226844F24F639A4229D91F2004F01AF806
:10353000262004F017F8144B00221A6014490123C6
:103540001448337003F028FD1348FFF74DF8134C6F
:10355000054650B912490F4803F01EFD0A231148D1
:1035600029460222237001F0B9FF102323700D4871
:1035700000210222BDE8F84001F0B0BF2260F8BD92
:10358000C0170020B8170020B4170020C117002072
:1035900019D00008FC170020AB170020F5170020F9
:1035A0002FD00008F41700202DE9F7438846054680
:1035B00014461E46FFF734FD02F04EFD01F0FEFA00
:1035C000544B01221A70544F544A00233B6013603D
:1035D00002F042FD40F6B83001F0AAFDB94602F013
:1035E0003BFD1EB124B14E48012103E0002CFAD06E
:1035F0004B480021FFF7A8FC4FF47A7001F098FDCA
:1036000002F02AFD01F0E0FA01F0B4FA05E03B68AF
:10361000C9F800303B68072B1BD802F01DFD284677
:10362000FFF712FE63283F4FF1D8D9F8003013B9E5
:103630003A68394B1A603A68D9F8003003339A4235
:10364000EBD3354B0024384938481C6003F0A4FC08
:1036500038E02846FFF7E4FC02F0FEFC4FF47A6005
:1036600001F066FD02F0F8FC1EB124B12C480021E7
:1036700003E0002CFAD02A480121FFF765FC02F094
:10368000EBFC01F0A1FA01F075FA4FF47A7001F049
:103690004FFD11E0C4B1002241460092019228463C
:1036A0001346FFF711FE014650B92846FFF7D2FC3A
:1036B00040B93B68092B03D802F0CEFC5EB1E9E7C4
:1036C000012023E0002021E0009401942846414697
:1036D0000122234606E064B1009601962846414641
:1036E00001223346FFF7F0FD0028E9D128460121E9
:1036F000DCE7009401942846414622462346FFF722
:10370000E3FD0028DCD128462146CFE703B0BDE821
:10371000F08300BFD6170020D0170020BC17002070
:10372000B9170020C417002063D00008FC17002040
:103730002DE9F04F634B00250126DFF8BC91DFF83F
:10374000BCA187B08B461D70314607230222044678
:103750005D488AF800308DF80F5089F8006001F05C
:10376000BDFE5A480321052201F080FBBBF1F00F9A
:1037700010D15749574803F00FFC04A905AA334656
:103780002046FFF711FC314680465348FFF7DCFB2B
:103790002F4616E0BBF1F10F12D150494D4803F00E
:1037A000FBFB2B4604A905AA2046FFF7FDFB374685
:1037B0002946804648482E46FFF7C6FB3D4600E0B6
:1037C0002E4601F001FA01F0D5F902F045FCD5B121
:1037D000002200920192134620460DF10F01FFF7DF
:1037E00073FD024610BB20460221FFF7D7FC08B14B
:1037F000012064E020460499059A4346FFF702FE43
:1038000080B100205BE06EB10095019520460DF17E
:103810000F0101222B46FFF757FD38B9204603213F
:103820002A46E2E72E48FDF773F9CEE720460DF170
:103830000F013A460123FFF7B7FE30B32949254867
:1038400003F0AAFB2046FFF7EBFB9DF80F1026487C
:10385000FEF7D7FD9DF80F102348FEF723FE012445
:103860009DF80F102048FEF76EFE214616480222F2
:103870008AF8004001F032FE0023144802210A2297
:1038800089F8003001F0F2FAB2E71248174903F064
:1038900083FB012389F8003002F0DEFB144B012189
:1038A0001970144B19700EB1204603E0002DF3D0AF
:1038B00020463146FFF7CEFB0028EDD0A1E707B048
:1038C000BDE8F08F9D170020F4170020F0170020AE
:1038D0009DD00008FC170020B9170020ACD00008CC
:1038E0009E170020BAD00008AB170020D2D00008E5
:1038F000C2170020B1170020D5170020F5170020AF
:10390000464B2DE9F0411A7805461E46444C12B943
:10391000444B1B783BB102F09FFB4348FEF7E0FCB1
:1039200008B1237853B12378002B74D03F4A137821
:10393000904603F0FF07002B6DD114E03B4B1B7842
:10394000002BF0D101F016F9354B01221A703378B3
:1039500013B1374B1A70E6E7324A1278002AE2D0E8
:10396000334A1370DFE7334C284623682646013379
:103970002360FFF769FC63284DD80A2001F0D8FBCB
:103980002846FFF761FC632845D8254B1F70336834
:103990000A2B3BD92448FEF712FD274B64241B68F1
:1039A0005C43234BB4FBF0F01B78C4B21E484BB110
:1039B000FEF75AFD2044C4B2642C28BF64241F487B
:1039C0001F4908E0FEF750FD001BC4B2652C1B48E0
:1039D0001C4928BF002403F0C4FA0A2221461748D4
:1039E00003F066FB21461048FEF70BFD21460E480A
:1039F000FEF758FD21460C48FEF7A5FD124B0F229D
:103A00001A7012480021012201F068FD0023336082
:103A1000012388F800300020BDE8F081B8170020AD
:103A2000AF170020C1170020AB170020C8170020D7
:103A3000C9170020CC170020C4170020FC17002055
:103A4000EED000080AD10008F5170020F417002076
:103A500030B597B000212C2268460BAD05F0D8FE9A
:103A600000212C22284605F0D3FE02F0F5FA0024AE
:103A7000042003F0CDFD4DF80400052003F0C8FD3F
:103A8000285104342C2CF3D10B22ADF1040309ACE2
:103A9000A34207D053F8040F5968884284BF586086
:103AA0001960F5E7013A12F0FF02EED10B220AABE2
:103AB00014ACA34207D053F8040F5968884284BF5E
:103AC00058601960F5E7013A12F0FF02EFD106984D
:103AD00004F094F910A3D3E9002304F005FA0022BE
:103AE0000F4B04F001FA044611980D4604F086F9D4
:103AF00009A3D3E9002304F0F7F90022084B04F0EE
:103B0000F3F902460B462046294604F039F804F042
:103B100085FC17B030BD00BF0000000000C8E93FC1
:103B200000002640AFF30080F8B51C46114B0D464F
:103B30001B6816469B07069F1BD10F4B1B7803B9CA
:103B4000F8BDFFF785FF20602B6801332B602368E9
:103B5000002B01DA5B422360236843F2B062934298
:103B600003DD326813443360F8BD3B6801333B60CA
:103B7000F8BDF8BDC4170020B01700202DE9F843A8
:103B8000089F0C6899463B688846E41A13681646F5
:103B9000B3FBF4F414602CB91348144903F0FCF996
:103BA00025461EE012482146FEF7E1FE054640B9D3
:103BB000104B0A221A7010482946022201F08EFC8E
:103BC0000FE00E49084803F0CCF9074821460A22C5
:103BD00003F081FA00203060C8F80000C9F8000046
:103BE00038602846BDE8F883FC17002028D100087B
:103BF000AB170020F5170020F417002043D1000870
:103C00002DE9F34105460C46174602F025FA2846F1
:103C1000FFF71EFF01A9051E5948BABF6D424FF0BC
:103C200001084FF00008FEF7F0FE019E42F210730B
:103C3000AE1B46BF7642002501259E4204DD514958
:103C4000514803F0A9F984E0B6F5FA7FC0F281800B
:103C50004D484E4903F085F92046B8F1000F27D0B2
:103C60006DB1B6F57A6F3EDA04F0C8F80446304616
:103C70000D4604F0D3F838A3D3E9002326E0B6F5C7
:103C80007A6F0ADB04F0BAF8044630460D4604F0B9
:103C9000C5F833A3D3E9002347E004F0AFF80446A6
:103CA00030460D4604F0BAF84FF03332384B3CE062
:103CB00025B3B6F57A6F16DB04F0A0F8044630465B
:103CC0000D4604F0ABF828A3D3E9002304F00CF967
:103CD0000022304B04F032FA02460B4620462946B9
:103CE00003F04EFF2DE004F089F8044630460D46FF
:103CF00004F094F81EA3D3E90023E7E7B6F57A6F42
:103D000009DB04F07BF8044630460D4604F086F8E3
:103D10000022214B09E004F071F8044630460D46BC
:103D200004F07CF814A3D3E9002304F0DDF80022AA
:103D3000184B04F003FA02460B462046294603F0CE
:103D400021FF04F093FB386039680F480A2203F022
:103D5000C2F902B0BDE8F081CDCCCCCCCCCCEC3FEC
:103D60009A9999999999F93F676666666666E63FFA
:103D70009A9999999999E93F9A9999999999F13FBD
:103D8000AB17002066D10008FC17002091D1000875
:103D90003333F33F00407F400000F83FAFF3008033
:103DA0002DE9F04F00258FB00646A3488DF82B5023
:103DB0000B95FEF7D2FD049002F04EF99E48FEF7F7
:103DC0008FFA0446002800F028829B48FEF74CFB3F
:103DD00080469948FEF799FB984B8DF82B00964842
:103DE0001D70FEF7ECFA4FF6FF7383469B4594482F
:103DF00015D1944903F0D0F88F48FEF7F5FB04463F
:103E000000284CD190498E4803F0C6F88F4B0A2207
:103E10001A708F482146022201F060FB51E28D4961
:103E200003F09FF80A224146854803F041F98A4988
:103E3000834803F096F80A229DF82B10804803F07F
:103E400037F986497E4803F08CF859460A227C48A7
:103E500003F041F902F000F9B8F1640F7B4F06D886
:103E60009DF82B30642B02D8BBF5F07F19D97C4923
:103E7000734803F091F80A237548002102223B7031
:103E800001F02CFB6C48FEF734FA04466A48FEF752
:103E9000ABFB04B118B96A48724903F07DF80024FD
:103EA0000FE207236A48012102223B7001F016FB52
:103EB00002F0D2F86C4B4FF0010A83F800A06B4B74
:103EC0001D706B4B1D609DF82B3043450FD89845F6
:103ED0000FD8434510D13046FFF7A2F85C48514651
:103EE000022287F800A0544601F0F8FAE9E12F46D3
:103EF00004E05746AA4601E02F46AA4602F0ACF875
:103F0000BAF1000F0AD09DF82B303046C8EB0303FE
:103F10005FFA83F90CA90DAA00230AE06FB19DF89E
:103F20002B303046C3EB08035FFA83F90CA90DAAC6
:103F30000123FFF739F8059000E0B946484603F041
:103F40006DFF3BA3D3E9002303F0CEFF04465846A0
:103F50000D4603F053FF02460B462046294603F068
:103F6000C3FF0022434B03F00DFE04F07FFA4249E9
:103F700006900B90324802F0F4FF06990A2230486E
:103F800003F0A9F802F068F8BAF1000F06D03B4838
:103F90000021FEF7D9FF0120079006E02FB1374836
:103FA0000121FEF7D1FFCDF81CA0032134480A22DD
:103FB00000F05CFF00F008FE00F0DCFD04990A232D
:103FC0004B4300250993089504952C4602F044F8CC
:103FD0009DF82B30013B622B0DD82A4B1A680B9BA6
:103FE0009A4208D31648284902F0D6FFBAF1000FCA
:103FF00000F00781F6E0BAF1000F10D00B9B0DF135
:104000002B010193CDF80090304600220123FFF7E9
:104010005BF90146002840F0E580304651E0AFBB37
:10402000184B04981A68824261D8CBE0AFF3008045
:104030007B14AE47E17A843FAB170020B117002014
:10404000FC170020C8D100082FD00008F517002069
:10405000F4170020F6D1000814D2000834D200086A
:1040600055D200087ED20008D41700209D170020EA
:10407000BC1700200000E03FAED20008B9170020B6
:10408000F0170020C4170020DCD200080B9B01228F
:104090000193CDF8009030460DF12B011346FFF748
:1040A00013F960B189498A4802F05BFF894B88485F
:1040B00019680A2203F00FF8854887499EE03046C8
:1040C0000121FEF7C7FF00287FF4E9AE3046012149
:1040D0002246FFF763F808B10124F2E030460C995C
:1040E0000D9A059BFFF78EF9002899D0D7E619683D
:1040F00001350491EDB2BAF1000F25D0039301F020
:10410000ABFF039B186804F0D7FA0446584604F046
:10411000D3FA0146204604F0DBFB704904F024FB8F
:104120000446404604F0CCFA0146204604F014FA56
:1041300004F0E0FC0A23C4B2B4FBF3F203FB124325
:1041400013F0FF0F2ED02BE0002F33D0039301F09C
:1041500083FF039B40461B68039304F0B1FA039B63
:104160000446184604F0A8FA03465846039304F0A0
:10417000A3FA039B0146184604F0AAFB574904F032
:10418000F3FA0146204604F0E5F904F0B3FC0A23F3
:10419000C4B2B4FBF3F203FB1243DBB2012B01D137
:1041A000013CE4B221464E48FEF7CDF94C48214689
:1041B000FEF727F9022D05D9304606990BAAFFF71D
:1041C0001FFD0025434B09981A68B2FBF0F100FB74
:1041D000112119B91A680898824227D14148FCF781
:1041E00097FCF3E640493A4802F0BBFE394B3848A9
:1041F00019680A2202F06FFF35483C4902F0CCFEF4
:1042000002E0002F7FF44EAF9DF82B30ABB1642B52
:1042100013D0374B1B7883B937E036492C4802F06E
:10422000BBFE35492A4802F0B7FE4AE01B68334816
:104230000122089301F052F9D0E730460DF12B012D
:10424000079A0123FFF7B0F920B12D49204802F069
:10425000A3FE1AE01E482B4902F09EFE2A4B0122C3
:104260001A7001F0F9FE294B01211970284B1970C1
:104270000FB1304604E0BAF1000FF2D030463946B3
:10428000FEF7E8FE0028ECD009E63046FEF7C8FE4F
:1042900001F0E2FE9DF82B101148FEF7B2F89DF8F0
:1042A0002B100F48FEF74FF901241A4B13482146F3
:1042B00002221C7001F012F9174802210A2200F0B4
:1042C000D5FD20460FB0BDE8F08F00BFF7D2000843
:1042D000FC170020C41700201CD300080000C842AF
:1042E000AB1700209E17002043D300086AD30008B4
:1042F000CA170020CAD30008EDD30008F417002025
:1043000092D30008ACD30008D4170020C2170020B5
:10431000B1170020F5170020F0170020AFF3008040
:1043200070B5064601F098FE2C48FEF7EEF82C49D1
:1043300005462C4802F015FE0A222946294802F0BB
:10434000B7FE2648FEF732F927490446254802F011
:1043500008FE0A222348214602F0AAFE0A23B4FBE3
:10436000F3F203FB124313F0FF0F08D0AC4203D962
:10437000631B052B2ADD04E02B1B052B26DDAC423D
:104380002AD021461548FEF73CF829461348FEF787
:1043900089F8262003F0E6F81F2003F0E3F8002157
:1043A000102003F059F93046FFF7FAFC1F200F499F
:1043B000022203F0B9F826200D49022203F0B4F8D6
:1043C000BDE870401020012103F046B905480949B5
:1043D000BDE8704002F0E0BD70BD00BFAB1700202B
:1043E00038D40008FC1700205DD40008592D0008BF
:1043F000052E000883D4000838B5264B05461A78E8
:10440000002A45D00022244824491A7002F0C4FD35
:10441000234B1B7813B12048224935E0224C2378E6
:10442000FBB9224B1B78E3B9262003F09BF81F2031
:1044300003F098F80021102003F00EF92846FFF74A
:10444000AFFC1F201A49022203F06EF826201949FA
:10445000022203F069F8BDE838401020012103F082
:10446000FBB81F2003F0E2F800B92070262003F00B
:10447000DDF808B90D4A107023781BB90B4B1B7877
:10448000002BD1D004480C49BDE8384002F084BD6F
:1044900038BD00BFCA170020FC170020ABD40008AD
:1044A000C0170020BEC30008B8170020C1170020A5
:1044B000592D0008052E0008A1C50008F8B51F46B3
:1044C0000F4B15461B680C4613F00302069E16D1CF
:1044D0000C4B197801B9F8BD1A70FEF7B5FE3860BB
:1044E0002368013323603B68B3F5967F03D92A68BC
:1044F00013442B60F8BD336801333360F8BDF8BD59
:10450000C4170020B01700202DE9FF4799469DF8F9
:1045100034301446012B4FF000020E460C9F0392DC
:1045200020D103A96048FEF7F6FA039B40F6B732A4
:10453000591E914288BF4FF4487323605A4821683E
:10454000FEF713FB0546002867D15849584802F08A
:1045500023FD584B0A221A7057482946022200F0C0
:10456000BDFF8EE03A680D68AD1A2268B2FBF5F522
:1045700025602DB94E48514902F00EFD28468FE0C6
:10458000002B40F0818048482946FEF768FA8046B3
:104590004748B8F1000F0BD1494902F0FDFC454BEB
:1045A0000A221A7044484146022200F097FF32E086
:1045B000444902F0D6FC0A2221683D4802F08BFDF6
:1045C0003948FEF7B8F903F029FC00223E4B03F00E
:1045D000B5FD03F06BFF3D490546354802F0C1FCCF
:1045E000284603F02DFC4FF0020A02460B46CDF898
:1045F00000A02F4802F028FE206804F05DF829464C
:1046000004F0B2F803F01CFCCDF800A002460B4603
:10461000274802F019FE012538E02D49244802F010
:10462000A0FC0A222168224802F055FD1E48FEF730
:1046300082F903F0F3FB0022234B03F07FFD03F02C
:1046400035FF224980461A4802F08BFC404603F0B1
:10465000F7FB4FF0020A02460B46CDF800A01448C3
:1046600002F0F2FD206804F027F8414604F07CF8DF
:1046700003F0E6FBCDF800A002460B460C4802F022
:10468000E3FD4FF0010801E00125A846002398450D
:10469000236014BF284618463360C9F800303B60D9
:1046A00004B0BDE8F08700BFAB1700205CD5000860
:1046B000FC170020F5170020F4170020CDD40008C7
:1046C000E8D4000828D500080000244045D500089B
:1046D0009ED500082DE9F04F9B498FB000269B4DD9
:1046E00004469B488DF80F60049606960796089638
:1046F0000A960B9602F050FC0B23964801210222E9
:104700002B7000F0EBFE01F0A7FC934B93481E705A
:10471000934BAA461E60FDF7ECFD074630B98C4866
:10472000904902F039FC0A232B705AE0DFF86082CE
:104730008D4803211422012588F8005000F096FBD3
:104740000CA90DAA33462046FEF72EFC814683486D
:10475000FDF7DBFE59284AD98048FDF7D6FE6428CC
:1047600040F2938143E0814B1A68D20702D51A6860
:1047700001321A60D3F8009020460DF10F01324645
:104780000023FEF711FF002800F069817849704886
:1047900002F002FC2046FEF743FC07AB00932046E4
:1047A00005AB06A904AAFFF7E9F90BAB0093002DAE
:1047B00000F02781002301930AA908AA09AB20462B
:1047C000FFF7A2FE65484946FDF7ADFD0746604884
:1047D000002F40F01881674902F0DEFB0A238AF8B7
:1047E00000305C483946022200F078FE52E162480F
:1047F0000021FEF7A9FB0025012600F0BBF900F01F
:10480000E3F901F029FC8DB10023009301932046C8
:104810000DF10F010122FEF757FD00282FD1204690
:104820000121FEF717FC70B1002733E100950195D7
:1048300020460DF10F012A462B46FEF745FDF0B943
:1048400020462946EDE720460C990D9A4B46FEF787
:10485000D9FD0028E8D1002120460A46FEF79EFC3B
:10486000002840F017810BAB009320460AA908AA44
:1048700009ABFFF723FE4148FCF74AF9C1E72046A0
:104880000DF10F0132460123FEF78EFE60B3384969
:104890002F4802F081FB2046FEF7C2FB0BAB0093D2
:1048A00015B10123019300E0019508AA09AB0AA9FB
:1048B0002046FFF729FE4FF001093149244888F8C6
:1048C000009002F069FB4FF47A7000F031FC01F0C7
:1048D000C3FB20460CA90DAA4B46FEF765FB834699
:1048E0002548BDB1002116E01948264902F054FBC5
:1048F000012388F8003001F0AFFB234B0121197030
:10490000224B2046197005B92946FEF7A3FB002863
:10491000F1D089E74946FEF717FB00F02BF900F0CC
:1049200053F901F099FBADB300220DF10F01009294
:10493000019220461346FEF7C7FC014600287FF48B
:1049400012AF204634E000BFBDD50008F5170020A7
:10495000FC170020F41700209D170020AB17002043
:10496000BC170020E8D50008F0170020C41700206D
:104970001DD6000874D60008B91700209E17002025
:1049800047D6000830D60008C2170020B117002013
:10499000D61700200095019520460DF10F01012248
:1049A0002B46FEF791FC00287FF4DDAE2046012166
:1049B000FEF750FB00287FF437AF20460C990D9A84
:1049C0005B46FEF71FFD00287FF42EAF0021204636
:1049D0000A46FEF7E3FB00285CD107AB00932046B4
:1049E00006A904AA05ABFFF79FF80BAB009320467E
:1049F0000AA908AA09ABFFF761FD2848FCF788F867
:104A00008FE70123D7E6264902F0ABFA0A2249468E
:104A1000244802F060FB2449224802F0BDFA9DF8C8
:104A20000F102248FDF7EDFC9DF80F101F48FDF711
:104A300039FD9DF80F101D48FDF785FD1B48FDF75A
:104A400034FC0C231A48012102228AF8003000F0BD
:104A500045FD184802210A2200F008FA1AE0114820
:104A6000154902F099FA012388F8003001F0F4FAB0
:104A7000124B01211970124B2046197005B100210B
:104A8000FEF7E8FA0028F1D0CEE60E482946FEF7F8
:104A90005BFAB2E638460FB0BDE8F08F9E170020F3
:104AA000A3D60008FC170020CDD60008AB170020C5
:104AB000F4170020F017002030D60008C21700209D
:104AC000B1170020B91700200148112100F0A9BE3C
:104AD000D8170020034B1A6801321A60024B0122DA
:104AE0001A707047C4170020B0170020064B1A68D0
:104AF00001321A601A68B2F5615F04D300221A60AD
:104B0000024B01221A707047DC170020E1170020C9
:104B100010B5094C0949204602F0A1F920460121AF
:104B2000074A02F0BBF92046002102F08FF9204627
:104B3000BDE8104002F074B9F418002040420F00A4
:104B4000D54A000810B5084C0849204602F087F9FC
:104B500020460121064A02F0A1F920460021BDE8C5
:104B6000104002F073B900BFF818002040420F0057
:104B7000ED4A000810B5074B0021074C1960074BA0
:104B80002046197002F062F92046BDE8104002F09C
:104B90004FB900BFC4170020F4180020B017002040
:104BA00010B5054C204602F043F920460021BDE82F
:104BB000104002F04BB900BFF8180020014802F085
:104BC0002FB900BFF4180020014802F029B900BF36
:104BD000F818002001480021FCF7A2BCA017002013
:104BE0001FB5304801A9FDF7C3F92F4CC0B92F49B3
:104BF0002F4802F0D1F92F4800F002FC2E48FBF7B5
:104C000087FF40F6B83002F053FD01F025FA237813
:104C10000133DBB2322B2370E3D901F051FAE0E724
:104C2000002323702548FDF78BFDC0B92449204897
:104C300002F0B2F91F4800F075FB1F48FBF768FF50
:104C400040F6B83002F034FD01F006FA2378013363
:104C5000DBB2322B2370E5D901F032FAE2E7002310
:104C600023701648FDF7EDFDC0B91649104802F053
:104C700093F9104800F0C4FB0F48FBF749FF40F6DA
:104C8000B83002F015FD01F0E7F923780133DBB20B
:104C9000322B2370E5D901F013FAE2E700232370E9
:104CA00004B010BDAE170020E0170020FCD60008AD
:104CB000FC170020F41700209E170020AB170020DF
:104CC0004AD70008A2D7000808B50F4B1A78CAB116
:104CD00000221A70FFF778FF0C480121052200F02E
:104CE000C5F8FFF777FFFFF77BFFFFF759FF07488E
:104CF00002210A2200F0BAF8BDE80840044805493C
:104D000002F04AB908BD00BFE1170020F0170020EB
:104D1000FC170020F8D70008002330B505461846D8
:104D20008B420FDAEA5C5040082210F0010F4FEA84
:104D300060041ABF84F0E000C0B2E0B2013AF4D1DE
:104D40000133EDE730BD000008B52A4B2A491A6847
:104D5000096801328A421A604AD300221A60274A3F
:104D60001378DB43DBB21370254A1278032A3FD84D
:104D7000DFE802F00B29021C22200BB9012100E020
:104D8000002102F069FC232007E023200BB9012158
:104D900000E0002102F060FC2220002102F05CFC17
:104DA0002020002102F058FC21201CE020200BB91B
:104DB000012100E0002102F04FFC2220002102F03E
:104DC0004BFC2320EDE721200BB9012100E000215D
:104DD00002F042FC2220002102F03EFC23200021B0
:104DE00002F03AFC20200021BDE8084002F034BC6B
:104DF00008BD00BFE4170020EC170020E8170020D2
:104E0000E917002008B52520002102F0BFFB222071
:104E1000002102F0BBFB2320002102F0B7FB202081
:104E2000002102F0B3FB2120002102F0AFFB28207B
:104E3000022102F0ABFB2720022102F0A7FB222077
:104E4000002102F009FC2020002102F005FC2320B3
:104E5000002102F001FC2120002102F0FDFBBDE851
:104E600008402520012102F0F7BB000010B50A4BD5
:104E70000A4C19700A4B20460A491A6001F0EFFFEC
:104E800020460121084A02F009F820460021BDE829
:104E9000104001F0DBBF00BFE9170020FC18002024
:104EA000EC170020A0860100494D000808B50A480B
:104EB00001F0B6FF2220002102F0CEFB20200021CD
:104EC00002F0CAFB2320002102F0C6FBBDE8084027
:104ED0002120002102F0C0BBFC180020014801F095
:104EE000A7BF00BFFC18002038B50D460024AC4217
:104EF00010D00021252002F0AFFB4FF4FA7002F031
:104F0000E5FB2520012102F0A7FBC82002F0DEFB13
:104F10000134ECE738BD08B51620002102F036FB5D
:104F20001720002102F032FB1620012102F094FB31
:104F3000BDE808401720012102F08EBB1720002198
:104F400002F024BB1720042102F020BB08B5FFF7B4
:104F5000F5FF1720012102F07FFB0121162002F04E
:104F60007BFB052002F0B2FB0021172002F074FB4E
:104F7000062002F0ABFBBDE808401620002102F03D
:104F80006BBB08B5FFF7DAFF1620002102F064FBC7
:104F90001720002102F060FB0121162002F05CFBCB
:104FA000062002F093FB1720012102F055FBBDE81B
:104FB0000840062002F08ABB10B5002104461620E6
:104FC00002F04AFB2046FFF7B9FF0021172002F04C
:104FD00043FB022002F07AFB0121162002F03CFB89
:104FE000052002F073FBBDE810401620002102F0FE
:104FF00033BB10B500210446162002F02DFB2046DD
:10500000FFF79CFF0121172002F026FB022002F08F
:105010005DFB0121162002F01FFB052002F056FB6C
:10502000BDE810401620002102F016BB70B5064600
:10503000FFF788FF0121172002F00EFB012002F08C
:1050400045FB1620012102F007FB012002F03EFB88
:10505000FB25172002F0EAFA044640B1013D15F0A5
:10506000FF05F6D13046FFF78CFF012070BD1620FA
:10507000214602F0F1FA204670BD38B50C46FFF724
:105080005DFF1620002102F0E7FA082524F07F03D7
:1050900003F0FF01172003B1012102F0DDFA012125
:1050A000162002F0D9FA022002F010FB162000218F
:1050B00002F0D2FA013D0220640002F007FB15F075
:1050C000FF05E4B2E2D138BDF8B505460F46FFF75B
:1050D00039FF082600240021162002F0BDFA022024
:1050E00002F0F4FA1620012102F0B6FA640017204B
:1050F000E4B202F09BFA08B10134E4B20120013EAF
:1051000002F0E4FA16F0FF06E5D1284617B9FFF7DA
:1051100070FF01E0FFF750FF2046F8BD01F00F03DC
:10512000090901EB810103EB4100C0B270470000A7
:10513000074A30B5136815462C6819188C42044A82
:1051400004D81168994238BF1368F5E730BD00BF35
:10515000CC19002037B50C460C480DF10701FCF7BF
:1051600066FE9DF807304FF47A705843084902F004
:1051700094FA9DF80730054664205843054902F02B
:105180008CFA2844206003B030BD00BFAE17002069
:1051900060E31600400D030070B50E46154600246E
:1051A000E3B2AB42074809D2315D102201F077FF2C
:1051B0000448054901F0D5FE0134F1E7BDE870402F
:1051C00001F0D4BEFC170020BBD5000830B595B067
:1051D00040220546002104A804F01AFB002314A96C
:1051E00041F8503D28466946FFF7B4FF009802F0A9
:1051F0006DFA00F031FFFE238DF81030E0238DF8BA
:10520000113011238DF8123024238DF81330C02370
:105210008DF8143001238DF815303B4B1B7803B10A
:1052200055233A488DF81630FDF708FB01AC8DF890
:10523000170021463548FDF75CFA002304AA1A44FA
:10524000E15C0133052B1172F8D131482146FCF79E
:1052500096FD002304AA1A44E15C0133092B517323
:10526000F8D10024012305A824218DF826308DF8DB
:1052700027408DF828408DF829408DF82A408DF878
:105280002B408DF82C408DF82D408DF82E408DF858
:105290002F408DF830408DF831408DF832408DF838
:1052A00033408DF834408DF835408DF836408DF818
:1052B0003740FFF731FD8DF83800E30704AB234496
:1052C00004F1010454BF0D220A22062C83F8292080
:1052D000F3D11049104801F05FFE04A928462F229F
:1052E000FFF75AFF0D48FFF7E1FD0D4804A90368D9
:1052F0002F229B689847C82002F0DAF90748FFF789
:10530000EDFD15B030BD00BF9C170020AB1700208D
:10531000AE17002030D80008FC170020F01700203E
:105320001418002010B586B014220446002101A8EC
:1053300004F06EFA002306A941F8183D204669469C
:10534000FFF708FF009802F0C1F900F085FEFE2388
:105350008DF80430E0238DF8053012238DF80630E7
:1053600005238DF80730C0238DF8083001238DF810
:1053700009301D4B1B7803B155231C488DF80A30AA
:10538000FDF75CFA01238DF80B00052102A88DF8CA
:105390000C30FFF7C1FC00238DF80D00DA0701AADD
:1053A0001A4403F1010354BF0D210A21062B917207
:1053B000F4D10F490F4801F0EFFD01A9204610225A
:1053C000FFF7EAFE0C48FFF771FD0C4801A90368DE
:1053D00010229B689847C82002F06AF90648FFF738
:1053E0007DFD06B010BD00BF9C170020AB1700204C
:1053F0004CD80008FC170020F017002014180020DB
:1054000010B586B014220446002101A804F000FA69
:10541000002306A941F8183D20466946FFF79AFE89
:10542000009802F053F900F017FEFE238DF80430C7
:10543000E0238DF8053013238DF8063005238DF811
:105440000730C0238DF8083001238DF809301D4B3B
:105450001B7803B155231C488DF80A30FDF7EEF98F
:1054600001238DF80B00052102A88DF80C30FFF701
:1054700053FC00238DF80D00DA0701AA1A4403F14A
:10548000010354BF0D210A21062B9172F4D10F495B
:105490000F4801F081FD01A920461022FFF77CFE94
:1054A0000C48FFF703FD0C4801A9036810229B6814
:1054B0009847C82002F0FCF80648FFF70FFD06B039
:1054C00010BD00BF9C170020AB1700204CD800086F
:1054D000FC170020F01700201418002070B592B0BF
:1054E0000C460546164602A80021402204F090F919
:1054F0000023019300F0B0FD34B1284601A9FFF765
:1055000029FE019802F0E2F800F0A6FDFE238DF8D6
:105510000830E0238DF8093014238DF80A301A235F
:105520008DF80B30C0238DF80C3001238DF80D3031
:105530004B4B1B7803B155234A488DF80E30FDF7CD
:105540007DF901238DF81030474B8DF80F001B7843
:1055500046488DF81130FEF77BFA454C0028B8BF5D
:105560004042031221788DF8130042488DF8123022
:10557000FFF7D4FD61788DF814003E48FFF7CEFDAB
:105580008DF815003748FDF711F88DF816003548ED
:10559000FDF7BFF900248DF8180032488DF8174048
:1055A000FDF7C9F98DF81A0030488DF81940FDF75C
:1055B0004BFE030A8DF81C002A488DF81B30FDF7BE
:1055C000CCF901462B48FFF7A9FD8DF81D002A48AC
:1055D000FCF788FD14238DF81E008DF81F3003A8FA
:1055E00053231A218DF820308DF821408DF8224068
:1055F0008DF823408DF824408DF82540FFF78CFB73
:105600008DF82600E30702AB234404F1010454BFE4
:105610000D220A22062CDA77F4D11849184801F035
:10562000BBFC284602A92522FFF7B6FD0024E3B201
:10563000B34212D200F010FD1248FFF737FC1248B7
:1056400002A9036825229B689847104802F03EF89B
:105650000C48FFF743FC0134E9E712B070BD00BF0E
:105660009C170020AB170020F5170020B917002069
:10567000F2170020F1170020AA17002072D80008A6
:10568000FC170020F017002014180020400D030024
:105690002DE9F0418AB005468846174600211922B7
:1056A00003A804F0B5F800260AA941F8206D2846A1
:1056B000404CFFF74FFD029802F008F800F0CCFCD8
:1056C00023780BB1637833B900963B4839490122FE
:1056D0003A4BFBF7AFFDFE238DF80C30E0238DF83D
:1056E0000D3015238DF80E300E238DF80F30C023AA
:1056F0008DF8103001238DF81130314B1B7803B138
:10570000552330488DF81230FDF798F801232178A1
:105710008DF813002C488DF814308DF81580FFF7A4
:10572000FDFC61788DF816002748FFF7F7FC002490
:105730008DF817000E2104A88DF818408DF8194037
:105740008DF81A408DF81B408DF81C408DF81D40D7
:10575000FFF7E2FA8DF81E00E30703AB234404F1E0
:10576000010454BF0D220A22062CDA74F4D1174921
:10577000174801F011FC284603A91922FFF70CFD78
:105780001448FFF793FB0024E3B2BB420CD200F0B5
:1057900063FC114803A9036819229B689847C82035
:1057A00001F086FF0134EFE70A48FFF797FB0AB0E4
:1057B000BDE8F081F2170020A01700208CD8000867
:1057C0009C170020AB170020F117002096D8000886
:1057D000FC170020F017002014180020122938B5FB
:1057E0000546144608460BD0132910D0112916D1AE
:1057F00000F06CF80CB120460FE047F6FF700CE0AB
:1058000000F064F8002CF6D149F63F4005E000F0C6
:105810005DF8002CEFD14FF2234000F0DFF828466E
:1058200038BD13B50022044601A8FFF7D7FF204674
:1058300002B010BD054B1B681B685B0103F184437C
:1058400094331A68002AFCD0704700BF0C00002077
:10585000054B1B681B685B0103F184438C331A689A
:10586000002AFCD0704700BF0C00002008B5FFF7ED
:10587000E1FF054B00221B681B685B0103F18443B9
:10588000C3F88C2008BD00BF0C00002008B5FFF74E
:10589000D1FF054B01221B681B685B0103F18443A8
:1058A000C3F8902008BD00BF0C00002008B5FFF72A
:1058B000C1FF054B00221B681B685B0103F1844399
:1058C000C3F8902008BD00BF0C00002010B50446AE
:1058D00000F02AFB00F034FB204A112C136A23F459
:1058E0004073136213460BD005D8C4B1102C2AD1D3
:1058F0000023136227E0122C11D0132C1AD022E0BF
:10590000174A00211160012142F8081C154A12684B
:1059100012F0FF0FFAD01A6A42F4807212E0124AB3
:1059200001211160114A1268002AFBD01A6A42F460
:10593000007207E00E4A126812F0FF0FFAD01A6ADE
:1059400042F440721A620B4B01221A60FFF78EFF7D
:10595000FFF77EFFBDE81040FFF76CBF001002406C
:105960000804424204044242800442428404424207
:10597000440042423C044242F8B5104B1E68356870
:105980002B686F681F4017F0010403D074680CB1D6
:10599000A0470124BA0704D5B36813B1984744F06F
:1059A00002047B0704D5F36813B1984744F004045C
:1059B0006B6823EA04046C60F8BD00BF0C00002093
:1059C00008B5044B1B681B691BB19847024B0122A9
:1059D0001A6008BD0C000020C482204210B50446A5
:1059E000FFF744FFFFF734FFFFF724FFFFF74EFFF9
:1059F000064B220C1B68A4B21B689A60DC60FFF7A0
:105A000055FFBDE81040FFF715BF00BF0C00002098
:105A100001498D460149084700C00020215A00086D
:105A200008B5124B124A1968914201D0002301E0D7
:105A3000104B07E01048D4188442F9D2C858D0500F
:105A40000433F7E70D4A934203D2002243F8042BB4
:105A5000F8E703F0A3FB00200146024601F090FDA9
:105A6000074B0BB103F08AFBFEE700BFBCDE00086A
:105A7000000000200017002000170020D819002087
:105A80007D91000808B50D4B1A680AB90C4A1A60D6
:105A90001B680C4AD21A824204DB09494242591A55
:105AA000914206DA03F064FB0C2303604FF0FF30F1
:105AB00008BD024A18441060184608BDF8170020B7
:105AC000D819002018810128FEE70000124B10B5FC
:105AD000196809220A23114801F02EF9104B0222FD
