:020000040800F2
:1000000000C00020F95B0008E15E0008E55E000822
:10001000E95E0008ED5E0008F15E0008415F00083F
:10002000415F0008415F0008415F0008415F000830
:10003000415F0008415F0008415F000881640008DB
:10004000415F0008415F0008415F0008615B0008F4
:10005000415F0008415F0008757B0008957B000840
:10006000B57B0008D57B0008F57B0008415F0008E0
:10007000415F0008415F0008415F0008415F0008E0
:10008000415F0008415F0008B95F0008415F000858
:10009000415F0008415F0008415F0008157C0008CF
:1000A000496700086D67000891670008C967000884
:1000B0001D6800088D680008FD680008415F0008A1
:1000C000415F0008415F0008415F0008415F000890
:1000D000415F00080D6C0008616C0008B56C0008F9
:1000E000597C0008A95B0008415F0008256A0008E8
:1000F000496A00086D6A0008A56A000809600008DE
:10010000415F0008415F00086D690008415F000819
:10011000096D00085D6D0008DD690008016A0008CE
:10012000415F0008415F0008415F0008415F00082F
:1001300010B5054C237833B9044B13B10448AFF321
:1001400000800123237010BD001700200000000074
:10015000ACAC000808B5064B1BB106480649AFF326
:1001600000800648036813B1054B03B1984708BDEA
:1001700000000000ACAC00080417002000170020AD
:100180000000000004F0BBBF38B50D46044604F083
:10019000D1FF290A49006039204601F0FE0105F02F
:1001A00060F8204605F036F8E9B2204605F059F827
:1001B000204605F02FF8204604F0BCFF2046A12180
:1001C00005F04FF8204605F025F80021204605F0FF
:1001D0006FF80546204605F000F8204604F0C5FFFC
:1001E000284638BD70B50D461646044604F0A2FFF9
:1001F000290A49006039204601F0FE0105F031F876
:10020000204605F007F8E9B2204605F02AF8204616
:1002100005F000F83146204605F023F8204604F0AA
:10022000F9FF204604F0A1FFBDE870400A2007F066
:1002300095BB000008B5154A5178937843EA01232D
:10024000A3F52043113B112B16D8DFE803F01B1D4B
:10025000090B0D151515151515151515150F111378
:10026000022008BD032008BD072008BD042008BDEA
:10027000052008BD062008BD00218022034809F0A2
:100280002FFC08BD002008BD012008BD1C17002060
:1002900010B5074C6018114604F032FE054B1B7870
:1002A0001C4414F8073C1B1A5842584110BD00BFAB
:1002B0001C1700209F170020084B18795B7943EA30
:1002C000002045F25553984205D04CF20103C31A61
:1002D0005842584170470120704700BF1C1700204A
:1002E000044B9B79552B044B0CBF012200221A7042
:1002F000704700BF1C1700209C17002010B5084C49
:10030000E379552B01D1012010BD064802F08CFB8A
:10031000E3798342F7D0D0F1010038BF002010BD4F
:100320001C170020AB17002013B50D4B1C7A552C61
:1003300001D1012012E00B48694602F0D0FA0023F7
:100340001A461DF803108C42F3D019B90132D2B20B
:10035000052AEED00133052BF3D1002002B010BDE9
:100360001C170020AB17002070B505461E46FFF78E
:100370008FFF044698B12846FFF79EFF044658B108
:100380002846FFF7ADFF2846FFF7B8FF044648B9F7
:1003900046B10C480C4911E00A480C490EE00948E6
:1003A0000B490BE02846FFF7BFFF044640B99DF814
:1003B00010300BB9012403E00248064906F02AFF79
:1003C000204670BDFC1700203AC40008E8C30008AE
:1003D00016C4000871C4000830B5914B95B01B7865
:1003E000002B00F01B81002300930421172201231E
:1003F000FFF7BAFF002800F008818A4C257A012D0A
:1004000040F000818848E17C01F022FF70B12A466B
:1004100086480F2105F030FA2946854801F07AF91F
:1004200082482946022205F04DF908E07F48102154
:10043000022205F021FA7F487F4906F0EBFE217D7C
:10044000784B31B95A7D22B99A7D12B9DB7D002BE8
:1004500066D0102205A807F0EBF805A90BA807F055
:10046000C4F81022617D08A807F0E2F808A90BA8DB
:1004700007F02EF910220546A17D0EA807F0D8F846
:1004800028460EA907F024F910220546E17D11A89F
:1004900007F0CEF811A9284607F01AF9014602A87C
:1004A00007F0A3F811A807F01AF80EA807F017F83C
:1004B00008A807F014F80BA807F011F805A807F032
:1004C0000EF85E490EA807F04CF80EA911A807F027
:1004D0008CF802A911A807F0FBF80146554806F070
:1004E0008FFE11A806F0FBFF0EA806F0F8FF50489B
:1004F0005349544A002301F06BF828B14B480121BD
:10050000022205F0DFF808E048481221022205F037
:10051000B3F948484C4906F07DFE02A806F0DFFF1B
:10052000217E404B31B95A7E22B99A7E12B9DB7EC8
:10053000002B6AD0102205A807F07AF805A90BA8AD
:1005400007F053F81022617E08A807F071F808A997
:100550000BA807F0BDF810220546A17E0EA807F0F3
:1005600067F828460EA907F0B3F810220546E17E89
:1005700011A807F05DF811A9284607F0A9F801466F
:1005800002A807F032F811A806F0A9FF0EA806F09D
:10059000A6FF08A806F0A3FF0BA806F0A0FF05A879
:1005A00006F09DFF29490EA806F0DBFF0EA911A851
:1005B00007F01BF802A911A807F08AF801461D48A8
:1005C00006F01EFE11A806F08AFF0EA806F087FFAF
:1005D00017481F491B4A002300F0FAFF28B11348AF
:1005E0000121022205F06EF808E0104812210222D3
:1005F00005F042F90F48144906F00CFE02A806F077
:100600006EFF02E0094804F0D5FE124B05481A7847
:10061000002115B0BDE8304009F062BA15B030BD18
:10062000090000201C170020AA170020F417002042
:10063000A0170020FC170020A9C40008D7C4000898
:10064000E0C40008ECC40008F5C4000824C5000894
:100650002DC500089F170020184B07B51B784BB31A
:100660000023009304210A220123FFF77DFEC0B17D
:100670001348144902F0E5F838B11349134806F05D
:10068000C9FD13480321022209E012490F4806F070
:10069000C1FD114B0A220E481A700421012205F0F7
:1006A000EBF80E4B0E481A78002103B05DF804EB0E
:1006B00009F016BA03B05DF804FB00BF0900002082
:1006C000AB1700202417002039C50008FC170020B4
:1006D000F417002069C50008F51700209F170020B7
:1006E0001C17002013B50023009304210F22FFF7ED
:1006F0003BFE10B31D4C1E4804F10A0101F0B5FB8E
:10070000002830D01A4804F10A0101F0EEFB50B382
:100710001849194806F07EFD1848E17902F04BF9B6
:10072000A0B11749144806F075FD164805210122AD
:1007300005F0A2F80E4801F0B9FC134B0B481A78EB
:10074000002102B0BDE8104009F0CAB90A480F49BB
:1007500006F060FD0E4B0A221A700A48062101229B
:1007600005F08AF8E9E704480A49F1E71C17002078
:10077000AE170020FCC50008FC170020AB170020B6
:1007800099C50008F41700209F170020CBC500086A
:10079000F517002029C600080E4B07B51B78ABB132
:1007A00000230093042105220123FFF7DDFD20B182
:1007B000012109480A4604F085FF084B08481A78C9
:1007C000002103B05DF804EB09F08AB903B05DF8CD
:1007D00004FB00BF09000020F41700209F17002031
:1007E0001C170020104B13B51B78DBB101240094BB
:1007F000042106222346FFF7B7FD50B10B4B0C48EE
:10080000072122461C7005F037F81020214607F01A
:1008100079F8084B08481A78002102B0BDE810406A
:1008200009F05EB902B010BD090000209D1700203C
:10083000F41700209F1700201C170020354B37B5F8
:100840001B78002B63D00124009404210622234648
:10085000FFF78AFD30B3304B1B7813B12F48304976
:1008600050E0304B1B7833BB2F4B1B781BBB2F4BFF
:100870001B7803BB2E4D2B7823B92E4B1B7803F02E
:10088000FF01DBB11F2007F027F800B928702620F0
:1008900007F022F808B9274B18702B7883BB254B3B
:1008A0001B786BBB244B25481A78002103B0BDE8A8
:1008B000304009F015B91948214923E0102007F00C
:1008C00021F8262006F098FF1F2006F095FF22460B
:1008D00009211C4804F0D0FF1B4803F0EFFF1F2044
:1008E0001A49022206F06EFF02222620184906F05D
:1008F00069FF1020214607F005F805F0B5FCD1E7A7
:100900000648144903B0BDE8304006F083BC03B08C
:1009100030BD00BF09000020C0170020FC170020D8
:1009200056C60008D6170020D4170020D51700207F
:10093000B8170020C11700209F1700201C170020A7
:1009400088C60008F4170020B9170020452F0008BA
:10095000F12F0008C3C6000830B5914B85B01B7855
:10096000002B00F01A810123009304210722FFF7D6
:10097000FBFC68B38B4B1B7853B18B4B10221A7066
:100980008A480021022204F09DFE8948894967E0D7
:10099000894C23781BBB894B1B7803BB51E08849EA
:1009A00006F038FC804B0A221A7080482146022249
:1009B00004F088FE1F208349022206F003FF262050
:1009C0008149022206F0FEFE1020012106F09AFF66
:1009D0007E4B00211A787E4809F082F8DDE01F2066
:1009E00006F07AFF00B92070262006F075FF08B9DE
:1009F000724B1870237873BB704B1B785BBB26203F
:100A000006F0FAFE1F2006F0F7FE1020002106F087
:100A100079FF66480B21012204F02EFF6C4B9B7A74
:100A20008DF80F309DF80F309DF80F30642B1AD9D8
:100A30009DF80F30F02B4AD09DF80F30F12B64D188
:100A400045E0644B1B784BB9634B1B7833B9634B60
:100A50001B781BB9D3E75648614901E05448614906
:100A600006F0D8FB99E0604801F096FE04465E4827
:100A700001F02CFD30B99DF80F3003B39DF80F3015
:100A8000642B1CD09DF80F309C42D1D15749484867
:100A900006F0C0FB0124444B4448214602221C704E
:100AA00004F010FE1F204749022206F08BFE26208C
:100AB0004549022206F086FE1020214622E09DF8DC
:100AC0000F300BB9F02300E0F1238DF80F304849C7
:100AD000374806F09FFB9DF80F10464802F01CFFB8
:100AE0003A4B00211A783A4808F0FAFF1F2035499E
:100AF000022206F067FE26203349022206F062FE3B
:100B00001020012106F0FEFE47E0374801F0DEFC30
:100B1000044668B19DF80F10334801F0B9FD044652
:100B20002348002C3FF43BAF334906F073FB1CE035
:100B30001F48324906F06EFB2E4803F0BFFE28B373
:100B40002F491B4806F066FB9DF80F10264801F060
:100B50009FFD054668B12B4B1C7005F085FB40F6E8
:100B6000B83004F0D9FB05F07FFB224803F00CFA03
:100B700010E013490E4806F04DFB0B4B0A221A7089
:100B80000A482946022204F09DFD03E008481E4958
:100B900006F040FB05F068FB0CE705B030BD00BF78
:100BA00009000020C0170020F5170020F4170020CE
:100BB000FC170020F0C60008B8170020C11700205D
:100BC000DCC70008452F0008F12F00089F17002000
:100BD0001C170020D4170020D6170020D51700209E
:100BE000D3C80008FEC80008AB1700205DC7000886
:100BF00020C70008B9170020B6C7000813C80008AE
:100C000072C80008CA170020A4C80008194B37B5DD
:100C10001B786BB30124009404210B222346FFF7B9
:100C2000A3FBE0B11448154901F031FF054628B196
:100C300013480D21224604F01FFE10E0114912480E
:100C400006F0E8FA0E480E21224604F015FE0F4B7E
:100C50000A221A700A482946022204F033FD0C4B7E
:100C60000C481A78002103B0BDE8304008F038BFC6
:100C700003B030BD09000020AB170020261700206C
:100C8000F417002054C90008FC170020F5170020B5
:100C90009F1700201C17002010B50446FFF7CAFA62
:100CA00007282DD8DFE800F004090E131D222718AD
:100CB0002046BDE81040FFF78FBB2046BDE810403E
:100CC000FFF7CABC2046BDE81040FFF70BBD204629
:100CD000BDE81040FFF760BD2046BDE81040FFF7BB
:100CE00081BD2046BDE81040FFF7A8BD2046BDE805
:100CF0001040FFF731BE2046BDE81040FFF786BF29
:100D000010BD00002DE9F0474D4E00278146377099
:100D100005F0AAFA3C463D464A4806F02BF9002861
:100D200040F38A8005F0A0FA96F800A045480AF141
:100D30000103337006F0CAF8DFF8208108F80A00D2
:100D4000032006F00BFE33781022434413F8011CF5
:100D50003D4806F0E2FA3C483C4906F040FA96F974
:100D60000030002B06DA364B0021404680221970F5
:100D700008F0B6FE327808EB020313F8013CFE2BB4
:100D800003D1571EFFB264BB04E054BB0D2B01D14D
:100D900027E00124062DBFD12D492B4806F03AFA51
:100DA00029482C4906F036FA37B92B4B1B7893B1FA
:100DB0004846FFF771FF0EE031780023C91BDAB215
:100DC000F8188A42C0B203F10103EEDA18F8000005
:100DD00008F80200F3E700233370BDE8F04705F0A0
:100DE00043BA052DD5D8DFE805F003070A0D101327
:100DF0000D2B12D000248FE70A2B0BD110E00D2B06
:100E000008D110E00A2B05D110E00D2B02D110E023
:100E10000A2BC1D0002425467EE701252C467BE71E
:100E20000124022578E70124032575E70124042520
:100E300072E7012405256FE700233370BDE8F087D2
:100E40009F17002014180020FC170020CCD80008A1
:100E500073C9000897C90008080000201C1700206B
:100E600008B50120002106F0DBFC0120014606F058
:100E700049FD3220002106F0D3FC1320002106F0AA
:100E8000CFFC1420002106F0CBFC1320002106F03B
:100E900039FD1420012106F035FDBDE8084032205F
:100EA000002106F02FBD0000014806F0C1B800BFC8
:100EB0001418002008B561B10021142006F022FDAD
:100EC000962006F04BFDBDE808401420012106F0F5
:100ED00019BD08BD08B50021012006F013FD0C481E
:100EE00006F0A9F80220002106F09AFC0320002158
:100EF00006F096FC0220002106F004FD03200021EC
:100F000006F000FDBDE808401420002106F0FABC00
:100F10001418002010B50B78452B12D14B78522BAA
:100F20000FD18B78CC78303B03EB8303303C04EB60
:100F30004304E4B221460A22034806F0F7F92046AA
:100F400010BD0A2010BD00BFFC1700200B784F2BEE
:100F500007D148784B2804D113704B780120537087
:100F60007047002070470000F0B593B00F46684608
:100F7000684916461C4606F0F4FA664903A806F0CE
:100F8000F0FA06A8634906F0ECFA0025B5420DD246
:100F9000795D0A220FA806F04BFB0FA9684606F000
:100FA00081FB0FA806F09BFA0135EFE75A490CA820
:100FB00006F0D7FA0CA9684606F0C2FB00220346E9
:100FC00069460FA806F0C0FB0FA903A806F017FB9F
:100FD0000FA806F084FA0CA806F081FA4E490CA876
:100FE00006F0BFFA0CA9684606F0AAFB029B021D98
:100FF00069460FA806F0A8FB0FA906A806F0FFFA9D
:101000000FA806F06CFA0CA806F069FA059B022BF3
:1010100005D103A806F0BEFB3038C5B210E0042BA2
:1010200030D103A806F0B6FB642290FBF2F302FB7A
:101030001302303B303A03EB830302EB4305EDB27E
:10104000364909A806F08DFA09A90FA806F0CDFACD
:10105000102229460CA806F0EBFA0CA90FA806F0FE
:1010600037FB2F4906F041FB01462E4806F0C8F831
:101070000CA806F034FA0FA806F031FA09A806F019
:101080002EFA2570089B022B05D106A806F082FBDC
:101090003038C5B210E0042B30D106A806F07AFB38
:1010A000642290FBF2F302FB1302303B303A03EB75
:1010B000830302EB4305EDB21B4909A806F051FA80
:1010C00009A90FA806F091FA102229460CA806F0EB
:1010D000AFFA0CA90FA806F0FBFA114906F005FBC0
:1010E0000146104806F08CF80CA806F0F8F90FA895
:1010F00006F0F5F909A806F0F2F9657006A806F001
:10110000EEF903A806F0EBF9684606F0E8F913B02B
:10111000F0BD00BFADE10008C2C90008C7C90008A2
:10112000CEC90008FC170020D4C90008F8B54C78D7
:10113000432C08D18C78532C05D1CC78B4F15105CF
:101140006C426C4100E000240026F5B24F5D013690
:101150003A2FFAD10135EDB200279542FEB207F1E0
:10116000010706D811F805C0013501F806C0EDB237
:10117000F3E73CB92046C2B2B2420BD20A5C1A5421
:101180000130F8E7069A022412681470721ED2B277
:10119000FFF7EAFE0120F8BD37B5144809B9144934
:1011A00000E0144906F01BF8642006F0D7FB002489
:1011B0000E4805F0DFFE0028E5B208DD062C10D051
:1011C0000A4805F083FE0DF804000134F0E745B14C
:1011D0009DF802304F2B03D19DF803304B2B02D0EA
:1011E00002E0002000E0012003B030BD1418002010
:1011F000DCC90008E0C9000810B50446012001461A
:1012000006F080FB07484FF4165105F011FF204609
:101210000121FFF74FFE20460121BDE81040FFF7F6
:10122000BBBF00BF141800202DE9F0419EB005ADF2
:101230000C4607460021904628466422039308F096
:101240004FFC21462C4805F0CAFF642006F086FBBF
:101250000024294805F08EFE0028E6B207DD642C44
:1012600045D0254805F032FE28550134F1E726B96E
:101270002249234805F0CEFF39E09DF814300D2BAC
:1012800035D19DF815300A2B31D11EAB334413F8FC
:10129000653C0A2B2BD1023E1EAB334413F8643C51
:1012A0000D2B24D10021CCB2A31CDBB2B34201F13F
:1012B000010107DA1EAA134413F8643C144404F82D
:1012C000643CF0E738462946FFF724FE0A280CD193
:1012D00003AB00933846294622464346FFF726FFD4
:1012E00000280CBF0320022002E0012000E00320C0
:1012F0001EB0BDE8F08100BF14180020E6C9000848
:10130000FC1700202DE9F041B2B006460D4690468C
:101310000021642268461F4608F0E2FB19A800215C
:10132000642208F0DDFB0024E3B2E85C013420B164
:1013300032AA134403F8640CF6E70146CAB25D18FA
:1013400018F80240EDB232AA01312A4414B102F871
:10135000644CF3E70D2302F8643C6B1C32A8DBB24B
:1013600003442F480A2203F8642C036819A95B6818
:1013700098472C48AA1C036819A99B68D2B29847C1
:10138000642006F0EBFA274805F0F4FD0028E5B2EA
:1013900008DD642C3FD0234805F098FD0DF80400CB
:1013A0000134F0E7002D36D09DF800300D2B32D1FE
:1013B0009DF801300A2B2ED132AB2B4413F8C93CD7
:1013C0000A2B28D1023D32AB2B4413F8C83C0D2B1D
:1013D00021D100218B1CDBB2AB4201F1010209DA01
:1013E00032A8034413F8C83CC9B2014401F8C83C10
:1013F0001146EFE730466946FFF78CFD0A2808D111
:10140000304669463A46FFF7A1FD80F00100C0B2C0
:1014100002E0012000E0032032B0BDE8F08100BF0F
:10142000FC17002014180020F7B51E460446174686
:101430000D4600218DF80710FFF7AEFE04F014FFF3
:10144000204631462FB12A460DF10703FFF7ECFE87
:1014500003E0089A2B46FFF755FF03282AD8DFE858
:1014600000F011040207002311E01648164901E0BC
:101470001448164905F0CEFE20460121FFF78CFEE8
:1014800000201CE012490F4805F0C4FE12E09DF850
:1014900007205E1CDBB29A420A4809D9E95C102297
:1014A00005F03BFF07480B4905F099FE3346EEE790
:1014B00005F09AFE20460121FFF76EFE012003B0E1
:1014C000F0BD00BFFC170020FAC900080BCA0008D5
:1014D00014CA0008CCD800082DE9F0438BB004AF43
:1014E000804600210922384602AE002408F0F8FAAE
:1014F00000944046314601222C4BFFF795FF0546EC
:1015000010B92B482B494BE02346F25C07AC092A63
:1015100001D8303204E0A2F10A01052998BF373220
:10152000E2540133082BF0D14FF0000922488DF826
:10153000249000F07DFF0246C0B120491C4805F010
:1015400069FE1D48394600F0E1FE50B14B46E15CB2
:10155000FA5C914217D10133082BF8D1144818498D
:101560001EE01849124805F055FE07E00094404679
:101570003146154BFFF758FF054698B121460E48F6
:1015800000F014FF0AE01149094805F043FE0097F6
:101590004046314600220C4BFFF746FF054601E06E
:1015A00005F038FE28460BB0BDE8F08320CA0008DD
:1015B000FC1700202BCA0008AA1700204BCA0008FD
:1015C000D3CA000869CA00088DCA000896CA000874
:1015D0002DE9F04F89B002AF07F10C06834689462A
:1015E00090461C46304600210A2208F079FA002C69
:1015F00048D1C7F804D05846CDF8008031460122C2
:101600004B46FFF711FF824608B1214602E03C48F5
:101610003C496BE0CCB218F804300131002BF9D111
:10162000E11D01F4FC71ADEB010D02A9D8B2A0429D
:1016300003D2F05CC8540133F8E70B46581AC0B225
:10164000A0420DD213F8010B092801D8303004E074
:10165000A0F10A05052DF1D8373003F8010CEDE7AC
:101660000025EBB2A3423FD24B5D013508EB0500EC
:1016700010F8010C9842F4D02148234905F0CAFD26
:101680007B689D466C460023DAB219F802100133DC
:101690000A29F9D1931D03F4FC73ADEB030DA2F1FC
:1016A000020E02AB0020C1B2551EA94200F101009A
:1016B00003DA19F801505D54F5E700223D215A552F
:1016C000584603F80E10CDF800803146FFF7ACFE07
:1016D000054628B90A480D4905F09CFDAA4601E0D7
:1016E0004FF0010AA54605E00548094905F092FDBD
:1016F0007B689D4650461C37BD46BDE8F08F00BF55
:10170000FC170020FDCA000823CB00087ACB000894
:101710009CCB00087FB50F2204460D466846002189
:1017200008F0DEF96348644905F074FD0A2604F008
:101730009BFD002D6CD12046FFF7CEFE5F498DF852
:1017400000005F4A2B462046FFF742FF5D498DF8B7
:1017500001005D4A2B462046FFF73AFF5B498DF8B2
:1017600002005B4A2B462046FFF732FF59498DF8AD
:101770000300594A2B462046FFF72AFF574A58498B
:101780002B468DF804002046FFF722FF8DF8050058
:10179000544800F09DFDF1280CBF534A4A4A534972
:1017A0002B462046FFF714FF51498DF80600514A99
:1017B00000232046FFF70CFF4F498DF807004D4AE4
:1017C00000232046FFF704FF4C498DF80800464AE5
:1017D00000232046FFF7FCFE49498DF80900494ADD
:1017E00000232046FFF7F4FE47498DF80A00474AD8
:1017F00000232046FFF7ECFE334A8DF80B004449E6
:1018000020460023FFF7E4FE0D228DF80C000EE0C9
:10181000344800F05DFDF1280CBF334A2A4A2046C7
:1018200032490123FFF7D4FE01228DF80000002386
:101830001DF80310A9B937491E4805F0EBFC2046F6
:10184000FFF7DAFC2046FFF745FB04F00DFD2046CC
:10185000FFF7D2FC4FF4FA6006F080F804F004FDC4
:1018600005E00133D9B29142E2D304B070BD2A48F9
:1018700005F080FB002803DD274805F027FBF6E78D
:10188000013E16F0FF067FF452AF142223480121D7
:1018900003F0E0FB2249074805F0BCFC40F6B830F5
:1018A00006F05CF804F0E0FC04B0BDE8704004F021
:1018B0000FBD00BFFC170020B2CB0008D1CB000841
:1018C000DDCB0008E6CB0008E3CB0008E0C400084D
:1018D000ECC400082DC50008F0CB000804CC0008BB
:1018E000F9CB0008AA17002011CC000807CC00088B
:1018F00014CC00081ECC000821CC00082BCC00081A
:1019000035CC00083ECC000841CC00084BCC000888
:101910004ECC000858CC000814180020F017002006
:1019200075CC000807B5384800F00EFC002839D106
:10193000364B37491870344800F097FA28B13248CE
:10194000334900F0D2FA002853D1324801F085F82B
:1019500020B1304801F006F800284FD101238DF85E
:1019600000302C48002369468DF801308DF8023094
:101970008DF803308DF8043000F063FF18B126486D
:10198000264905F047FC26480021052203F062FBAA
:1019900008E004F069FC282005F09EFF40B12148D2
:1019A000FFF7B0F9184800F0CFFB0028F1D01AE09B
:1019B00041F2883003F0B0FC04F056FC282005F01A
:1019C0008BFF0028EBD116484FF4167103F080FB13
:1019D000154803F0EFFC282005F07EFF0028DED13B
:1019E00004F042FCF7E7094B01221A7003B05DF8DE
:1019F00004FB0E49084805F00DFCA6E70C49064813
:101A000005F008FCAAE700BFAE170020090000207F
:101A1000A1170020AB170020FC170020A1CC000864
:101A2000F01700209E170020F4170020BECC0008FD
:101A3000D2CC000838B5282005F04EFF002860D130
:101A4000642003F069FC282005F046FF04460028C6
:101A500050D12C484FF4167103F03AFB2A482B4919
:101A600005F0D8FB022C02D80134E4B204E0264889
:101A7000264905F0CFFB002404F0F6FB40F6B83011
:101A800003F04AFC04F0F0FB272005F025FF0028B6
:101A9000E8D1642003F040FC272005F01DFF054637
:101AA0000028DFD117484FF4167103F011FB2946C7
:101AB000102005F027FF262005F09EFE1F2005F0D0
:101AC0009BFE134802F0FAFE1F201249022205F085
:101AD00079FE26201049022205F074FE1020012113
:101AE00005F010FF272005F0F7FE0028BAD104F01A
:101AF000BBFBF7E7282005F0EFFE10B904F0B4FBBC
:101B0000F8E738BDF0170020FC17002001CD0008D1
:101B1000B9170020452F0008F12F00088D4B30B574
:101B20001A688DB022F0E06242F000721A6006205E
:101B30004FF47A7104F088FB87484FF4E13105F0E7
:101B400077FA4FF416518548FFF7AEF904F0DCFA46
:101B5000834801F0A3FA0221814801F0EBFA8148A1
:101B600000F074F9804803F041FA04F07DFB7B48F3
:101B7000FFF776F901217948FFF70EFB7B4D4FF413
:101B8000FA6005F0EBFE002479482C70FFF7BAF8F4
:101B900001232B7004F068FB21467048FFF7BAFD63
:101BA000744800F01FFB74496B4805F033FB734821
:101BB000222100F05BFC0128044606D16F48232156
:101BC00000F054FC022805461CD002226B4801217B
:101BD00000F037FC6A49684605F0C3FC694606A870
:101BE00005F003FD1022012103A805F032FD03A931
:101BF00006A805F06DFD634905F077FD0221044656
:101C000009A816E06049684605F0ABFC694606A8DD
:101C100005F0EBFC2146102203A805F01AFD03A9EC
:101C200006A805F055FD574905F05FFD2946044615
:101C300009A8102205F00DFD204609A905F048FD70
:101C40000146454805F0DCFA09A805F048FC03A860
:101C500005F045FC06A805F042FC684605F03FFC8F
:101C60004648242100F000FC0128044616D14348D0
:101C7000252100F0F9FB054680B9444906A805F086
:101C800070FC06A909A805F0B0FC214609A805F0DA
:101C90003EFD3C4905F029FD294614E00022374865
:101CA000012100F0E5FB3A4906A805F05AFC06A917
:101CB00009A805F09AFC012109A805F028FD314981
:101CC00005F013FD002105F022FD0146224805F034
:101CD00097FA09A805F003FC06A805F000FC03F03C
:101CE0000BF8FFF7A7FE2B4800F0FCF9FFF71AFEF0
:101CF0002848294900F032FAA8B905221A480121DA
:101D000003F0A8F92549144805F084FA244803F0A3
:101D10006BFC1748FEF7F6FF40F6B83003F0FCFA0C
:101D200004F0A2FAE4E71F490B4805F073FA022118
:101D30000D480A2203F08EF904F096FA1A4B092294
:101D400007481A7002F0E0FB04F08EFA02F0EEFF92
:101D50000DB030BD04000140FC170020A01700208A
:101D6000B9170020AD170020F01700200800002050
:101D70009E170020AA170020ADE10008AC17002034
:101D80007ACD0008E1D30008C5CD0008DBCD0008FE
:101D9000F1CD0008AE170020A11700202DCD0008BE
:101DA000F417002061CD0008F517002008B52720A2
:101DB00005F092FDF0B904F057FA41F2883003F0D3
:101DC000ABFA04F051FA272005F086FD58B90A480D
:101DD0004FF4167103F07CF90848094905F01AFA26
:101DE000084801F051F8272005F076FD10B904F0FD
:101DF0003BFAF8E708BD00BFF0170020FC170020F1
:101E00003CCE0008AB17002010B50A4C04F02CFAA9
:101E10000948FEF777FF204601F04CFC204601F010
:101E200063FE204602F0DCFB03F042F8BDE8104000
:101E3000FFF7BCBFB91700209E1700201520012115
:101E400005F060BD1520002105F05CBD10B5002136
:101E50000446152005F0E4FC1520012105F052FD93
:101E60002046BDE81040FEF78DB97FB505460E4609
:101E7000FFF7E8FF0D2433192146284613F80D2CEF
:101E80000134FEF7AFF9162CF5D13046092103F0E5
:101E900037F80646214628463246FEF7A3F90D24B8
:101EA00021462846FEF770F901AB23440134162C75
:101EB00003F80D0CF4D101A8092103F021F8B04278
:101EC00003D0FFF7BBFF00200DE028460B21FEF7F3
:101ED0005BF9552804D028460B215522FEF782F9DC
:101EE000FFF7ACFF012004B070BD7FB505460E467C
:101EF000FFF7A8FF172433192146284613F8172C9B
:101F00000134FEF76FF9202CF5D13046092102F09B
:101F1000F7FF0646214628463246FEF763F91724A6
:101F200021462846FEF730F901AB23440134202C2A
:101F300003F8170CF4D101A8092102F0E1FFB04227
:101F400003D0FFF77BFF00200DE028460C21FEF7B1
:101F50001BF9552804D028460C215522FEF742F9DA
:101F6000FFF76CFF012004B070BDF0B585B001AD86
:101F700006460F4628460021092207F0B1FD0D2430
:101F800021463046FEF700F92B190134162C03F8D0
:101F90000D0CF5D121463046FEF7F6F8092104462E
:101FA000284602F0ADFF844206D10023EA5CFA54D1
:101FB0000133092BFAD101E0002000E0012005B037
:101FC000F0BDF0B585B001AD06460F4628460021AC
:101FD000092207F085FD172421463046FEF7D4F884
:101FE0002B190134202C03F8170CF5D1214630466B
:101FF000FEF7CAF809210446284602F081FF844210
:1020000006D10023EA5CFA540133092BFAD101E02E
:10201000002000E0012005B0F0BD37B50C461E21C0
:102020000546FEF7B1F81F218DF804002846FEF79B
:10203000ABF802218DF8050001A802F061FF2070C5
:1020400003B030BD10B50B210446FEF79DF888B1F2
:10205000FFF7F8FE204600220B21FEF7C3F8FFF73A
:10206000EDFE20460B21FEF78FF8D0F1010038BFBE
:10207000002010BD012010BD10B50C210446FEF754
:1020800083F888B1FFF7DEFE204600220C21FEF720
:10209000A9F8FFF7D3FE20460C21FEF775F8D0F122
:1020A000010038BF002010BD012010BD10B5212156
:1020B0000446FEF769F8552811D0FFF7C3FE204605
:1020C00055222121FEF78EF8FFF7B8FE2046212188
:1020D000FEF75AF8B0F155035842584110BD01209F
:1020E00010BD000038B50446272005F0F5FB40BBC5
:1020F00004F0BAF841F2883005F030FC04F0B4F88E
:10210000272005F0E9FB0546D8B90E484FF47A714F
:1021100002F0DEFF20462121FEF736F840B1FFF73E
:1021200091FE204621212A46FEF75CF8FFF786FE45
:1021300020462121FEF728F8D0F1010038BF002009
:1021400038BD38BDF017002008B52121FEF71CF876
:10215000B0F155035842584108BD000038B5044657
:102160000D46FFF702FF20B120462946FFF729FF61
:1021700040BB20462946FFF7F8FE48B114491548F0
:1021800005F048F820462946BDE83840FFF7ADBEC7
:1021900020462946FFF715FF48B10F490D4805F0C5
:1021A00039F820462946BDE83840FFF75EBE0B49A6
:1021B000084805F02FF82046FFF744FF2046FFF7B8
:1021C0005BFF03E00348064905F024F8012038BD11
:1021D000A3CE0008FC170020DACE000811CF0008BB
:1021E00025CF000810B548210446FDF7CDFF55283E
:1021F00011D0FFF727FE204655224821FDF7F2FFB8
:10220000FFF71CFE20464821FDF7BEFFB0F1550345
:102210005842584110BD012010BD10B54D21044653
:10222000FDF7B2FF552810D0FFF70CFE20465522CF
:102230004D21FDF7D7FFFFF701FE20460021FDF7F6
:10224000A3FF003018BF012010BD012010BD000009
:1022500037B58DF807101031C9B20129044629D8C5
:102260004C21FDF791FF9DF80730834228D002AD45
:10227000FFF7E8FD15F8012D20464C21FDF7B2FFD0
:102280000121284602F03CFE4E2102462046FDF781
:10229000A9FF20464C21FDF777FF9DF807308342C8
:1022A00005D12046FFF7B9FFFFF7C8FD08E0FFF7AB
:1022B000C5FD03E00448054904F0ACFF002000E040
:1022C000012003B030BD00BFFC17002055CF00082F
:1022D00037B54C210446FDF757FF02AB03F8010D5B
:1022E0001846012102F00CFE4E2105462046FDF75E
:1022F0004BFF854202D19DF8070004E02046F02103
:10230000FFF7A6FFF02003B030BD0000F7B505468B
:102310000E464F2421462846FDF736FF00AB2344E6
:102320000134572C03F84F0CF4D10821684602F011
:10233000E7FD214607462846FDF726FF87420CD1D8
:1023400000231DF80320F2540133082BF9D104486F
:10235000044904F05FFF012000E0002003B0F0BD5D
:10236000FC1700208BCF000810B558210446FDF75C
:102370000BFF552808D0FFF765FD20465821552250
:10238000FDF730FFFFF75AFD10BD10B55821044688
:10239000FDF7FAFE40B1FFF755FD20465821002217
:1023A000FDF720FFFFF74AFD10BD0000F7B50F460F
:1023B0000546FFF747FD3846082102F0A1FD4F24EE
:1023C00006463B192146284613F84F2C0134FDF7E9
:1023D00009FF572CF5D1214628463246FDF702FF6A
:1023E0004F2421462846FDF7CFFE00AB234401349D
:1023F000572C03F84F0CF4D16846082102F080FDF9
:10240000864206D02846FFF7C0FFFFF717FD0020E1
:1024100007E00549054804F0FDFE2846FFF7A4FF44
:10242000012003B0F0BD00BFA0CF0008FC170020C2
:1024300008B55821FDF7A8FEB0F1550358425841A0
:1024400008BD70B504460E461546FFF7FBFC204656
:1024500032462221FDF7C6FE204623212A46FDF7FB
:10246000C1FEFFF7EBFC70BDFDF78EBEFDF78CBE25
:1024700070B504460E461546FFF7E4FC204632468A
:102480002421FDF7AFFE204625212A46FDF7AAFEAE
:10249000FFF7D4FC70BD10B526210446FDF774FE8D
:1024A000552811D0FFF7CEFC204655222621FDF7F6
:1024B00099FEFFF7C3FC20462621FDF765FEB0F12B
:1024C00055035842584110BD012010BD08B52621C2
:1024D000FDF75AFEB0F155035842584108BD10B5FA
:1024E00026210446FDF750FE88B1FFF7ABFC2046DD
:1024F00000222621FDF776FEFFF7A0FC20462621CC
:10250000FDF742FED0F1010038BF002010BD0120D0
:1025100010BD37B5C1F307258DF805100F39B1F59A
:10252000E97F04468DF804500ED22721FDF72CFEDA
:1025300085420BD1204628219DF80550FDF724FE49
:10254000854203D101202EE000202CE0FFF77AFC29
:10255000204627219DF80420FDF744FE9DF8052024
:1025600020462821FDF73EFE022101A802F0C8FC0A
:1025700005462A4620462921FDF734FEFFF75EFC7A
:1025800027212046FDF700FE28218DF80400204673
:10259000FDF7FAFD02218DF8050001A802F0B0FC5C
:1025A000431B5842584103B030BD13B527210446A0
:1025B000FDF7EAFD28218DF804002046FDF7E4FD33
:1025C00029218DF805002046FDF7DEFD0221044695
:1025D00001A802F095FC844205BF9DF804009DF817
:1025E00005304FF6FF7043EA002002B010BD13B56E
:1025F00064298DF8071028D8012003F09DFD9DF86F
:102600000730C0B2984222D0013898421FD013B987
:1026100001238DF8073001210DF1070002F070FC55
:10262000044603F07DFD01209DF8071003F098FD9E
:102630000220214603F094FD03F078FD022003F010
:102640007BFD031B5842584102E0002000E00120BE
:1026500002B010BD13B5012003F06EFD02AB03F80C
:10266000010D1846012102F04BFC0446022003F044
:1026700063FD844209D19DF80730012B04BF00237C
:102680008DF807309DF8070000E0FF2002B010BD74
:1026900013B564298DF8071028D8032003F04CFDEA
:1026A0009DF80730C0B2984222D0013898421FD01E
:1026B00013B901238DF8073001210DF1070002F055
:1026C0001FFC044603F02CFD03209DF8071003F0C7
:1026D00047FD0420214603F043FD03F027FD0420BD
:1026E00003F02AFD031B5842584102E0002000E09D
:1026F000012002B010BD13B5032003F01DFD02AB95
:1027000003F8010D1846012102F0FAFB04460420EB
:1027100003F012FD844209D19DF80730012B04BF5C
:1027200000238DF807309DF8070000E0FF2002B07D
:1027300010BD13B564298DF8071028D8052003F0C3
:10274000FBFC9DF80730C0B2984222D00138984275
:102750001FD013B901238DF8073001210DF10700B7
:1027600002F0CEFB044603F0DBFC05209DF80710C9
:1027700003F0F6FC0620214603F0F2FC03F0D6FC41
:10278000062003F0D9FC031B5842584102E0002008
:1027900000E0012002B010BD13B5052003F0CCFC11
:1027A00002AB03F8010D1846012102F0A9FB044613
:1027B000062003F0C1FC844209D19DF80730012BAB
:1027C00004BF00238DF807309DF8070000E0FF20CC
:1027D00002B010BD38B5054603F0A2FC0124204626
:1027E00003F0AAFC50B12046002103F0B9FC2046BA
:1027F00003F0A2FC10B103F099FC19E00134E4B23B
:10280000072CECD103F092FCFFF71CFB4124284677
:102810002146FDF7B9FC68B1284621460022FDF7A4
:10282000E1FC28462146FDF7AFFC18B1FFF706FB97
:10283000002038BD0134472CE9D1FFF7FFFA012011
:1028400038BDF8B504460E462F2573192046294693
:1028500013F82F7CFDF798FC874203D10135342D06
:10286000F3D136E0FFF7EEFA2F25731929462046FB
:1028700013F82F2C0135FDF7B5FC342DF5D10521CA
:10288000304602F03DFB0746294620463A46FDF712
:10289000A9FC2F2520462946FDF776FC731913F86D
:1028A0002F3C834217D10135342DF3D120462946E0
:1028B000FDF76AFCB8420ED120463521FDF764FCD5
:1028C000552804D0204635215522FDF78BFCFFF713
:1028D000B5FA0120F8BDFFF7B1FA0020F8BDF7B551
:1028E00005460E462F2421462846FDF74DFC00AB39
:1028F00023440134342C03F82F0CF4D1052168460D
:1029000002F0FEFA214607462846FDF73DFC8742C5
:1029100007D100231DF80320F2540133052BF9D110
:1029200001E0002000E0012003B0F0BD73B50546D2
:102930002F2421462846FDF727FC00AB2344013411
:10294000342C03F82F0CF4D16846052102F0D8FA94
:10295000214606462846FDF717FC331A58425841CF
:1029600002B070BD38B50546FFF76CFA2F24284633
:102970002146FDF709FC68B1284621460022FDF7F3
:1029800031FC28462146FDF7FFFB18B1FFF756FA48
:10299000002038BD0134342CE9D128463521FDF71B
:1029A000F3FB20B1284635210022FDF71BFCFFF781
:1029B00045FA012038BD37B50D468DF80710362190
:1029C0000446FDF7E1FB85422BD002ADFFF73AFA52
:1029D00015F8012D20463621FDF704FC012128467B
:1029E00002F08EFA372102462046FDF7FBFB204617
:1029F0003621FDF7C9FB9DF8073083420DD12046F3
:102A00003821FDF7C1FB552804D020463821552236
:102A1000FDF7E8FBFFF712FA03E0FFF70FFA0020DB
:102A200000E0012003B030BD3621FDF7ADBB37B566
:102A300036210546FDF7A8FB02AB03F8010D184649
:102A4000012102F05DFA372104462846FDF79CFB80
:102A5000231A5842584103B030BD10B53621044600
:102A6000FDF792FB88B1FFF7EDF9204636210022F1
:102A7000FDF7B8FB20463621FDF786FB18B1FFF7BE
:102A8000DDF9002010BDFFF7D9F9012010BDF8B520
:102A900005460E462A2433192846214613F82A7C77
:102AA000FDF772FB874215D101342F2CF3D10FE0D3
:102AB0000134052C11D128464721FDF765FB552827
:102AC00004D0284647215522FDF78CFBFFF7B6F9C5
:102AD0000120F8BDFFF7B6F9002404F12A072846C3
:102AE0003946325DFDF77EFB28463946FDF74CFB43
:102AF000335D8342DCD0FFF7A1F90020F8BD10B5AB
:102B000047210446FDF740FB552801D0142010BD95
:102B100020462B21FDF738FB431EDBB2632BF5D893
:102B200010BD10B547210446FDF72EFB552801D0F6
:102B3000142010BD20462D21FDF726FB431EDBB2DD
:102B4000632BF5D810BD08B52E21FDF71DFB431EE4
:102B5000DBB20A2B28BF032008BD73B50D464921FF
:102B60000446FDF711FB4A2106462046FDF70CFB03
:102B700040EA06202B1A642B3AD9401B642837D927
:102B80002B0A022101A88DF804308DF8055002F0BF
:102B9000B7F90546FFF756F9204649219DF804206C
:102BA000FDF720FB20464A219DF80520FDF71AFB82
:102BB0002A4620464B21FDF715FBFFF73FF9492137
:102BC0002046FDF7E1FA4A218DF804002046FDF782
:102BD000DBFA02218DF8050001A802F091F94B21E2
:102BE00005462046FDF7D0FA431B5842584100E005
:102BF000012002B070BD73B50D4649210446FDF7B2
:102C0000C3FA4A218DF804002046FDF7BDFA0221DF
:102C10008DF8050001A802F073F94B210646204605
:102C2000FDF7B2FA86420DD19DF805309DF80400FB
:102C300043EA002043F2AF639842286094BF00202B
:102C4000012000E0002002B070BD73B50D463921AF
:102C50000446FDF799FA3A2106462046FDF794FA14
:102C600040EA0620401B642848D96430642845D9CE
:102C70002B0A022101A88DF804308DF8055002F0CE
:102C80003FF90546FFF7DEF8204639219DF804207C
:102C9000FDF7A8FA20463A219DF80520FDF7A2FA93
:102CA0002A4620463B21FDF79DFA39212046FDF7B3
:102CB0006BFA3A218DF804002046FDF765FA0221EF
:102CC0008DF8050001A802F01BF93B2105462046BE
:102CD000FDF75AFAA8420DD120463C21FDF754FADF
:102CE000552804D020463C215522FDF77BFAFFF7FA
:102CF000A5F803E0FFF7A2F8002000E0012002B0F1
:102D000070BD73B50D4639210446FDF73DFA3A21F1
:102D10008DF804002046FDF737FA02218DF80500F2
:102D200001A802F0EDF83B2106462046FDF72CFAFB
:102D300086420DD19DF804209DF80530012043EA1C
:102D40000223B3F5967F38BF4FF448732B6000E041
:102D5000002002B070BD73B50D463D210446FDF75D
:102D600013FA3E2106462046FDF70EFA40EA0620F9
:102D7000401B642848D96430642845D92B0A0221B5
:102D800001A88DF804308DF8055002F0B9F8054619
:102D9000FFF758F820463D219DF80420FDF722FA60
:102DA00020463E219DF80520FDF71CFA2A462046C4
:102DB0003F21FDF717FA3D212046FDF7E5F93E21B9
:102DC0008DF804002046FDF7DFF902218DF805009B
:102DD00001A802F095F83F2105462046FDF7D4F9F9
:102DE000A8420DD120464021FDF7CEF9552804D048
:102DF000204640215522FDF7F5F9FFF71FF803E0C3
:102E0000FFF71CF8002000E0012002B070BD73B590
:102E10000D463D210446FDF7B7F93E218DF804002B
:102E20002046FDF7B1F902218DF8050001A802F056
:102E300067F83F2106462046FDF7A6F986420DD1E8
:102E40009DF804209DF80530012043EA0223B3F5E4
:102E5000967F38BF4FF448732B6000E0002002B02B
:102E600070BD38B53C210546FDF78EF9402104467A
:102E70002846FDF789F9552C04D1B0F15503584285
:102E8000584138BD002038BD10B53C210446FDF73F
:102E90007BF920B920464021FDF776F968B1FEF7AD
:102EA000D1FF20463C210022FDF79CF9204640211D
:102EB0000022FDF797F9FEF7C1FF012010BD37B5DD
:102EC0003C210446FDF760F9552807D020464021F3
:102ED000FDF75AF955281AD0012030E03921204653
:102EE000FDF752F93A218DF804002046FDF74CF920
:102EF00002218DF8050001A802F002F83B210546E9
:102F00002046FDF741F98542E0D0002017E03D2141
:102F10002046FDF739F93E218DF804002046FDF7E3
:102F200033F902218DF8050001A801F0E9FF3F21E6
:102F300005462046FDF728F92B1A5842584103B0A0
:102F400030BD000010B51F2004F056FC1F2004F017
:102F5000C3FC012820D142F2107004F00DFD1F20A7
:102F600004F0BAFC012804462ED12146252004F0A5
:102F7000C9FC194B00221C70184B64241A7042F2D1
:102F8000107004F0F9FC013CF9D12520214604F031
:102F9000B9FC1348134915E01F2004F09DFC98B9B3
:102FA00042F2107004F0E8FC1F2004F095FC58B9C0
:102FB000094B187001F0F6FE2520012104F0A2FC57
:102FC0000748094904F026F9BDE810401F200749C9
:102FD000022204F0F7BB00BFB8170020C81700207A
:102FE000FC170020B5CF0008DACF0008452F0008F5
:102FF00010B5262004F000FC262004F06DFC01280A
:1030000020D142F2107004F0B7FC262004F064FCDA
:10301000012804462ED12146252004F073FC194BCB
:1030200000221C70184B64241A7042F2107004F0D5
:10303000A3FC013CF9D12520214604F063FC134890
:10304000134915E0262004F047FC98B942F21070AD
:1030500004F092FC262004F03FFC58B9094B18708C
:1030600001F0A0FE2520012104F04CFC074809498D
:1030700004F0D0F8BDE8104026200749022204F0F1
:10308000A1BB00BFC1170020C8170020FC170020FB
:1030900000D0000827D00008F12F000808B507204D
:1030A000002104F0BDFB2420002104F0B9FB102016
:1030B000002104F0B5FB0620032104F0B1FB04203D
:1030C000032104F0ADFB0520032104F0A9FB1F2020
:1030D000022104F0A5FB2620022104F0A1FB102010
:1030E000012104F00FFC1F200E49022204F06AFBAC
:1030F00002220D49262004F065FB1F2004F0ECFBA2
:103100000A4B012814BF002218704FF0260018BF88
:103110001A7004F0E1FB064B012816BF002218705C
:103120001A7008BD452F0008F12F0008B8170020BD
:10313000C1170020012910B50C460BD01CD2252048
:10314000012104F0DFFB0720002104F0DBFB242039
:10315000012108E0252004F0D5FB0720214604F0DA
:10316000D1FB2420002104F0CDFB4FF47A7004F051
:10317000F5FB2520002109E00720012104F0C2FB16
:103180002420012104F0BEFB25200121BDE81040D0
:1031900004F0B8BB73B51B480C4616461D46FFF736
:1031A00060FE60B31748FFF78AFE20B91548FFF7A5
:1031B0006BFE022024E01348FFF7B3FC04F096FFF7
:1031C0000022114B05F022F905F0D8FA206025B94C
:1031D00001A90C48FFF795FD05E0012D0BD1094829
:1031E00001A9FFF714FE019805F0CEFB0146206807
:1031F00005F022FC2060019B0020336000E00320EA
:1032000002B070BDAB1700200000244008B501F0EB
:10321000C9FD07480221FFF78DFF064A00231370FE
:10322000054A1370054A1370BDE8084001F0ACBDB3
:10323000B9170020D6170020D4170020D51700207A
:103240003F4B2DE9F0411A78884602F0FF04002A2E
:1032500072D000221A703B4B1B783BB93A4B1B785B
:1032600023B93A4B1B7803F0FF053BB1384A13787A
:1032700003F0FF0513B1002313700125354B1C68C3
:10328000B4F5167F34BF002401240DB9002C53D0AF
:10329000FFF7BCFF304802210A2201F0DBFE2F4875
:1032A000FFF798FA07462E4867B92E4903F0B2FF98
:1032B0002D4B0A221A702D483946022202F002FADA
:1032C000012439E02A4903F0A5FF2448FFF707F954
:1032D0000646234866B9274903F09CFF224B0A2281
:1032E0001A7022483146022202F0ECF93C4623E0F3
:1032F000214903F08FFF2DB11948204903F08AFFBF
:10330000052211E094B1B8F1000F05D114481C4911
:1033100003F080FF022207E0B8F1010F06D1104848
:10332000184903F077FF03220F4B1A700F48002152
:10333000022202F0C7F934462046BDE8F08100BF02
:10334000C2170020D6170020D4170020D517002060
:10335000B1170020C4170020F0170020AB17002081
:10336000FC1700204FD00008F5170020F4170020AC
:1033700088D00008C2D00008F5D0000828D1000885
:1033800053D1000889D1000870B51F4D0C462B7829
:103390001646002B35D000232B701C4DFFF736FF4F
:1033A0000E231B4802210A222B7001F053FE24B980
:1033B0001849194803F02EFF21E0012C08D11749C4
:1033C000154803F027FF31461548FFF710F916E0BE
:1033D000023C012C13D813490F4803F01BFF10487F
:1033E000FFF77DF8044650B90F490B4803F012FF70
:1033F0000A230E48214602222B7002F063F90120B5
:1034000070BD184670BD00BF9D170020F517002045
:10341000F0170020BED10008FC170020E8D10008FA
:10342000AB17002014D200083FD20008F417002088
:1034300030B58DB001AD00212C22284606F050FB9E
:1034400002F012FF0024062004F038FA2851043458
:103450002C2CF8D10B226B460AACA34207D053F8B0
:10346000040F5968884284BF58601960F5E7013A33
:1034700012F0FF02EFD1079804F028FE08A3D3E969
:10348000002304F099FE0022074B04F095FE002271
:10349000064B04F0DFFC05F051F90DB030BD00BF64
:1034A0000000000000C8E93F000034400000E03F99
:1034B0002DE9F8439846244B0E461B78144613B169
:1034C0000020BDE8F883214B1A78002AF8D1204D5E
:1034D0002B682F46022BF3D91E4B01221A70FFF7DF
:1034E000A7FF64281C4A2BD813680BB93B681360EC
:1034F0003968136803339942E2D3174B00251D60E6
:103500005CB1012C17D11549154803F083FE154B0A
:10351000357020461C70BDE8F8831148124903F04D
:1035200079FEB8F1000F01D1642333700D4B0120F7
:103530001870BDE8F8830D49094803F06BFEBFE73A
:103540002B681360BCE700BFB8170020C11700202C
:10355000C4170020C2170020BC17002098D2000812
:10356000FC170020CA17002071D20008C1D2000841
:10357000032BF8B505460C4617462FD0022B2DD04D
:10358000FFF756FF0646384605F0FEF9214605F0DE
:103590004BF90446304605F0F7F9214605F008FCE2
:1035A00008B90020F8BD2846FFF742FF05F0ECF906
:1035B000214605F0FDFB0A4C70B123780133DBB2E4
:1035C00023702378632BECD90649074803F022FEC9
:1035D000002323700120F8BD2070F8BD1846F8BD07
:1035E000D7170020D4D20008FC17002038B50446B5
:1035F0002548007880B92548007868B924480568CE
:10360000032D054608D92348007838B922480078A8
:1036100020B92248007808B9002038BD2046FFF7BD
:10362000A7FF03282ED801A353F820F0193600086D
:103630003D36000865360008193600082046FFF7B9
:10364000E5FD174B06221A7016480021022202F0EF
:1036500039F8154802210A2201F0FCFC00232B60F6
:10366000012038BD0E4C23780A2BD5D00F491048C5
:1036700003F0D0FD0A230B4800210222237002F040
:1036800021F8C9E738BD00BFB8170020C1170020D6
:10369000C4170020D6170020D4170020D51700200B
:1036A000F5170020F4170020F0170020F6D20008CC
:1036B000FC170020F8B5054602F0D6FD2A4B1A7813
:1036C0001E46002A4FD1294B294C1A781F462AB989
:1036D000284B1B7803F0FF02002B43D01F2004F07F
:1036E000FBF800B93870262004F0F6F808B9214B31
:1036F00018702846FFF79CFE632805D823686420CD
:103700000133236001F008FE226844F24F639A42BD
:1037100029D91F2004F070F8262004F06DF8144B0E
:1037200000221A60144901231448337003F072FD1B
:103730001348FFF74FF8134C054650B912490F488C
:1037400003F068FD0A23114829460222237001F084
:10375000B9FF102323700D4800210222BDE8F84074
:1037600001F0B0BF2260F8BDC0170020B8170020DC
:10377000B4170020C11700202AD30008FC1700202E
:10378000AB170020F517002040D30008F4170020E5
:103790002DE9F7438846054614461E46FFF736FDD9
:1037A00002F062FD01F0FEFA544B01221A70544FF0
:1037B000544A00233B60136002F056FD40F6B830D7
:1037C00001F0AAFDB94602F04FFD1EB124B14E48EA
:1037D000012103E0002CFAD04B480021FFF7AAFC9E
:1037E0004FF47A7001F098FD02F03EFD01F0E0FA2E
:1037F00001F0B4FA05E03B68C9F800303B68072BDC
:103800001BD802F031FD2846FFF712FE63283F4F18
:10381000F1D8D9F8003013B93A68394B1A603A68D0
:10382000D9F8003003339A42EBD3354B00243849A2
:1038300038481C6003F0EEFC38E02846FFF7E6FC51
:1038400002F012FD4FF47A6001F066FD02F00CFD0B
:103850001EB124B12C48002103E0002CFAD02A48E4
:103860000121FFF767FC02F0FFFC01F0A1FA01F073
:1038700075FA4FF47A7001F04FFD11E0C4B10022E7
:1038800041460092019228461346FFF711FE014679
:1038900050B92846FFF7D4FC40B93B68092B03D840
:1038A00002F0E2FC5EB1E9E7012023E0002021E024
:1038B00000940194284641460122234606E064B163
:1038C000009601962846414601223346FFF7F0FD57
:1038D0000028E9D128460121DCE70094019428461C
:1038E000414622462346FFF7E3FD0028DCD1284667
:1038F0002146CFE703B0BDE8F08300BFD617002014
:10390000D0170020BC170020B9170020C4170020D2
:1039100074D30008FC1700202DE9F04F634B0025FD
:103920000126DFF8BC91DFF8BCA187B08B461D7083
:1039300031460723022204465D488AF800308DF89C
:103940000F5089F8006001F0BDFE5A48032105229E
:1039500001F080FBBBF1F00F10D15749574803F03D
:1039600059FC04A905AA33462046FFF713FC31464B
:1039700080465348FFF7DEFB2F4616E0BBF1F10F00
:1039800012D150494D4803F045FC2B4604A905AA25
:103990002046FFF7FFFB37462946804648482E461B
:1039A000FFF7C8FB3D4600E02E4601F001FA01F0AA
:1039B000D5F902F059FCD5B10022009201921346CC
:1039C00020460DF10F01FFF773FD024610BB2046A4
:1039D0000221FFF7D9FC08B1012064E020460499D8
:1039E000059A4346FFF702FE80B100205BE06EB10E
:1039F0000095019520460DF10F0101222B46FFF79E
:103A000057FD38B9204603212A46E2E72E48FDF744
:103A100079F9CEE720460DF10F013A460123FFF771
:103A2000B7FE30B32949254803F0F4FB2046FFF7E1
:103A3000EDFB9DF80F102648FEF7D9FD9DF80F10FD
:103A40002348FEF725FE01249DF80F102048FEF7BD
:103A500070FE2146164802228AF8004001F032FE2C
:103A60000023144802210A2289F8003001F0F2FAFA
:103A7000B2E71248174903F0CDFB012389F8003063
:103A800002F0F2FB144B01211970144B19700EB1A6
:103A9000204603E0002DF3D020463146FFF7D0FB4F
:103AA0000028EDD0A1E707B0BDE8F08F9D170020FA
:103AB000F4170020F0170020AED30008FC170020F8
:103AC000B9170020BDD300089E170020CBD30008F3
:103AD000AB170020E3D30008C2170020B117002065
:103AE000D5170020F5170020464B2DE9F0411A7834
:103AF00005461E46444C12B9444B1B783BB102F0BC
:103B0000B3FB4348FEF7E2FC08B1237853B12378B6
:103B1000002B74D03F4A1378904603F0FF07002B28
:103B20006DD114E03B4B1B78002BF0D101F016F95E
:103B3000354B01221A70337813B1374B1A70E6E710
:103B4000324A1278002AE2D0334A1370DFE7334C4E
:103B500028462368264601332360FFF769FC632863
:103B60004DD80A2001F0D8FB2846FFF761FC6328F6
:103B700045D8254B1F7033680A2B3BD92448FEF7E4
:103B800014FD274B64241B685C43234BB4FBF0F00B
:103B90001B78C4B21E484BB1FEF75CFD2044C4B292
:103BA000642C28BF64241F481F4908E0FEF752FD1B
:103BB000001BC4B2652C1B481C4928BF002403F01D
:103BC0000EFB0A222146174803F0B0FB214610489D
:103BD000FEF70DFD21460E48FEF75AFD21460C4822
:103BE000FEF7A7FD124B0F221A7012480021012286
:103BF00001F068FD00233360012388F800300020C5
:103C0000BDE8F081B8170020AF170020C1170020D1
:103C1000AB170020C8170020C9170020CC170020C0
:103C2000C4170020FC170020FFD300081BD4000895
:103C3000F5170020F417002030B597B000212C2292
:103C400068460BAD05F04CFF00212C22284605F0FC
:103C500047FF02F009FB0024042003F02FFE4DF87B
:103C60000400052003F02AFE285104342C2CF3D143
:103C70000B22ADF1040309ACA34207D053F8040FA3
:103C80005968884284BF58601960F5E7013A12F01C
:103C9000FF02EED10B220AAB14ACA34207D053F8BB
:103CA000040F5968884284BF58601960F5E7013AEB
:103CB00012F0FF02EFD1069804F008FA10A3D3E93E
:103CC000002304F079FA00220F4B04F075FA044641
:103CD00011980D4604F0FAF909A3D3E9002304F082
:103CE0006BFA0022084B04F067FA02460B462046A6
:103CF000294604F0ADF804F0F9FC17B030BD00BF60
:103D00000000000000C8E93F00002640AFF300803B
:103D1000F8B51C46114B0D461B6816469B07069FBF
:103D20001BD10F4B1B7803B9F8BDFFF785FF20604F
:103D30002B6801332B602368002B01DA5B42236080
:103D4000236843F2B062934203DD32681344336068
:103D5000F8BD3B6801333B60F8BDF8BDC4170020D7
:103D6000B01700202DE9F843089F0C6899463B687E
:103D70008846E41A13681646B3FBF4F414602CB9B1
:103D80001348144903F046FA25461EE0124821461E
:103D9000FEF7E3FE054640B9104B0A221A701048A0
:103DA0002946022201F08EFC0FE00E49084803F07C
:103DB00016FA074821460A2203F0CBFA00203060A9
:103DC000C8F80000C9F8000038602846BDE8F8834C
:103DD000FC17002039D40008AB170020F51700208D
:103DE000F417002054D400082DE9F34105460C4691
:103DF000174602F039FA2846FFF71EFF01A9051EF3
:103E00005948BABF6D424FF001084FF00008FEF765
:103E1000F2FE019E42F21073AE1B46BF76420025B1
:103E200001259E4204DD5149514803F0F3F984E035
:103E3000B6F5FA7FC0F281804D484E4903F0CFF9C4
:103E40002046B8F1000F27D06DB1B6F57A6F3EDA93
:103E500004F03CF9044630460D4604F047F938A317
:103E6000D3E9002326E0B6F57A6F0ADB04F02EF9D9
:103E7000044630460D4604F039F933A3D3E9002354
:103E800047E004F023F9044630460D4604F02EF9CD
:103E90004FF03332384B3CE025B3B6F57A6F16DB82
:103EA00004F014F9044630460D4604F01FF928A327
:103EB000D3E9002304F080F90022304B04F0A6FA85
:103EC00002460B462046294603F0C2FF2DE004F0CF
:103ED000FDF8044630460D4604F008F91EA3D3E968
:103EE0000023E7E7B6F57A6F09DB04F0EFF8044644
:103EF00030460D4604F0FAF80022214B09E004F0A8
:103F0000E5F8044630460D4604F0F0F814A3D3E972
:103F1000002304F051F90022184B04F077FA02460E
:103F20000B462046294603F095FF04F007FC386055
:103F300039680F480A2203F00CFA02B0BDE8F0819C
:103F4000CDCCCCCCCCCCEC3F9A9999999999F93FAE
:103F5000676666666666E63F9A9999999999E93F18
:103F60009A9999999999F13FAB17002077D4000855
:103F7000FC170020A2D400083333F33F00407F40F9
:103F80000000F83FAFF300802DE9F04F00258FB01F
:103F90000646A3488DF82B500B95FEF7D4FD0490F0
:103FA00002F062F99E48FEF791FA0446002800F0FC
:103FB00028829B48FEF74EFB80469948FEF79BFB04
:103FC000984B8DF82B0096481D70FEF7EEFA4FF6D1
:103FD000FF7383469B45944815D1944903F01AF921
:103FE0008F48FEF7F7FB044600284CD190498E48D5
:103FF00003F010F98F4B0A221A708F4821460222D3
:1040000001F060FB51E28D4903F0E9F80A224146D4
:10401000854803F08BF98A49834803F0E0F80A22C7
:104020009DF82B10804803F081F986497E4803F003
:10403000D6F859460A227C4803F08BF902F014F9AD
:10404000B8F1640F7B4F06D89DF82B30642B02D853
:10405000BBF5F07F19D97C49734803F0DBF80A23DC
:104060007548002102223B7001F02CFB6C48FEF7E2
:1040700036FA04466A48FEF7ADFB04B118B96A483F
:10408000724903F0C7F800240FE207236A480121B0
:1040900002223B7001F016FB02F0E6F86C4B4FF089
:1040A000010A83F800A06B4B1D706B4B1D609DF8DF
:1040B0002B3043450FD898450FD8434510D1304693
:1040C000FFF7A4F85C485146022287F800A0544646
:1040D00001F0F8FAE9E12F4604E05746AA4601E06C
:1040E0002F46AA4602F0C0F8BAF1000F0AD09DF898
:1040F0002B303046C8EB03035FFA83F90CA90DAAF5
:1041000000230AE06FB19DF82B303046C3EB080363
:104110005FFA83F90CA90DAA0123FFF73BF805907C
:1041200000E0B946484603F0E1FF3BA3D3E9002392
:1041300004F042F8044658460D4603F0C7FF024615
:104140000B462046294604F037F80022434B03F083
:1041500081FE04F0F3FA424906900B90324803F0D6
:104160003EF806990A22304803F0F3F802F07CF892
:10417000BAF1000F06D03B480021FEF7DBFF01201B
:10418000079006E02FB137480121FEF7D3FFCDF8A5
:104190001CA0032134480A2200F05CFF00F008FE56
:1041A00000F0DCFD04990A234B4300250993089590
:1041B00004952C4602F058F89DF82B30013B622BF9
:1041C0000DD82A4B1A680B9B9A4208D316482849E7
:1041D00003F020F8BAF1000F00F00781F6E0BAF121
:1041E000000F10D00B9B0DF12B010193CDF8009027
:1041F000304600220123FFF75BF90146002840F01A
:10420000E580304651E0AFBB184B04981A688242F3
:1042100061D8CBE0AFF300807B14AE47E17A843FF6
:10422000AB170020B1170020FC170020D9D40008DC
:1042300040D30008F5170020F417002007D5000828
:1042400025D5000845D5000866D500088FD500089B
:10425000D41700209D170020BC1700200000E03F6D
:10426000BFD50008B9170020F0170020C4170020A0
:10427000EDD500080B9B01220193CDF8009030464C
:104280000DF12B011346FFF713F960B189498A48F4
:1042900002F0A5FF894B884819680A2203F059F8F3
:1042A000854887499EE030460121FEF7C9FF002876
:1042B0007FF4E9AE304601212246FFF765F808B1E8
:1042C0000124F2E030460C990D9A059BFFF78EF918
:1042D000002899D0D7E6196801350491EDB2BAF1FA
:1042E000000F25D0039301F0BFFF039B186804F073
:1042F0004BFB0446584604F047FB0146204604F0B9
:104300004FFC704904F098FB0446404604F040FB23
:104310000146204604F088FA04F054FD0A23C4B292
:10432000B4FBF3F203FB124313F0FF0F2ED02BE08C
:10433000002F33D0039301F097FF039B40461B6887
:10434000039304F025FB039B0446184604F01CFB72
:1043500003465846039304F017FB039B0146184697
:1043600004F01EFC574904F067FB0146204604F0A8
:1043700059FA04F027FD0A23C4B2B4FBF3F203FB9D
:104380001243DBB2012B01D1013CE4B221464E487D
:10439000FEF7CFF94C482146FEF729F9022D05D941
:1043A000304606990BAAFFF71FFD0025434B0998DD
:1043B0001A68B2FBF0F100FB112119B91A680898CC
:1043C000824227D14148FCF79DFCF3E640493A4838
:1043D00002F005FF394B384819680A2202F0B9FF8C
:1043E00035483C4902F016FF02E0002F7FF44EAF43
:1043F0009DF82B30ABB1642B13D0374B1B7883B9AE
:1044000037E036492C4802F005FF35492A4802F0CA
:1044100001FF4AE01B6833480122089301F052F97A
:10442000D0E730460DF12B01079A0123FFF7B0F9D1
:1044300020B12D49204802F0EDFE1AE01E482B491C
:1044400002F0E8FE2A4B01221A7001F00DFF294B01
:1044500001211970284B19700FB1304604E0BAF1F0
:10446000000FF2D030463946FEF7EAFE0028ECD0C5
:1044700009E63046FEF7CAFE01F0F6FE9DF82B1065
:104480001148FEF7B4F89DF82B100F48FEF751F9CC
:1044900001241A4B1348214602221C7001F012F924
:1044A000174802210A2200F0D5FD20460FB0BDE8D2
:1044B000F08F00BF08D60008FC170020C4170020AA
:1044C0002DD600080000C842AB1700209E17002020
:1044D00054D600087BD60008CA170020DBD6000897
:1044E000FED60008F4170020A3D60008BDD60008A9
:1044F000D4170020C2170020B1170020F5170020A4
:10450000F0170020AFF3008070B5064601F0ACFE56
:104510002C48FEF7F0F82C4905462C4802F05FFEC7
:104520000A222946294802F001FF2648FEF734F9FD
:1045300027490446254802F052FE0A222348214614
:1045400002F0F4FE0A23B4FBF3F203FB124313F070
:10455000FF0F08D0AC4203D9631B052B2ADD04E012
:104560002B1B052B26DDAC422AD021461548FEF731
:104570003EF829461348FEF78BF8262003F03CF955
:104580001F2003F039F90021102003F0BBF9304659
:10459000FFF7FAFC1F200F49022203F013F926202F
:1045A0000D49022203F00EF9BDE8704010200121F0
:1045B00003F0A8B905480949BDE8704002F02ABED9
:1045C00070BD00BFAB17002049D70008FC170020C2
:1045D0006ED70008452F0008F12F000894D7000877
:1045E00038B5264B05461A78002A45D000222448C3
:1045F00024491A7002F00EFE234B1B7813B1204899
:10460000224935E0224C2378FBB9224B1B78E3B9D1
:10461000262003F0F1F81F2003F0EEF8002110200F
:1046200003F070F92846FFF7AFFC1F201A49022259
:1046300003F0C8F826201949022203F0C3F8BDE8A8
:1046400038401020012103F05DB91F2003F044F928
:1046500000B92070262003F03FF908B90D4A107008
:1046600023781BB90B4B1B78002BD1D004480C4985
:10467000BDE8384002F0CEBD38BD00BFCA170020EB
:10468000FC170020BCD70008C0170020F0C60008A7
:10469000B8170020C1170020452F0008F12F00088F
:1046A000D3C80008F8B51F460F4B15461B680C46CB
:1046B00013F00302069E16D10C4B197801B9F8BD10
:1046C0001A70FEF7B5FE38602368013323603B683B
:1046D000B3F5967F03D92A6813442B60F8BD33687D
:1046E00001333360F8BDF8BDC4170020B0170020B7
:1046F0002DE9FF4799469DF834301446012B4FF0C1
:1047000000020E460C9F039220D103A96048FEF7D9
:10471000F8FA039B40F6B732591E914288BF4FF416
:10472000487323605A482168FEF715FB05460028A8
:1047300067D15849584802F06DFD584B0A221A704B
:1047400057482946022200F0BDFF8EE03A680D6806
:10475000AD1A2268B2FBF5F525602DB94E485149D6
:1047600002F058FD28468FE0002B40F08180484839
:104770002946FEF76AFA80464748B8F1000F0BD188
:10478000494902F047FD454B0A221A704448414608
:10479000022200F097FF32E0444902F020FD0A2295
:1047A00021683D4802F0D5FD3948FEF7BAF903F01B
:1047B0009DFC00223E4B03F029FE03F0DFFF3D4944
:1047C0000546354802F00BFD284603F0A1FC4FF0EA
:1047D000020A02460B46CDF800A02F4802F070FEF8
:1047E000206804F0D1F8294604F026F903F090FC83
:1047F000CDF800A002460B46274802F061FE0125D5
:1048000038E02D49244802F0EAFC0A2221682248B7
:1048100002F09FFD1E48FEF784F903F067FC0022BA
:10482000234B03F0F3FD03F0A9FF224980461A4809
:1048300002F0D5FC404603F06BFC4FF0020A024642
:104840000B46CDF800A0144802F03AFE206804F0B0
:104850009BF8414604F0F0F803F05AFCCDF800A0B4
:1048600002460B460C4802F02BFE4FF0010801E017
:104870000125A84600239845236014BF2846184602
:104880003360C9F800303B6004B0BDE8F08700BF7A
:10489000AB1700206DD80008FC170020F51700208A
:1048A000F4170020DED70008F9D7000839D800082F
:1048B0000000244056D80008AFD800082DE9F04F7A
:1048C0009B498FB000269B4D04469B488DF80F6096
:1048D00004960696079608960A960B9602F09AFC9E
:1048E0000B239648012102222B7000F0EBFE01F011
:1048F000BBFC934B93481E70934BAA461E60FDF77A
:10490000EEFD074630B98C48904902F083FC0A233B
:104910002B705AE0DFF860828D48032114220125B4
:1049200088F8005000F096FB0CA90DAA33462046EB
:10493000FEF730FC81468348FDF7DDFE59284AD951
:104940008048FDF7D8FE642840F2938143E0814B14
:104950001A68D20702D51A6801321A60D3F800909B
:1049600020460DF10F0132460023FEF711FF00280B
:1049700000F069817849704802F04CFC2046FEF74F
:1049800045FC07AB0093204605AB06A904AAFFF738
:10499000E9F90BAB0093002D00F027810023019370
:1049A0000AA908AA09AB2046FFF7A2FE65484946B6
:1049B000FDF7AFFD07466048002F40F018816749BA
:1049C00002F028FC0A238AF800305C4839460222AB
:1049D00000F078FE52E162480021FEF7ABFB0025B3
:1049E000012600F0BBF900F0E3F901F03DFC8DB1C8
:1049F00000230093019320460DF10F010122FEF7E1
:104A000057FD00282FD120460121FEF719FC70B177
:104A1000002733E10095019520460DF10F012A464C
:104A20002B46FEF745FDF0B920462946EDE7204626
:104A30000C990D9A4B46FEF7D9FD0028E8D10021CC
:104A400020460A46FEF7A0FC002840F017810BAB79
:104A5000009320460AA908AA09ABFFF723FE4148A4
:104A6000FCF750F9C1E720460DF10F013246012352
:104A7000FEF78EFE60B338492F4802F0CBFB20468C
:104A8000FEF7C4FB0BAB009315B10123019300E0CB
:104A9000019508AA09AB0AA92046FFF729FE4FF0A5
:104AA00001093149244888F8009002F0B3FB40F630
:104AB000B83000F031FC01F0D7FB20460CA90DAA5C
:104AC0004B46FEF767FB83462548BDB1002116E043
:104AD0001948264902F09EFB012388F8003001F0B6
:104AE000C3FB234B01211970224B2046197005B9D5
:104AF0002946FEF7A5FB0028F1D089E74946FEF7D5
:104B000019FB00F02BF900F053F901F0ADFBADB348
:104B100000220DF10F010092019220461346FEF78C
:104B2000C7FC014600287FF412AF204634E000BFE6
:104B3000CED80008F5170020FC170020F41700203D
:104B40009D170020AB170020BC170020F9D80008E3
:104B5000F0170020C41700202ED9000885D90008BE
:104B6000B91700209E17002058D9000841D9000825
:104B7000C2170020B1170020D6170020009501951C
:104B800020460DF10F0101222B46FEF791FC002873
:104B90007FF4DDAE20460121FEF752FB00287FF4B2
:104BA00037AF20460C990D9A5B46FEF71FFD002893
:104BB0007FF42EAF002120460A46FEF7E5FB0028D1
:104BC0005CD107AB0093204606A904AA05ABFFF70A
:104BD0009FF80BAB009320460AA908AA09ABFFF780
:104BE00061FD2848FCF78EF88FE70123D7E62649B8
:104BF00002F0F5FA0A224946244802F0AAFB2449A9
:104C0000224802F007FB9DF80F102248FDF7EFFC49
:104C10009DF80F101F48FDF73BFD9DF80F101D4834
:104C2000FDF787FD1B48FDF736FC0C231A480121D0
:104C300002228AF8003000F045FD184802210A22BD
:104C400000F008FA1AE01148154902F0E3FA0123CE
:104C500088F8003001F008FB124B01211970124B4B
:104C60002046197005B10021FEF7EAFA0028F1D0BC
:104C7000CEE60E482946FEF75DFAB2E638460FB09A
:104C8000BDE8F08F9E170020B4D90008FC17002063
:104C9000DED90008AB170020F4170020F017002021
:104CA00041D90008C2170020B1170020B917002011
:104CB0000148112100F0A9BED8170020034B1A6843
:104CC00001321A60024B01221A707047C41700208B
:104CD000B0170020064B1A6801321A601A68B2F544
:104CE000615F04D300221A60024B01221A707047E0
:104CF000DC170020E117002010B5094C09492046B7
:104D000002F0EBF920460121074A02F005FA20469D
:104D1000002102F0D9F92046BDE8104002F0BEB9EA
:104D2000F418002040420F00BD4C000810B5084C9C
:104D30000849204602F0D1F920460121064A02F036
:104D4000EBF920460021BDE8104002F0BDB900BFDC
:104D5000F818002040420F00D54C000810B5074B52
:104D60000021074C1960074B2046197002F0ACF97E
:104D70002046BDE8104002F099B900BFC4170020DA
:104D8000F4180020B017002010B5054C204602F0A2
:104D90008DF920460021BDE8104002F095B900BF12
:104DA000F8180020014802F079B900BFF41800207B
:104DB000014802F073B900BFF81800200148002133
:104DC000FCF7A8BCA01700201FB5304801A9FDF7CB
:104DD000C5F92F4CC0B92F492F4802F01BFA2F48B4
:104DE00000F002FC2E48FBF78DFF40F6B83002F0D1
:104DF000B5FD01F039FA23780133DBB2322B237091
:104E0000E3D901F065FAE0E7002323702548FDF7B8
:104E10008DFDC0B92449204802F0FCF91F4800F07C
:104E200075FB1F48FBF76EFF40F6B83002F096FDA9
:104E300001F01AFA23780133DBB2322B2370E5D963
:104E400001F046FAE2E7002323701648FDF7EFFD74
:104E5000C0B91649104802F0DDF9104800F0C4FB53
:104E60000F48FBF74FFF40F6B83002F077FD01F036
:104E7000FBF923780133DBB2322B2370E5D901F043
:104E800027FAE2E70023237004B010BDAE1700201C
:104E9000E01700200DDA0008FC170020F4170020AE
:104EA0009E170020AB1700205BDA0008B3DA000879
:104EB00008B50F4B1A78CAB100221A70FFF778FFB5
:104EC0000C480121052200F0C5F8FFF777FFFFF736
:104ED0007BFFFFF759FF074802210A2200F0BAF8CA
:104EE000BDE808400448054902F094B908BD00BF78
:104EF000E1170020F0170020FC17002009DB000854
:104F0000002330B5054618468B420FDAEA5C504064
:104F1000082210F0010F4FEA60041ABF84F0E0008D
:104F2000C0B2E0B2013AF4D10133EDE730BD000088
:104F300008B52A4B2A491A68096801328A421A6060
:104F40004AD300221A60274A1378DB43DBB213707E
:104F5000254A1278032A3FD8DFE802F00B29021C09
:104F600022200BB9012100E0002102F0CBFC23201C
:104F700007E023200BB9012100E0002102F0C2FC70
:104F80002220002102F0BEFC2020002102F0BAFC09
:104F900021201CE020200BB9012100E0002102F0BB
:104FA000B1FC2220002102F0ADFC2320EDE72120FE
:104FB0000BB9012100E0002102F0A4FC2220002115
:104FC00002F0A0FC2320002102F09CFC2020002104
:104FD000BDE8084002F096BC08BD00BFE417002001
:104FE000EC170020E8170020E917002008B525205D
:104FF000002102F015FC2220002102F011FC2320E8
:10500000002102F00DFC2020002102F009FC2120EB
:10501000002102F005FC2820022102F001FC2720DB
:10502000022102F0FDFB2220002102F06BFC202077
:10503000002102F067FC2320002102F063FC212004
:10504000002102F05FFCBDE808402520012102F0AC
:1050500059BC000010B50A4B0A4C19700A4B204687
:105060000A491A6002F039F820460121084A02F084
:1050700053F820460021BDE8104002F025B800BFDB
:10508000E9170020FC180020EC170020A086010082
:10509000314F000808B50A4802F000F8222000212C
:1050A00002F030FC2020002102F02CFC2320002103
:1050B00002F028FCBDE808402120002102F022BCBB
:1050C000FC180020014801F0F1BF00BFFC180020CF
:1050D00038B50D460024AC4210D00021252002F046
:1050E00011FC4FF4FA7002F047FC2520012102F078
:1050F00009FCC82002F040FC0134ECE738BD08B5DB
:105100001620002102F08CFB1720002102F088FB02
:105110001620012102F0F6FBBDE80840172001210E
:1051200002F0F0BB1720002102F07ABB1720042107
:1051300002F076BB08B5FFF7F5FF1720012102F05A
:10514000E1FB0121162002F0DDFB052002F014FC3A
:105150000021172002F0D6FB062002F00DFCBDE86E
:1051600008401620002102F0CDBB08B5FFF7DAFF9A
:105170001620002102F0C6FB1720002102F0C2FB1E
:105180000121162002F0BEFB062002F0F5FB1720DD
:10519000012102F0B7FBBDE80840062002F0ECBB9D
:1051A00010B500210446162002F0ACFB2046FFF7A4
:1051B000B9FF0021172002F0A5FB022002F0DCFB62
:1051C0000121162002F09EFB052002F0D5FBBDE870
:1051D00010401620002102F095BB10B500210446B6
:1051E000162002F08FFB2046FFF79CFF01211720BD
:1051F00002F088FB022002F0BFFB0121162002F022
:1052000081FB052002F0B8FBBDE81040162000210C
:1052100002F078BB70B50646FFF788FF0121172022
:1052200002F070FB012002F0A7FB1620012102F022
:1052300069FB012002F0A0FBFB25172002F04CFBCC
:10524000044640B1013D15F0FF05F6D13046FFF7A9
:105250008CFF012070BD1620214602F053FB204632
:1052600070BD38B50C46FFF75DFF1620002102F037
:1052700049FB082524F07F0303F0FF01172003B149
:10528000012102F03FFB0121162002F03BFB02202E
:1052900002F072FB1620002102F034FB013D0220D7
:1052A000640002F069FB15F0FF05E4B2E2D138BDFD
:1052B000F8B505460F46FFF739FF08260024002100
:1052C000162002F01FFB022002F056FB16200121DF
:1052D00002F018FB64001720E4B202F0FDFA08B1F6
:1052E0000134E4B20120013E02F046FB16F0FF0655
:1052F000E5D1284617B9FFF770FF01E0FFF750FF2F
:105300002046F8BD01F00F03090901EB810103EB11
:105310004100C0B270470000074A30B51368154617
:105320002C6819188C42044A04D81168994238BF75
:105330001368F5E730BD00BFCC19002037B50C4627
:105340000C480DF10701FCF768FE9DF807304FF49B
:105350007A705843084902F0F6FA9DF8073005467E
:1053600064205843054902F0EEFA2844206003B057
:1053700030BD00BFAE17002060E31600400D0300F3
:1053800070B50E4615460024E3B2AB42074809D279
:10539000315D102201F0C1FF0448054901F01FFFF3
:1053A0000134F1E7BDE8704001F01EBFFC1700209A
:1053B000CCD8000830B595B040220546002104A89D
:1053C00004F08EFB002314A941F8503D284669469D
:1053D000FFF7B4FF009802F0CFFA00F045FFFE237C
:1053E0008DF81030E0238DF8113011238DF8123034
:1053F00024238DF81330C0238DF8143001238DF849
:1054000015303B4B1B7803B155233A488DF81630C5
:10541000FDF70AFB01AC8DF8170021463548FDF772
:105420005EFA002304AA1A44E15C0133052B1172D1
:10543000F8D131482146FCF798FD002304AA1A440C
:10544000E15C0133092B5173F8D10024012305A835
:1054500024218DF826308DF827408DF828408DF8CE
:1054600029408DF82A408DF82B408DF82C408DF87E
:105470002D408DF82E408DF82F408DF830408DF85E
:1054800031408DF832408DF833408DF834408DF83E
:1054900035408DF836408DF83740FFF731FD8DF8F7
:1054A0003800E30704AB234404F1010454BF0D2288
:1054B0000A22062C83F82920F3D11049104801F064
:1054C000A9FE04A928462F22FFF75AFF0D48FFF72F
:1054D000E1FD0D4804A903682F229B689847C82066
:1054E00002F03CFA0748FFF7EDFD15B030BD00BFF4
:1054F0009C170020AB170020AE17002041DB0008EE
:10550000FC170020F01700201418002010B586B0FA
:1055100014220446002101A804F0E2FA002306A99F
:1055200041F8183D20466946FFF708FF009802F051
:1055300023FA00F099FEFE238DF80430E0238DF865
:10554000053012238DF8063005238DF80730C0236F
:105550008DF8083001238DF809301D4B1B7803B1FD
:1055600055231C488DF80A30FDF75EFA01238DF8AB
:105570000B00052102A88DF80C30FFF7C1FC0023B9
:105580008DF80D00DA0701AA1A4403F1010354BF94
:105590000D210A21062B9172F4D10F490F4801F019
:1055A00039FE01A920461022FFF7EAFE0C48FFF75A
:1055B00071FD0C4801A9036810229B689847C82018
:1055C00002F0CCF90648FFF77DFD06B010BD00BF24
:1055D0009C170020AB1700205DDB0008FC170020A3
:1055E000F01700201418002010B586B014220446CD
:1055F000002101A804F074FA002306A941F8183D1F
:1056000020466946FFF79AFE009802F0B5F900F0CF
:105610002BFEFE238DF80430E0238DF80530132394
:105620008DF8063005238DF80730C0238DF808303B
:1056300001238DF809301D4B1B7803B155231C48FD
:105640008DF80A30FDF7F0F901238DF80B000521E4
:1056500002A88DF80C30FFF753FC00238DF80D00E5
:10566000DA0701AA1A4403F1010354BF0D210A21EC
:10567000062B9172F4D10F490F4801F0CBFD01A91F
:1056800020461022FFF77CFE0C48FFF703FD0C4874
:1056900001A9036810229B689847C82002F05EF9B0
:1056A0000648FFF70FFD06B010BD00BF9C17002095
:1056B000AB1700205DDB0008FC170020F01700206E
:1056C0001418002070B592B00C460546164602A884
:1056D0000021402204F004FA0023019300F0C4FDED
:1056E00034B1284601A9FFF729FE019802F044F9D8
:1056F00000F0BAFDFE238DF80830E0238DF8093064
:1057000014238DF80A301A238DF80B30C0238DF83E
:105710000C3001238DF80D304B4B1B7803B1552312
:105720004A488DF80E30FDF77FF901238DF81030CF
:10573000474B8DF80F001B7846488DF81130FEF767
:105740007BFA454C0028B8BF4042031221788DF8FF
:10575000130042488DF81230FFF7D4FD61788DF8C0
:1057600014003E48FFF7CEFD8DF815003748FDF7D1
:1057700013F88DF816003548FDF7C1F900248DF8AF
:10578000180032488DF81740FDF7CBF98DF81A0054
:1057900030488DF81940FDF74BFE030A8DF81C00C8
:1057A0002A488DF81B30FDF7CEF901462B48FFF74C
:1057B000A9FD8DF81D002A48FCF78AFD14238DF8F9
:1057C0001E008DF81F3003A853231A218DF82030B6
:1057D0008DF821408DF822408DF823408DF824402B
:1057E0008DF82540FFF78CFB8DF82600E30702AB10
:1057F000234404F1010454BF0D220A22062CDA7757
:10580000F4D11849184801F005FD284602A92522BF
:10581000FFF7B6FD0024E3B2B34212D200F024FD3C
:105820001248FFF737FC124802A9036825229B683B
:105830009847104802F0A0F80C48FFF743FC0134E9
:10584000E9E712B070BD00BF9C170020AB17002025
:10585000F5170020B9170020F2170020F1170020DB
:10586000AA17002083DB0008FC170020F017002097
:1058700014180020400D03002DE9F0418AB00546C0
:10588000884617460021192203A804F029F90026AA
:105890000AA941F8206D2846404CFFF74FFD0298B9
:1058A00002F06AF800F0E0FC23780BB1637833B9BA
:1058B00000963B48394901223A4BFBF7B5FDFE23E0
:1058C0008DF80C30E0238DF80D3015238DF80E3057
:1058D0000E238DF80F30C0238DF8103001238DF882
:1058E0001130314B1B7803B1552330488DF81230FD
:1058F000FDF79AF8012321788DF813002C488DF8D4
:1059000014308DF81580FFF7FDFC61788DF81600D6
:105910002748FFF7F7FC00248DF817000E2104A894
:105920008DF818408DF819408DF81A408DF81B40FD
:105930008DF81C408DF81D40FFF7E2FA8DF81E002F
:10594000E30703AB234404F1010454BF0D220A22F0
:10595000062CDA74F4D11749174801F05BFC28468D
:1059600003A91922FFF70CFD1448FFF793FB00244D
:10597000E3B2BB420CD200F077FC114803A90368E4
:1059800019229B689847C82001F0E8FF0134EFE72F
:105990000A48FFF797FB0AB0BDE8F081F217002034
:1059A000A01700209DDB00089C170020AB170020EB
:1059B000F1170020A7DB0008FC170020F0170020DB
:1059C00014180020122938B50546144608460BD095
:1059D000132910D0112916D100F06CF80CB1204613
:1059E0000FE047F6FF700CE000F064F8002CF6D1F1
:1059F00049F63F4005E000F05DF8002CEFD14FF292
:105A0000234000F0DFF8284638BD13B500220446D5
:105A100001A8FFF7D7FF204602B010BD054B1B6859
:105A20001B685B0103F1844394331A68002AFCD09D
:105A3000704700BF0C000020054B1B681B685B0112
:105A400003F184438C331A68002AFCD0704700BFEE
:105A50000C00002008B5FFF7E1FF054B00221B6892
:105A60001B685B0103F18443C3F88C2008BD00BFB1
:105A70000C00002008B5FFF7D1FF054B01221B6881
:105A80001B685B0103F18443C3F8902008BD00BF8D
:105A90000C00002008B5FFF7C1FF054B00221B6872
:105AA0001B685B0103F18443C3F8902008BD00BF6D
:105AB0000C00002010B5044600F026FB00F030FB7F
:105AC000204A112C136A23F44073136213460BD03F
:105AD00005D8C4B1102C2AD10023136227E0122C60
