:020000040800F2
:1000000000C00020A95600085159000855590008A1
:10001000595900085D59000861590008B159000894
:10002000B1590008B1590008B1590008B159000888
:10003000B1590008B1590008B1590008C15E000863
:10004000B1590008B1590008B1590008115600080B
:10005000B1590008B15900084171000861710008E8
:1000600081710008A1710008C1710008B159000830
:10007000B1590008B1590008B1590008B159000838
:10008000B1590008B1590008295A0008B1590008AF
:10009000B1590008B1590008B1590008E1710008D0
:1000A0004D6100087161000895610008CD6100088C
:1000B000216200089162000801630008B15900083C
:1000C000B1590008B1590008B1590008B1590008E8
:1000D000B1590008F96500084D660008A1660008DE
:1000E0002572000859560008B15900082964000813
:1000F0004D64000871640008A9640008795A00087A
:10010000B1590008B159000871630008B1590008DD
:10011000F566000849670008E16300080564000807
:10012000B1590008B1590008B1590008B159000887
:1001300010B5054C237833B9044B13B10448AFF321
:1001400000800123237010BDF01200200000000089
:10015000308D000808B5064B1BB106480649AFF3C1
:1001600000800648036813B1054B03B1984708BDEA
:1001700000000000308D0008F4120020F012002072
:100180000000000004F013BD38B50D46044604F02D
:1001900029FD290A49006039204601F0FE0104F0DA
:1001A000B8FD204604F08EFDE9B2204604F0B1FD12
:1001B000204604F087FD204604F014FD2046A121CE
:1001C00004F0A7FD204604F07DFD0021204604F048
:1001D000C7FD0546204604F058FD204604F01DFDED
:1001E000284638BD70B50D461646044604F0FAFCA4
:1001F000290A49006039204601F0FE0104F089FD1A
:10020000204604F05FFDE9B2204604F082FD20465E
:1002100004F058FD3146204604F07BFD204604F0F2
:1002200051FD204604F0F9FCBDE870400A2006F0BC
:10023000F1BE000008B5154A5178937843EA0123CE
:10024000A3F52043113B112B16D8DFE803F01B1D4B
:10025000090B0D151515151515151515150F111378
:10026000022008BD032008BD072008BD042008BDEA
:10027000052008BD062008BD00218022034808F0A3
:10028000F9FB08BD002008BD012008BD0C130020AB
:1002900010B5074C6018114604F08AFB054B1B781B
:1002A0001C4414F8073C1B1A5842584110BD00BFAB
:1002B0000C1300208F130020084B18795B7943EA58
:1002C000002045F25553984205D04CF20103C31A61
:1002D0005842584170470120704700BF0C1300205E
:1002E000044B9B79552B044B0CBF012200221A7042
:1002F000704700BF0C1300208C13002010B5084C71
:10030000E379552B01D1012010BD064802F0E6F833
:10031000E3798342F7D0D0F1010038BF002010BD4F
:100320000C1300209B13002013B50D4B1C7A552C89
:1003300001D1012012E00B48694602F02AF800239F
:100340001A461DF803108C42F3D019B90132D2B20B
:10035000052AEED00133052BF3D1002002B010BDE9
:100360000C1300209B13002070B505461E46FFF7B6
:100370008FFF044698B12846FFF79EFF044658B108
:100380002846FFF7ADFF2846FFF7B8FF044648B9F7
:1003900046B10C480C4911E00A480C490EE00948E6
:1003A0000B490BE02846FFF7BFFF044640B99DF814
:1003B00010300BB9012403E00248064906F002FCA4
:1003C000204670BDE8130020B2A0000860A000081D
:1003D0008EA00008E9A000081E4B13B51B78002B67
:1003E00035D000230093042117220123FFF7BCFF1F
:1003F00020B3194B1C7A012C1DD11848D97C01F06F
:10040000ABFC70B1224616480F2104F08DFF214647
:10041000144800F0ADFF12482146022204F0AAFE63
:100420000CE00F481021022204F07EFF0E490F4815
:1004300006F0C8FB02E00A4804F014FD0C4B064825
:100440001A78002102B0BDE8104008F013BB02B0DA
:1004500010BD00BF090000200C1300209A130020DB
:10046000E41300209013002021A10008E8130020CD
:100470008F130020184B07B51B784BB30023009354
:1004800004210A220123FFF76FFFC0B1134814496A
:1004900001F031FF38B11349134806F093FB1348BC
:1004A0000321022209E012490F4806F08BFB114B91
:1004B0000A220E481A700421012204F035FF0E4B67
:1004C0000E481A78002103B05DF804EB08F0D2BAA8
:1004D00003B05DF804FB00BF090000209B1300205F
:1004E000141300204FA10008E8130020E41300209B
:1004F0007FA10008E51300208F1300200C130020BB
:1005000013B50023009304210F22FFF72DFF10B332
:100510001D4C1E4804F10A0101F02BFA002830D0CE
:100520001A4804F10A0101F064FA50B31849194855
:1005300006F048FB1848E17901F097FFA0B1174990
:10054000144806F03FFB16480521012204F0ECFE9A
:100550000E4801F02FFB134B0B481A78002102B014
:10056000BDE8104008F086BA0A480F4906F02AFB99
:100570000E4B0A221A700A480621012204F0D4FE0A
:10058000E9E704480A49F1E70C1300209D13002015
:1005900012A20008E81300209B130020AFA100085E
:1005A000E41300208F130020E1A10008E5130020D0
:1005B0003FA200080E4B07B51B78ABB10023009398
:1005C000042105220123FFF7CFFE20B101210948B4
:1005D0000A4604F0CFFD084B08481A78002103B002
:1005E0005DF804EB08F046BA03B05DF804FB00BF09
:1005F00009000020E41300208F1300200C130020BA
:10060000104B13B51B78DBB10124009404210622A2
:100610002346FFF7A9FE50B10B4B0C480721224699
:100620001C7004F081FE1020214606F0C7FC084B28
:1006300008481A78002102B0BDE8104008F01ABA44
:1006400002B010BD090000208D130020E41300202B
:100650008F1300200C130020354B37B51B78002B6F
:1006600063D001240094042106222346FFF77CFE78
:1006700030B3304B1B7813B12F48304950E0304B2A
:100680001B7833BB2F4B1B781BBB2F4B1B7803BB3B
:100690002E4D2B7823B92E4B1B7803F0FF01DBB1D5
:1006A0001F2006F075FC00B92870262006F070FCAB
:1006B00008B9274B18702B7883BB254B1B786BBB75
:1006C000244B25481A78002103B0BDE8304008F0DB
:1006D000D1B91948214923E0102006F06FFC2620EB
:1006E00006F0F2FB1F2006F0EFFB224609211C4812
:1006F00004F01AFE1B4803F039FE1F201A4902229B
:1007000006F0C4FB02222620184906F0BFFB102089
:10071000214606F053FC05F0C7FAD1E70648144914
:1007200003B0BDE8304006F04DBA03B030BD00BFA5
:1007300009000020B0130020E81300206CA200087C
:10074000C6130020C4130020C5130020A8130020E6
:10075000B11300208F1300200C1300209EA200086C
:10076000E4130020A9130020F9290008A52A000895
:10077000D9A2000830B58D4B85B01B78002B00F056
:1007800012810123009304210722FFF7EDFD68B3D6
:10079000874B1B7853B1874B10221A708648002173
:1007A000022204F0E7FC8548854967E0854C237800
:1007B0001BBB854B1B7803BB51E0844906F002FA52
:1007C0007C4B0A221A707C482146022204F0D2FC9B
:1007D0001F207F49022206F059FB26207D49022274
:1007E00006F054FB1020012106F0E8FB7A4B0021B3
:1007F0001A787A4808F03EF9D5E01F2006F0C8FBC9
:1008000000B92070262006F0C3FB08B96E4B1870A3
:10081000237873BB6C4B1B785BBB262006F054FB24
:100820001F2006F051FB1020002106F0C7FB624894
:100830000B21012204F078FD684B9B7A8DF80F3074
:100840009DF80F309DF80F30642B1AD99DF80F30AA
:10085000F02B4AD09DF80F30F12B64D145E0604B6E
:100860001B784BB95F4B1B7833B95F4B1B781BB9B7
:10087000D3E752485D4901E050485D4906F0A2F9CE
:1008800091E05C4801F0E2FC04465A4801F078FB34
:1008900030B99DF80F3003B39DF80F30642B1CD096
:1008A0009DF80F309C42D1D15349444806F08AF953
:1008B0000124404B4048214602221C7004F05AFC9F
:1008C0001F204349022206F0E1FA26204149022274
:1008D00006F0DCFA1020214622E09DF80F300BB91B
:1008E000F02300E0F1238DF80F304449334806F03F
:1008F00069F99DF80F10424802F066FD364B002161
:100900001A78364808F0B6F81F203149022206F05E
:10091000BDFA26202F49022206F0B8FA1020012144
:1009200006F04CFB3FE0334801F02AFB044668B177
:100930009DF80F102F4801F005FC04461F48002CBD
:100940003FF43BAF2F4906F03DF914E01B482E4918
:1009500006F038F92A4803F009FDE8B12B49174899
:1009600006F030F99DF80F10224801F0EBFB054628
:1009700028B1274B1C70224803F05EF810E01349A1
:100980000E4806F01FF90B4B0A221A700A48294636
:10099000022204F0EFFB03E008481E4906F012F9BA
:1009A00005F082F914E705B030BD00BF0900002052
:1009B000B0130020E5130020E4130020E81300200A
:1009C00006A30008A8130020B1130020F2A300081A
:1009D000F9290008A52A00088F1300200C13002015
:1009E000C4130020C6130020C5130020E9A400088A
:1009F00014A500089B13002073A3000836A3000869
:100A0000A9130020CCA3000829A4000888A400088A
:100A1000BA130020BAA40008194B37B51B786BB382
:100A20000124009404210B222346FFF79DFCE0B132
:100A30001448154901F085FD054628B113480D21DC
:100A4000224604F071FC10E01149124806F0BAF891
:100A50000E480E21224604F067FC0F4B0A221A7042
:100A60000A482946022204F085FB0C4B0C481A78F0
:100A7000002103B0BDE8304007F0FCBF03B030BD3B
:100A8000090000209B13002016130020E41300200F
:100A90006AA50008E8130020E51300208F1300204A
:100AA0000C13002010B50446FFF7C4FB07282DD80F
:100AB000DFE800F004090E131D2227182046BDE8C8
:100AC0001040FFF789BC2046BDE81040FFF7D2BCBC
:100AD0002046BDE81040FFF713BD2046BDE810409A
:100AE000FFF768BD2046BDE81040FFF789BD2046EE
:100AF000BDE81040FFF7B0BD2046BDE81040FFF74D
:100B000039BE2046BDE81040FFF786BF10BD00008B
:100B10002DE9F047484C00268146267005F0C4F8C0
:100B200037463546454805F01BFF00287FDD05F0B8
:100B3000BBF894F800A041480AF10103237005F0C6
:100B4000BBFEDFF8108108F80A00032006F062FA05
:100B500023781022434413F8011C394806F0B5F8F5
:100B60003748384906F01DF894F90030002B06DAB2
:100B7000314B002140468022197007F07BFF22781C
:100B800008EB020313F8013CFE2B03D1561EF6B20C
:100B90005FBB02E04FBB0D2B27D00027052DC1D135
:100BA0002949274806F00EF82548284906F00AF892
:100BB00036B9274B1B7893B14846FFF773FF0EE019
:100BC00021780023891BDAB2F0188A42C0B203F1FF
:100BD0000103EEDA18F8000008F80200F3E700233A
:100BE0002370BDE8F04705F05FB8042D1BD8DFE89F
:100BF00005F003070C1116000A3B5D425D4114E04D
:100C00000D2B0CBF022500250FE00A2B0CBF03257E
:100C100000250AE00D2B0CBF0425002505E00A2B5A
:100C2000BED0002501E00127B8E701277AE70023BD
:100C30002370BDE8F08700BF8F1300200014002050
:100C4000E813002027B4000889A50008ADA5000816
:100C5000080000200C13002008B50120002106F038
:100C600047F90120014606F0A9F93220002106F0DB
:100C70003FF91320002106F03BF91420002106F073
:100C800037F91320002106F099F91420012106F00C
:100C900095F9BDE808403220002106F08FB9000028
:100CA000014805F0BBBE00BF0014002008B561B1CB
:100CB0000021142006F082F9962006F0ABF9BDE879
:100CC00008401420012106F079B908BD08B50021BB
:100CD000012006F073F90C4805F0A3FE0220002164
:100CE00006F006F90320002106F002F90220002197
:100CF00006F064F90320002106F060F9BDE8084021
:100D00001420002106F05AB90014002010B50B7809
:100D1000452B12D14B78522B0FD18B78CC78303BAE
:100D200003EB8303303C04EB4304E4B221460A2284
:100D3000034805F0D3FF204610BD0A2010BD00BFB8
:100D4000E81300200B784F2B07D148784B2804D1AB
:100D500013704B780120537070470020704730B5F6
:100D60000020C4B20D5D01302C2D01D01D55F8E7D7
:100D7000601C5525C0B21D55904204D20C5C1C5419
:100D80000130C0B2F8E730BDF8B54C78432C08D13B
:100D90008C78532C05D1CC78B4F151056C426C4160
:100DA00000E000240026F5B24F5D01363A2FFAD15B
:100DB0000135EDB200279542FEB207F1010706D8D2
:100DC00011F805C0013501F806C0EDB2F3E73CB9F2
:100DD0002046C2B2B2420BD20A5C1A540130F8E784
:100DE000069A022412681470721ED2B2FFF7B7FF7F
:100DF0000120F8BD37B5144809B9144900E0144979
:100E000005F0CFFE642006F005F900240E4805F039
:100E1000A7FD0028E5B208DD062C10D00A4805F031
:100E20004BFD0DF804000134F0E745B19DF80230A8
:100E30004F2B03D19DF803304B2B02D002E0002052
:100E400000E0012003B030BD00140020D8A5000848
:100E5000DCA5000810B504460120014606F0AEF8F6
:100E600007484FF4165105F0D9FD20460121FFF740
:100E70001DFF20460121BDE81040FFF7BBBF00BFAA
:100E8000001400202DE9F0419EB005AD0C46074648
:100E90000021904628466422039307F0EBFD21468B
:100EA0002C4805F07EFE642006F0B4F800242948A2
:100EB00005F056FD0028E6B207DD642C45D0254834
:100EC00005F0FAFC28550134F1E726B922492348F8
:100ED00005F078FE39E09DF814300D2B35D19DF8E2
:100EE00015300A2B31D11EAB334413F8653C0A2B65
:100EF0002BD1023E1EAB334413F8643C0D2B24D19E
:100F00000021CCB2A31CDBB2B34201F1010107DA2C
:100F10001EAA134413F8643C144404F8643CF0E73C
:100F200038462946FFF7F2FE0A280CD103AB00939E
:100F30003846294622464346FFF726FF00280CBFC5
:100F40000320022002E0012000E003201EB0BDE8E3
:100F5000F08100BF00140020E2A50008E813002083
:100F60002DE9F041B2B006460D46904600216422BC
:100F700068461F4607F07EFD19A80021642207F08D
:100F800079FD0024E3B2E85C013420B132AA1344B5
:100F900003F8640CF6E70146CAB25D1818F802407F
:100FA000EDB232AA01312A4414B102F8644CF3E7DD
:100FB0000D2302F8643C6B1C32A8DBB203442F48BB
:100FC0000A2203F8642C036819A95B6898472C4827
:100FD000AA1C036819A99B68D2B29847642006F03E
:100FE00019F8274805F0BCFC0028E5B208DD642CA0
:100FF0003FD0234805F060FC0DF804000134F0E711
:10100000002D36D09DF800300D2B32D19DF80130E7
:101010000A2B2ED132AB2B4413F8C93C0A2B28D112
:10102000023D32AB2B4413F8C83C0D2B21D10021DB
:101030008B1CDBB2AB4201F1010209DA32A8034496
:1010400013F8C83CC9B2014401F8C83C1146EFE7A7
:1010500030466946FFF75AFE0A2808D130466946ED
:101060003A46FFF76FFE80F00100C0B202E00120B7
:1010700000E0032032B0BDE8F08100BFE81300209B
:1010800000140020F7B51E46044617460D46002101
:101090008DF80710FFF7AEFE04F006FE204631463D
:1010A0002FB12A460DF10703FFF7ECFE03E0089A83
:1010B0002B46FFF755FF03282AD8DFE800F011047C
:1010C0000207002311E01648164901E014481649AA
:1010D00005F078FD20460121FFF78CFE00201CE082
:1010E00012490F4805F06EFD12E09DF807205E1CC6
:1010F000DBB29A420A4809D9E95C102205F0E5FD05
:1011000007480B4905F04DFD3346EEE705F04EFD6F
:1011100020460121FFF76EFE012003B0F0BD00BFA5
:10112000E8130020F6A5000807A6000810A600088E
:1011300027B400082DE9F0438BB004AF80460021AE
:101140000922384602AE002407F094FC0094404681
:10115000314601222C4BFFF795FF054610B92B486D
:101160002B494BE02346F25C07AC092A01D8303208
:1011700004E0A2F10A01052998BF3732E254013395
:10118000082BF0D14FF0000922488DF8249000F090
:10119000D3FE0246C0B120491C4805F013FD1D488E
:1011A000394600F037FE50B14B46E15CFA5C9142A3
:1011B00017D10133082BF8D1144818491EE01849FB
:1011C000124805F0FFFC07E0009440463146154BFD
:1011D000FFF758FF054698B121460E4800F06AFE19
:1011E0000AE01149094805F0EDFC009740463146F8
:1011F00000220C4BFFF746FF054601E005F0E2FC3C
:1012000028460BB0BDE8F0831CA60008E8130020B8
:1012100027A600089A13002047A60008CFA60008BA
:1012200065A6000889A6000892A600082DE9F04FDF
:1012300089B002AF07F10C068346894690461C46EA
:10124000304600210A2207F015FC002C48D1C7F8CF
:1012500004D05846CDF80080314601224B46FFF7B6
:1012600011FF824608B1214602E03C483C496BE050
:10127000CCB218F804300131002BF9D1E11D01F492
:10128000FC71ADEB010D02A9D8B2A04203D2F05C13
:10129000C8540133F8E70B46581AC0B2A0420DD229
:1012A00013F8010B092801D8303004E0A0F10A0539
:1012B000052DF1D8373003F8010CEDE70025EBB22E
:1012C000A3423FD24B5D013508EB050010F8010C3D
:1012D0009842F4D02148234905F074FC7B689D4670
:1012E0006C460023DAB219F8021001330A29F9D149
:1012F000931D03F4FC73ADEB030DA2F1020E02ABE0
:101300000020C1B2551EA94200F1010003DA19F80C
:1013100001505D54F5E700223D215A55584603F827
:101320000E10CDF800803146FFF7ACFE054628B917
:101330000A480D4905F046FCAA4601E04FF0010AB3
:10134000A54605E00548094905F03CFC7B689D463B
:1013500050461C37BD46BDE8F08F00BFE8130020A3
:10136000F9A600081FA7000876A7000898A700089C
:101370007FB50F2204460D466846002107F07AFB30
:101380006348644905F01EFC0A2604F08DFC002D1C
:101390006CD12046FFF7CEFE5F498DF800005F4A12
:1013A0002B462046FFF742FF5D498DF801005D4A5C
:1013B0002B462046FFF73AFF5B498DF802005B4A57
:1013C0002B462046FFF732FF59498DF80300594A52
:1013D0002B462046FFF72AFF574A58492B468DF8DF
:1013E00004002046FFF722FF8DF80500544800F066
:1013F000F3FCF1280CBF534A4A4A53492B46204676
:10140000FFF714FF51498DF80600514A002320468A
:10141000FFF70CFF4F498DF807004D4A0023204687
:10142000FFF704FF4C498DF80800464A0023204688
:10143000FFF7FCFE49498DF80900494A0023204680
:10144000FFF7F4FE47498DF80A00474A002320467B
:10145000FFF7ECFE334A8DF80B0044492046002389
:10146000FFF7E4FE0D228DF80C000EE0344800F08A
:10147000B3FCF1280CBF334A2A4A204632490123E3
:10148000FFF7D4FE01228DF8000000231DF80310A1
:10149000A9B937491E4805F095FB2046FFF7DAFC4D
:1014A0002046FFF713FC04F0FFFB2046FFF7D2FCB9
:1014B0004FF4FA6005F0AEFD04F0F6FB05E00133F1
:1014C000D9B29142E2D304B070BD2A4805F048FA7F
:1014D000002803DD274805F0EFF9F6E7013E16F096
:1014E000FF067FF452AF14222348012103F00AFBC8
:1014F0002249074805F066FB40F6B83005F08AFD42
:1015000004F0D2FB04B0BDE8704004F001BC00BFA1
:10151000E8130020AEA70008CDA70008D9A700084F
:10152000E2A70008DFA70008ECA70008F8A700085A
:1015300001A800080DA8000821A8000816A80008A6
:101540009A1300202EA8000824A8000831A800083B
:101550003BA800083EA8000848A8000852A80008B8
:101560005BA800085EA8000868A800086BA800082F
:1015700075A8000800140020E013002092A80008BD
:1015800007B5384800F064FB002839D1364B37499D
:101590001870344800F0EDF928B13248334900F0B2
:1015A00028FA002853D1324800F0B1FF20B130486A
:1015B00000F032FF00284FD101238DF800302C4875
:1015C000002369468DF801308DF802308DF8033024
:1015D0008DF8043000F08FFE18B12648264905F03A
:1015E000F1FA26480021052203F08CFA08E004F005
:1015F0005BFB282005F0CCFC40B12148FFF788FABE
:10160000184800F025FB0028F1D01AE041F288309C
:1016100003F0DAFB04F048FB282005F0B9FC0028B1
:10162000EBD116484FF4167103F0AAFA154803F0EF
:1016300019FC282005F0ACFC0028DED104F034FBB6
:10164000F7E7094B01221A7003B05DF804FB0E495D
:10165000084805F0B7FAA6E70C49064805F0B2FAC3
:10166000AAE700BF9D13002009000020911300206D
:101670009B130020E8130020BEA80008E013002000
:101680008E130020E4130020DBA80008EFA8000858
:1016900038B5282005F07CFC002860D1642003F0D8
:1016A00093FB282005F074FC0446002850D12C48F8
:1016B0004FF4167103F064FA2A482B4905F082FAB8
:1016C000022C02D80134E4B204E02648264905F091
:1016D00079FA002404F0E8FA40F6B83003F074FB1D
:1016E00004F0E2FA272005F053FC0028E8D164203A
:1016F00003F06AFB272005F04BFC05460028DFD1EC
:1017000017484FF4167103F03BFA2946102005F0F4
:1017100055FC262005F0D8FB1F2005F0D5FB13480B
:1017200002F024FE1F201249022205F0AFFB262002
:101730001049022205F0AAFB1020012105F03EFC11
:10174000272005F025FC0028BAD104F0ADFAF7E710
:10175000282005F01DFC10B904F0A6FAF8E738BD02
:10176000E0130020E81300201EA90008A9130020A0
:10177000F9290008A52A000838B53F4B06201A6849
:101780004FF47A7122F0E06242F000721A6004F0C5
:101790007BFA3A484FF4E13105F040F94FF4165125
:1017A0003748FFF77DFA04F0E7F9364801F0D0F941
:1017B0000221344801F018FA334800F0CBF83348DE
:1017C00003F06CF904F070FA2D48FFF745FA012197
:1017D0002B48FFF70FFB2E4D4FF4FA6005F01AFC73
:1017E00000242C482C70FFF793F901232B7004F090
:1017F0005BFA21462248FFF7BBFD274800F076FA46
:1018000002F0D2FFFFF744FF244800F0EFF9FFF7A2
:10181000B7FE2248224900F025FAA8B905221B4844
:10182000012103F06FF91F49144805F0CBF91E4858
:1018300003F032FC1748FFF76BF940F6B83003F0BD
:10184000C3FA04F031FAE4E718490C4805F0BAF994
:1018500002210E480A2203F055F904F025FA144B30
:10186000092208481A7002F0A7FB04F01DFABDE82F
:10187000384002F0B3BF00BF04000140E81300206D
:1018800090130020A91300209C130020E0130020D7
:10189000080000208E1300209A1300209D130020C2
:1018A000911300204AA90008E41300207EA9000833
:1018B000E513002008B5272005F06AFBF0B904F015
:1018C000F3F941F2883003F07FFA04F0EDF92720B4
:1018D00005F05EFB58B90A484FF4167103F050F951
:1018E0000848094905F06EF9084801F027F8272053
:1018F00005F04EFB10B904F0D7F9F8E708BD00BFBA
:10190000E0130020E813002097A900089B13002093
:1019100010B50A4C04F0C8F90948FFF7F9F8204659
:1019200001F024FC204601F037FE204602F0B0FB17
:1019300003F016F8BDE81040FFF7BCBFA913002064
:101940008E1300201520012105F038BB1520002141
:1019500005F034BB10B500210446152005F0C8FA87
:101960001520012105F02AFB2046BDE81040FEF7B6
:1019700009BC7FB505460E46FFF7E8FF0D24331975
:101980002146284613F80D2C0134FEF72BFC162CAB
:10199000F5D13046092103F00BF8064621462846CA
:1019A0003246FEF71FFC0D2421462846FEF7ECFBCD
:1019B00001AB23440134162C03F80D0CF4D101A81B
:1019C000092102F0F5FFB04203D0FFF7BBFF002072
:1019D0000DE028460B21FEF7D7FB552804D02846FA
:1019E0000B215522FEF7FEFBFFF7ACFF012004B0F0
:1019F00070BD7FB505460E46FFF7A8FF17243319C3
:101A00002146284613F8172C0134FEF7EBFB202C57
:101A1000F5D13046092102F0CBFF06462146284683
:101A20003246FEF7DFFB172421462846FEF7ACFBC3
:101A300001AB23440134202C03F8170CF4D101A886
:101A4000092102F0B5FFB04203D0FFF77BFF002071
:101A50000DE028460C21FEF797FB552804D02846B8
:101A60000C215522FEF7BEFBFFF76CFF012004B0EE
:101A700070BDF0B585B001AD06460F462846002181
:101A8000092206F0F7FF0D2421463046FEF77CFBC5
:101A90002B190134162C03F80D0CF5D121463046D4
:101AA000FEF772FB09210446284602F081FF8442BA
:101AB00006D10023EA5CFA540133092BFAD101E084
:101AC000002000E0012005B0F0BDF0B585B001AD0B
:101AD00006460F4628460021092206F0CBFF1724B0
:101AE00021463046FEF750FB2B190134202C03F819
:101AF000170CF5D121463046FEF746FB0921044676
:101B0000284602F055FF844206D10023EA5CFA54CD
:101B10000133092BFAD101E0002000E0012005B0DB
:101B2000F0BD37B50C461E210546FEF72DFB1F21E3
:101B30008DF804002846FEF727FB02218DF80500EA
:101B400001A802F035FF207003B030BD10B50B21A5
:101B50000446FEF719FB88B1FFF7F8FE2046002285
:101B60000B21FEF73FFBFFF7EDFE20460B21FEF7B2
:101B70000BFBD0F1010038BF002010BD012010BDCB
:101B800010B50C210446FEF7FFFA88B1FFF7DEFE20
:101B9000204600220C21FEF725FBFFF7D3FE20464E
:101BA0000C21FEF7F1FAD0F1010038BF002010BD82
:101BB000012010BD10B521210446FEF7E5FA552895
:101BC00011D0FFF7C3FE204655222121FEF70AFB64
:101BD000FFF7B8FE20462121FEF7D6FAB0F15503F3
:101BE0005842584110BD012010BD000038B50446D0
:101BF000272005F0CDF940BB04F056F841F28830BB
:101C000005F008FA04F050F8272005F0C1F9054660
:101C1000D8B90E484FF47A7102F0B2FF2046212164
:101C2000FEF7B2FA40B1FFF791FE204621212A4685
:101C3000FEF7D8FAFFF786FE20462121FEF7A4FA28
:101C4000D0F1010038BF002038BD38BDE0130020BE
:101C500008B52121FEF798FAB0F1550358425841D2
:101C600008BD000038B504460D46FFF702FF20B15D
:101C700020462946FFF729FF40BB20462946FFF7AB
:101C8000F8FE48B11449154804F09CFF2046294647
:101C9000BDE83840FFF7ADBE20462946FFF715FFE7
:101CA00048B10F490D4804F08DFF20462946BDE894
:101CB0003840FFF75EBE0B49084804F083FF20461A
:101CC000FFF744FF2046FFF75BFF03E003480649A8
:101CD00004F078FF012038BDFEA90008E8130020B9
:101CE00035AA00086CAA000880AA000810B548218F
:101CF0000446FEF749FA552811D0FFF727FE204683
:101D000055224821FEF76EFAFFF71CFE20464821B7
:101D1000FEF73AFAB0F155035842584110BD012080
:101D200010BD10B54D210446FEF72EFA552810D0EF
:101D3000FFF70CFE204655224D21FEF753FAFFF720
:101D400001FE20460021FEF71FFA003018BF0120D7
:101D500010BD012010BD000037B58DF807101031FF
:101D6000C9B20129044629D84C21FEF70DFA9DF885
:101D70000730834228D002ADFFF7E8FD15F8012DAA
:101D800020464C21FEF72EFA0121284602F010FED3
:101D90004E2102462046FEF725FA20464C21FEF74A
:101DA000F3F99DF80730834205D12046FFF7B9FFCC
:101DB000FFF7C8FD08E0FFF7C5FD03E0044805494B
:101DC00004F000FF002000E0012003B030BD00BFA0
:101DD000E8130020B0AA000837B54C210446FEF7EE
:101DE000D3F902AB03F8010D1846012102F0E0FD22
:101DF0004E2105462046FEF7C7F9854202D19DF8DF
:101E0000070004E02046F021FFF7A6FFF02003B012
:101E100030BD0000F7B505460E464F242146284642
:101E2000FEF7B2F900AB23440134572C03F84F0CF2
:101E3000F4D10821684602F0BBFD2146074628463A
:101E4000FEF7A2F987420CD100231DF80320F254BB
:101E50000133082BF9D10448044904F0B3FE0120F2
:101E600000E0002003B0F0BDE8130020E6AA00085F
:101E700010B558210446FEF787F9552808D0FFF71A
:101E800065FD204658215522FEF7ACF9FFF75AFDB3
:101E900010BD10B558210446FEF776F940B1FFF7A2
:101EA00055FD204658210022FEF79CF9FFF74AFD18
:101EB00010BD0000F7B50F460546FFF747FD384651
:101EC000082102F075FD4F2406463B19214628469D
:101ED00013F84F2C0134FEF785F9572CF5D1214624
:101EE00028463246FEF77EF94F2421462846FEF763
:101EF0004BF900AB23440134572C03F84F0CF4D1B9
:101F00006846082102F054FD864206D02846FFF7B5
:101F1000C0FFFFF717FD002007E00549054804F062
:101F200051FE2846FFF7A4FF012003B0F0BD00BF1B
:101F3000FBAA0008E813002008B55821FEF724F991
:101F4000B0F155035842584108BD10B5262104464A
:101F5000FEF71AF9552811D0FFF7F8FC2046552254
:101F60002621FEF73FF9FFF7EDFC20462621FEF77C
:101F70000BF9B0F155035842584110BD012010BD76
:101F800008B52621FEF700F9B0F155035842584133
:101F900008BD10B526210446FEF7F6F888B1FFF714
:101FA000D5FC204600222621FEF71CF9FFF7CAFCCB
:101FB00020462621FEF7E8F8D0F1010038BF0020C6
:101FC00010BD012010BD37B5C1F307258DF80510F0
:101FD0000F39B1F5E97F04468DF804500ED2272160
:101FE000FEF7D2F885420BD1204628219DF80550F6
:101FF000FEF7CAF8854203D101202EE000202CE034
:10200000FFF7A4FC204627219DF80420FEF7EAF8FC
:102010009DF8052020462821FEF7E4F8022101A8BA
:1020200002F0C6FC05462A4620462921FEF7DAF8CA
:10203000FFF788FC27212046FEF7A6F828218DF817
:1020400004002046FEF7A0F802218DF8050001A843
:1020500002F0AEFC431B5842584103B030BD13B5EB
:1020600027210446FEF790F828218DF80400204629
:10207000FEF78AF829218DF805002046FEF784F83E
:102080000221044601A802F093FC844205BF9DF89A
:1020900004009DF805304FF6FF7043EA002002B0BF
:1020A00010BD13B564298DF8071028D8012003F05E
:1020B0007BFD9DF80730C0B2984222D0013898428B
:1020C0001FD013B901238DF8073001210DF107004E
:1020D00002F06EFC044603F05BFD01209DF8071042
:1020E00003F069FD0220214603F065FD03F056FD73
:1020F000022003F059FD031B5842584102E0002022
:1021000000E0012002B010BD13B5012003F04CFD2A
:1021100002AB03F8010D1846012102F049FC044608
:10212000022003F041FD844209D19DF80730012BC4
:1021300004BF00238DF807309DF8070000E0FF2062
:1021400002B010BD13B564298DF8071028D80320FC
:1021500003F02AFD9DF80730C0B2984222D0013822
:1021600098421FD013B901238DF8073001210DF1DA
:10217000070002F01DFC044603F00AFD03209DF851
:10218000071003F018FD0420214603F014FD03F0AE
:1021900005FD042003F008FD031B5842584102E0EE
:1021A000002000E0012002B010BD13B5032003F0B1
:1021B000FBFC02AB03F8010D1846012102F0F8FB0D
:1021C0000446042003F0F0FC844209D19DF8073056
:1021D000012B04BF00238DF807309DF8070000E0B5
:1021E000FF2002B010BD13B564298DF8071028D860
:1021F000052003F0D9FC9DF80730C0B2984222D0E8
:10220000013898421FD013B901238DF807300121FE
:102210000DF1070002F0CCFB044603F0B9FC0520E9
:102220009DF8071003F0C7FC0620214603F0C3FC0D
:1022300003F0B4FC062003F0B7FC031B58425841DE
:1022400002E0002000E0012002B010BD13B505201F
:1022500003F0AAFC02AB03F8010D1846012102F0BD
:10226000A7FB0446062003F09FFC844209D19DF899
:102270000730012B04BF00238DF807309DF80700BD
:1022800000E0FF2002B010BD38B5054603F080FC29
:102290000124204603F088FC50B12046002103F0C1
:1022A0008AFC204603F080FC10B103F077FC19E0B3
:1022B0000134E4B2072CECD103F070FCFFF746FBCD
:1022C000412428462146FDF75FFF68B12846214694
:1022D0000022FDF787FF28462146FDF755FF18B17C
:1022E000FFF730FB002038BD0134472CE9D1FFF760
:1022F00029FB012038BDF8B504460E462F25731979
:102300002046294613F82F7CFDF73EFF874203D174
:102310000135342DF3D136E0FFF718FB2F25731963
:102320002946204613F82F2C0135FDF75BFF342D8D
:10233000F5D10521304602F03BFB074629462046F1
:102340003A46FDF74FFF2F2520462946FDF71CFF93
:10235000731913F82F3C834217D10135342DF3D173
:1023600020462946FDF710FFB8420ED12046352100
:10237000FDF70AFF552804D0204635215522FDF7E8
:1023800031FFFFF7DFFA0120F8BDFFF7DBFA00208D
:10239000F8BDF7B505460E462F2421462846FDF721
:1023A000F3FE00AB23440134342C03F82F0CF4D19A
:1023B0000521684602F0FCFA214607462846FDF74B
:1023C000E3FE874207D100231DF80320F2540133B6
:1023D000052BF9D101E0002000E0012003B0F0BDA1
:1023E00073B505462F2421462846FDF7CDFE00ABE8
:1023F00023440134342C03F82F0CF4D16846052112
:1024000002F0D6FA214606462846FDF7BDFE331AED
:102410005842584102B070BD38B50546FFF796FAEC
:102420002F2428462146FDF7AFFE68B128462146F5
:102430000022FDF7D7FE28462146FDF7A5FE18B17C
:10244000FFF780FA002038BD0134342CE9D128464A
:102450003521FDF799FE20B1284635210022FDF7F0
:10246000C1FEFFF76FFA012038BD37B50D468DF874
:10247000071036210446FDF787FE85422BD002ADBA
:10248000FFF764FA15F8012D20463621FDF7AAFE64
:102490000121284602F08CFA372102462046FDF73A
:1024A000A1FE20463621FDF76FFE9DF807308342DE
:1024B0000DD120463821FDF767FE552804D020466F
:1024C00038215522FDF78EFEFFF73CFA03E0FFF7B7
:1024D00039FA002000E0012003B030BD3621FDF7BD
:1024E00053BE37B536210546FDF74EFE02AB03F865
:1024F000010D1846012102F05BFA372104462846F7
:10250000FDF742FE231A5842584103B030BD10B5C2
:1025100036210446FDF738FE88B1FFF717FA20464A
:1025200036210022FDF75EFE20463621FDF72CFE07
:1025300018B1FFF707FA002010BDFFF703FA0120DA
:1025400010BDF8B505460E462A2433192846214603
:1025500013F82A7CFDF718FE874215D101342F2C81
:10256000F3D10FE00134052C11D128464721FDF7A6
:102570000BFE552804D0284647215522FDF732FE90
:10258000FFF7E0F90120F8BDFFF7E0F9002404F1BE
:102590002A0728463946325DFDF724FE284639468B
:1025A000FDF7F2FD335D8342DCD0FFF7CBF900206D
:1025B000F8BD10B547210446FDF7E6FD552801D0CA
:1025C000142010BD20462B21FDF7DEFD431EDBB29B
:1025D000632BF5D810BD10B547210446FDF7D4FD97
:1025E000552801D0142010BD20462D21FDF7CCFD2B
:1025F000431EDBB2632BF5D810BD08B52E21FDF7C5
:10260000C3FD431EDBB20A2B28BF032008BD73B5F0
:102610000D4649210446FDF7B7FD4A2106462046EE
:10262000FDF7B2FD40EA06202B1A642B3AD9401B75
:10263000642837D92B0A022101A88DF804308DF8BF
:10264000055002F0B5F90546FFF780F9204649210B
:102650009DF80420FDF7C6FD20464A219DF805207F
:10266000FDF7C0FD2A4620464B21FDF7BBFDFFF7D5
:1026700069F949212046FDF787FD4A218DF80400BC
:102680002046FDF781FD02218DF8050001A802F02A
:102690008FF94B2105462046FDF776FD431B584236
:1026A000584100E0012002B070BD73B50D464921CC
:1026B0000446FDF769FD4A218DF804002046FDF728
:1026C00063FD02218DF8050001A802F071F94B218C
:1026D00006462046FDF758FD86420DD19DF805308F
:1026E0009DF8040043EA002043F2AF63984228605B
:1026F00094BF0020012000E0002002B070BD73B53F
:102700000D4639210446FDF73FFD3A210646204695
:10271000FDF73AFD40EA0620401B642848D96430A2
:10272000642845D92B0A022101A88DF804308DF8C0
:10273000055002F03DF90546FFF708F9204639211A
:102740009DF80420FDF74EFD20463A219DF8052016
:10275000FDF748FD2A4620463B21FDF743FD392180
:102760002046FDF711FD3A218DF804002046FDF7C3
:102770000BFD02218DF8050001A802F019F93B219B
:1027800005462046FDF700FDA8420DD120463C211C
:10279000FDF7FAFC552804D020463C215522FDF7D0
:1027A00021FDFFF7CFF803E0FFF7CCF8002000E0B1
:1027B000012002B070BD73B50D4639210446FDF706
:1027C000E3FC3A218DF804002046FDF7DDFC0221F0
:1027D0008DF8050001A802F0EBF83B2106462046E3
:1027E000FDF7D2FC86420DD19DF804209DF80530FE
:1027F000012043EA0223B3F5967F38BF4FF44873B4
:102800002B6000E0002002B070BD73B50D463D2185
:102810000446FDF7B9FC3E2106462046FDF7B4FC10
:1028200040EA0620401B642848D96430642845D912
:102830002B0A022101A88DF804308DF8055002F012
:10284000B7F80546FFF782F820463D219DF80420A1
:10285000FDF7C8FC20463E219DF80520FDF7C2FC8F
:102860002A4620463F21FDF7BDFC3D212046FDF7CD
:102870008BFC3E218DF804002046FDF785FC0221EB
:102880008DF8050001A802F093F83F210546204687
:10289000FDF77AFCA8420DD120464021FDF774FCDB
:1028A000552804D0204640215522FDF79BFCFFF718
:1028B00049F803E0FFF746F8002000E0012002B0ED
:1028C00070BD73B50D463D210446FDF75DFC3E210C
:1028D0008DF804002046FDF757FC02218DF8050015
:1028E00001A802F065F83F2106462046FDF74CFCA2
:1028F00086420DD19DF804209DF80530012043EA61
:102900000223B3F5967F38BF4FF448732B6000E085
:10291000002002B070BD38B53C210546FDF734FCFF
:10292000402104462846FDF72FFC552C04D1B0F178
:1029300055035842584138BD002038BD10B53C21E0
:102940000446FDF721FC20B920464021FDF71CFC80
:1029500068B1FEF7FBFF20463C210022FDF742FC58
:10296000204640210022FDF73DFCFEF7EBFF012051
:1029700010BD37B53C210446FDF706FC552807D0AD
:1029800020464021FDF700FC55281AD0012030E0F8
:1029900039212046FDF7F8FB3A218DF80400204646
:1029A000FDF7F2FB02218DF8050001A802F000F806
:1029B0003B2105462046FDF7E7FB8542E0D000209D
:1029C00017E03D212046FDF7DFFB3E218DF8040096
:1029D0002046FDF7D9FB02218DF8050001A801F082
:1029E000E7FF3F2105462046FDF7CEFB2B1A584254
:1029F000584103B030BD000010B51F2004F064FA48
:102A00001F2004F0C5FA012820D142F2107004F012
:102A10000FFB1F2004F0BCFA012804462ED12146EA
:102A2000252004F0CBFA194B00221C70184B6424AB
:102A30001A7042F2107004F0FBFA013CF9D1252023
:102A4000214604F0BBFA1348134915E01F2004F097
:102A50009FFA98B942F2107004F0EAFA1F2004F0CD
:102A600097FA58B9094B187001F0F4FE252001219E
:102A700004F0A4FA0748094904F0A4F8BDE810409E
:102A80001F200749022204F001BA00BFA81300204A
:102A9000B8130020E813002010AB000835AB000885
:102AA000F929000810B5262004F00EFA262004F0BB
:102AB0006FFA012820D142F2107004F0B9FA2620F2
:102AC00004F066FA012804462ED12146252004F0A0
:102AD00075FA194B00221C70184B64241A7042F2CC
:102AE000107004F0A5FA013CF9D12520214604F02C
:102AF00065FA1348134915E0262004F049FA98B9FD
:102B000042F2107004F094FA262004F041FA58B909
:102B1000094B187001F09EFE2520012104F04EFAA9
:102B20000748094904F04EF8BDE81040262007493F
:102B3000022204F0ABB900BFB1130020B81300208B
:102B4000E81300205BAB000882AB0008A52A000850
:102B500008B50720002104F0CBF92420002104F05F
:102B6000C7F91020002104F0C3F90620032104F066
:102B7000BFF90420032104F0BBF90520032104F070
:102B8000B7F91F20022104F0B3F92620022104F036
:102B9000AFF91020012104F011FA1F200E49022282
:102BA00004F074F902220D49262004F06FF91F2069
:102BB00004F0EEF90A4B012814BF002218704FF000
:102BC000260018BF1A7004F0E3F9064B012816BF5F
:102BD000002218701A7008BDF9290008A52A0008FB
:102BE000A8130020B1130020012910B50C460BD00A
:102BF0001CD22520012104F0E1F90720002104F076
:102C0000DDF92420012108E0252004F0D7F9072070
:102C1000214604F0D3F92420002104F0CFF94FF429
:102C20007A7004F0F7F92520002109E0072001213E
:102C300004F0C4F92420012104F0C0F92520012169
:102C4000BDE8104004F0BAB973B51B480C461646EF
:102C50001D46FFF760FE60B31748FFF78AFE20B9F4
:102C60001548FFF76BFE022024E01348FFF7B3FC82
:102C700004F022FD0022114B04F0AEFE05F064F8D2
:102C8000206025B901A90C48FFF795FD05E0012D4D
:102C90000BD1094801A9FFF714FE019805F05AF974
:102CA0000146206805F0AEF92060019B00203360EA
:102CB00000E0032002B070BD9B1300200000244000
:102CC00008B501F0C7FD07480221FFF78DFF064A4E
:102CD00000231370054A1370054A1370BDE80840BD
:102CE00001F0AABDA9130020C6130020C4130020C0
:102CF000C51300203F4B2DE9F0411A78884602F0B9
:102D0000FF04002A72D000221A703B4B1B783BB99B
:102D10003A4B1B7823B93A4B1B7803F0FF053BB1C4
:102D2000384A137803F0FF0513B10023137001250F
:102D3000354B1C68B4F5167F34BF002401240DB94F
:102D4000002C53D0FFF7BCFF304802210A2201F0CB
:102D5000D9FE2F48FFF798FA07462E4867B92E4943
:102D600003F030FF2D4B0A221A702D4839460222FB
:102D700002F000FA012439E02A4903F023FF244835
:102D8000FFF707F90646234866B9274903F01AFFFB
:102D9000224B0A221A7022483146022202F0EAF936
:102DA0003C4623E0214903F00DFF2DB1194820498D
:102DB00003F008FF052211E094B1B8F1000F05D12E
:102DC00014481C4903F0FEFE022207E0B8F1010F8F
:102DD00006D11048184903F0F5FE03220F4B1A7074
:102DE0000F480021022202F0C5F934462046BDE812
:102DF000F08100BFB2130020C6130020C4130020CE
:102E0000C5130020A0130020B4130020E0130020FD
:102E10009B130020E8130020AAAB0008E513002054
:102E2000E4130020E3AB00081DAC000850AC000820
:102E300083AC0008AEAC0008E4AC000870B51F4DD0
:102E40000C462B781646002B35D000232B701C4DDA
:102E5000FFF736FF0E231B4802210A222B7001F0D8
:102E600051FE24B91849194803F0ACFE21E0012CA9
:102E700008D11749154803F0A5FE31461548FFF75C
:102E800010F916E0023C012C13D813490F4803F047
:102E900099FE1048FFF77DF8044650B90F490B48DA
:102EA00003F090FE0A230E48214602222B7002F006
:102EB00061F9012070BD184670BD00BF8D13002060
:102EC000E5130020E013002019AD0008E8130020EE
:102ED00043AD00089B1300206FAD00089AAD0008B9
:102EE000E41300200000000030B58DB001AD0021DA
:102EF0002C22284605F0BEFD02F0D6FE0024062056
:102F000004F038F8285104342C2CF8D10B226B46ED
:102F10000AACA34207D053F8040F5968884284BF13
:102F200058601960F5E7013A12F0FF02EFD10798F7
:102F300004F0B2FB08A3D3E9002304F023FC002231
:102F4000074B04F01FFC0022064B04F069FA04F062
:102F5000DBFE0DB030BD00BF0000000000C8E93F3F
:102F6000000034400000E03F2DE9F8439846244B30
:102F70000E461B78144613B10020BDE8F883214BA0
:102F80001A78002AF8D1204D2B682F46022BF3D94E
:102F90001E4B01221A70FFF7A7FF64281C4A2BD88A
:102FA00013680BB93B68136039681368033399429F
:102FB000E2D3174B00251D605CB1012C17D11549D8
:102FC000154803F0FFFD154B357020461C70BDE819
:102FD000F8831148124903F0F5FDB8F1000F01D153
:102FE000642333700D4B01201870BDE8F8830D4940
:102FF000094803F0E7FDBFE72B681360BCE700BF9B
:10300000A8130020B1130020B4130020B213002035
:10301000AC130020F3AD0008E8130020BA13002021
:10302000CCAD00081CAE0008032BF8B505460C46D5
:1030300017462FD0022B2DD0FFF756FF06463846F5
:1030400004F088FF214604F0D5FE0446304604F023
:1030500081FF214605F092F908B90020F8BD284605
:10306000FFF742FF04F076FF214605F087F90A4C8E
:1030700070B123780133DBB223702378632BECD952
:103080000649074803F09EFD002323700120F8BD88
:103090002070F8BD1846F8BDC71300202FAE0008F9
:1030A000E813002038B504462548007880B9254843
:1030B000007868B924480568032D054608D92348D7
:1030C000007838B92248007820B92248007808B939
:1030D000002038BD2046FFF7A7FF03282ED801A304
:1030E00053F820F0D1300008F53000081D310008F9
:1030F000D13000082046FFF7E3FD174B06221A7077
:1031000016480021022202F035F8154802210A2251
:1031100001F0F8FC00232B60012038BD0E4C237811
:103120000A2BD5D00F49104803F04CFD0A230B4859
:1031300000210222237002F01DF8C9E738BD00BF4C
:10314000A8130020B1130020B4130020C6130020E0
:10315000C4130020C5130020E5130020E413002051
:10316000E013002051AE0008E8130020F8B5054632
:1031700002F09AFD2A4B1A781E46002A4FD1294B9D
:10318000294C1A781F462AB9284B1B7803F0FF02F6
:10319000002B43D01F2003F0FBFE00B9387026201F
:1031A00003F0F6FE08B9214B18702846FFF79CFE85
:1031B000632805D8236864200133236001F004FEEE
:1031C000226844F24F639A4229D91F2003F07CFE03
:1031D000262003F079FE144B00221A6014490123C3
:1031E0001448337003F0EEFC1348FFF74DF8134C0E
:1031F000054650B912490F4803F0E4FC0A23114870
:1032000029460222237001F0B5FF102323700D48D8
:1032100000210222BDE8F84001F0ACBF2260F8BDF9
:10322000B0130020A8130020A4130020B113002025
:1032300085AE0008E81300209B130020E513002052
:103240009BAE0008E41300202DE9F74388460546AD
:1032500014461E46FFF734FD02F026FD01F0FAFA8F
:10326000524B01221A70524F524A00234FF47A7087
:103270003B60B946136001F0A7FD02F015FD1EB1D9
:1032800024B14D48012103E0002CFAD04A48002126
:10329000FFF7AAFC4FF47A7001F096FD02F004FDEE
:1032A00001F0DEFA01F0B2FA05E03B68C9F800303F
:1032B0003B68072B1BD802F0F7FC2846FFF714FEEB
:1032C00063283E4FF1D8D9F8003013B93A68384B2B
:1032D0001A603A68D9F8003003339A42EBD3344B82
:1032E0000024374937481C6003F06CFC36E0284660
:1032F000FFF7E6FC4FF47A7001F066FD02F0D4FCB3
:103300001EB124B12C48002103E0002CFAD02A4839
:103310000121FFF769FC02F0C7FC01F0A1FA01F0FE
:1033200075FA4FF47A7001F04FFD11E0C4B100223C
:1033300041460092019228461346FFF715FE0146CA
:1033400050B92846FFF7D6FC40B93B68092B03D893
:1033500002F0AAFC5EB1E9E7012023E0002021E0B1
:1033600000940194284641460122234606E064B1B8
:10337000009601962846414601223346FFF7F4FDA8
:103380000028E9D128460121DCE700940194284671
:10339000414622462346FFF7E7FD0028DCD12846B8
:1033A0002146CFE703B0BDE8F08300BFC61300207D
:1033B000C0130020AC130020A9130020B413002078
:1033C000CFAE0008E81300202DE9F04F634B002535
:1033D0000126DFF8BC91DFF8BCA187B08B461D70D9
:1033E00031460723022204465D488AF800308DF8F2
:1033F0000F5089F8006001F0BDFE5A4803210522F4
:1034000001F080FBBBF1F00F10D15749574803F092
:10341000D9FB04A905AA33462046FFF715FC31461F
:1034200080465348FFF7E0FB2F4616E0BBF1F10F53
:1034300012D150494D4803F0C5FB2B4604A905AAFB
:103440002046FFF701FC37462946804648482E466D
:10345000FFF7CAFB3D4600E02E4601F001FA01F0FD
:10346000D5F902F021FCD5B1002200920192134659
:1034700020460DF10F01FFF777FD024610BB2046F5
:103480000221FFF7DBFC08B1012064E0204604992B
:10349000059A4346FFF706FE80B100205BE06EB15F
:1034A0000095019520460DF10F0101222B46FFF7F3
:1034B0005BFD38B9204603212A46E2E72E48FDF796
:1034C00027FBCEE720460DF10F013A460123FFF717
:1034D000BBFE30B32949254803F074FB2046FFF7B3
:1034E000EFFB9DF80F102648FEF7DBFD9DF80F104F
:1034F0002348FEF727FE01249DF80F102048FEF711
:1035000072FE2146164802228AF8004001F032FE7F
:103510000023144802210A2289F8003001F0F2FA4F
:10352000B2E71248174903F04DFB012389F8003038
:1035300002F0BAFB144B01211970144B19700EB133
:10354000204603E0002DF3D020463146FFF7D2FBA2
:103550000028EDD0A1E707B0BDE8F08F8D13002063
:10356000E4130020E013002009AF0008E813002056
:10357000A913002018AF00088E13002026AF000802
:103580009B1300203EAF0008B2130020A0130020C0
:10359000C5130020E5130020464B2DE9F0411A78B1
:1035A00005461E46444C12B9444B1B783BB102F011
:1035B0007BFB4348FEF7E4FC08B1237853B1237842
:1035C000002B74D03F4A1378904603F0FF07002B7E
:1035D0006DD114E03B4B1B78002BF0D101F016F9B4
:1035E000354B01221A70337813B1374B1A70E6E766
:1035F000324A1278002AE2D0334A1370DFE7334CA4
:1036000028462368264601332360FFF76DFC6328B4
:103610004DD80A2001F0D8FB2846FFF765FC632847
:1036200045D8254B1F7033680A2B3BD92448FEF739
:1036300016FD274B64241B685C43234BB4FBF0F05E
:103640001B78C4B21E484BB1FEF75EFD2044C4B2E5
:10365000642C28BF64241F481F4908E0FEF754FD6E
:10366000001BC4B2652C1B481C4928BF002403F072
:1036700098FA0A222146174803F030FB21461048E9
:10368000FEF70FFD21460E48FEF75CFD21460C4873
:10369000FEF7A9FD124B0F221A70124800210122D9
:1036A00001F068FD00233360012388F8003000201A
:1036B000BDE8F081A81300209E130020B113002064
:1036C0009B130020B8130020B9130020BC13002066
:1036D000B4130020E81300205AAF000876AF0008AA
:1036E000E5130020E413002030B597B000212C2210
:1036F00068460BAD05F0BEF900212C22284605F0E6
:10370000B9F902F0D1FA0024042003F033FC4DF89B
:103710000400052003F02EFC285104342C2CF3D196
:103720000B22ADF1040309ACA34207D053F8040FF8
:103730005968884284BF58601960F5E7013A12F071
:10374000FF02EED10B220AAB14ACA34207D053F810
:10375000040F5968884284BF58601960F5E7013A40
:1037600012F0FF02EFD1069803F096FF10A3D3E901
:10377000002304F007F800220F4B04F003F804467E
:1037800011980D4603F088FF09A3D3E9002303F045
:10379000F9FF0022084B03F0F5FF02460B462046D6
:1037A000294603F03BFE04F087FA17B030BD00BF96
:1037B0000000000000C8E93F00002640AFF3008091
:1037C000F8B51C46114B0D461B6816469B07069F15
:1037D0001BD10F4B1B7803B9F8BDFFF785FF2060A5
:1037E0002B6801332B602368002B01DA5B422360D6
:1037F000236843F2B062934203DD326813443360BE
:10380000F8BD3B6801333B60F8BDF8BDB413002040
:103810009F1300202DE9F843089F0C6899463B68E8
:103820008846E41A13681646B3FBF4F414602CB906
:103830001348144903F0C6F925461EE012482146F4
:10384000FEF7E5FE054640B9104B0A221A701048F3
:103850002946022201F08EFC0FE00E49084803F0D1
:10386000A0F9074821460A2203F04BFA00203060F5
:10387000C8F80000C9F8000038602846BDE8F883A1
:10388000E813002094AF00089B130020E5130020EC
:10389000E4130020AFAF00082DE9F34105460C46C4
:1038A000174602F001FA2846FFF71EFF01A9051E80
:1038B0005948BABF6D424FF001084FF00008FEF7BB
:1038C000F4FE019E42F21073AE1B46BF7642002505
:1038D00001259E4204DD5149514803F073F984E00B
:1038E000B6F5FA7FC0F281804D484E4903F059F990
:1038F0002046B8F1000F27D06DB1B6F57A6F3EDAE9
:1039000003F0CAFE044630460D4603F0D5FE38A348
:10391000D3E9002326E0B6F57A6F0ADB03F0BCFE9C
:10392000044630460D4603F0C7FE33A3D3E9002317
:1039300047E003F0B1FE044630460D4603F0BCFEFE
:103940004FF03332384B3CE025B3B6F57A6F16DBD7
:1039500003F0A2FE044630460D4603F0ADFE28A358
:10396000D3E9002303F00EFF0022304B04F034F8BB
:1039700002460B462046294603F050FD2DE003F099
:103980008BFE044630460D4603F096FE1EA3D3E997
:103990000023E7E7B6F57A6F09DB03F07DFE044606
:1039A00030460D4603F088FE0022214B09E003F06B
:1039B00073FE044630460D4603F07EFE14A3D3E9A1
:1039C000002303F0DFFE0022184B04F005F8024646
:1039D0000B462046294603F023FD04F095F9386094
:1039E00039680F480A2203F08CF902B0BDE8F08173
:1039F000CDCCCCCCCCCCEC3F9A9999999999F93F04
:103A0000676666666666E63F9A9999999999E93F6D
:103A10009A9999999999F13F9B130020D2AF000888
:103A2000E8130020FDAF00083333F33F00407F4030
:103A30000000F83FAFF300802DE9F04F00258FB074
:103A40000646A3488DF82B500B95FEF7D6FD049043
:103A500002F02AF99E48FEF793FA0446002800F087
:103A600028829B48FEF750FB80469948FEF79DFB55
:103A7000984B8DF82B0096481D70FEF7F0FA4FF624
:103A8000FF7383469B45944815D1944903F09AF8F7
:103A90008F48FEF7F9FB044600284CD190498E4828
:103AA00003F090F88F4B0A221A708F4821460222A9
:103AB00001F060FB51E28D4903F073F80A224146A0
:103AC000854803F00BF98A49834803F06AF80A2213
:103AD0009DF82B10804803F001F986497E4803F0D9
:103AE00060F859460A227C4803F00BF902F0DCF832
:103AF000B8F1640F7B4F06D89DF82B30642B02D8A9
:103B0000BBF5F07F19D97C49734803F05BF80A23B1
:103B10007548002102223B7001F02CFB6C48FEF737
:103B200038FA04466A48FEF7AFFB04B118B96A4890
:103B3000724903F047F800240FE207236A48012185
:103B400002223B7001F016FB02F0AEF86C4B4FF016
:103B5000010A83F800A06B4B1D706B4B1D609DF834
:103B60002B3043450FD898450FD8434510D13046E8
:103B7000FFF7A6F85C485146022287F800A0544699
:103B800001F0F8FAE9E12F4604E05746AA4601E0C1
:103B90002F46AA4602F088F8BAF1000F0AD09DF825
:103BA0002B303046C8EB03035FFA83F90CA90DAA4A
:103BB00000230AE06FB19DF82B303046C3EB0803B9
:103BC0005FFA83F90CA90DAA0123FFF73DF80590D0
:103BD00000E0B946484603F06FFD3BA3D3E900235C
:103BE00003F0D0FD044658460D4603F055FD02464D
:103BF0000B462046294603F0C5FD0022434B03F047
:103C00000FFC04F081F8424906900B90324802F014
:103C1000C8FF06990A22304803F073F802F044F80E
:103C2000BAF1000F06D03B480021FEF7DDFF01206E
:103C3000079006E02FB137480121FEF7D5FFCDF8F8
:103C40001CA0032134480A2200F05CFF00F008FEAB
:103C500000F0DCFD04990A234B43002509930895E5
:103C600004952C4602F020F89DF82B30013B622B86
:103C70000DD82A4B1A680B9B9A4208D3164828493C
:103C800002F0A0FFBAF1000F00F00781F6E0BAF1F0
:103C9000000F10D00B9B0DF12B010193CDF800907C
:103CA000304600220123FFF75FF90146002840F06B
:103CB000E580304651E0AFBB184B04981A68824249
:103CC00061D8CBE0AFF300807B14AE47E17A843F4C
:103CD0009B130020A0130020E813002034B000083C
:103CE0009BAE0008E5130020E413002062B000083A
:103CF00080B00008A0B00008C1B00008EAB0000819
:103D0000C41300208D130020AC1300200000E03FFE
:103D10001AB10008A9130020E0130020B4130020FA
:103D200048B100080B9B01220193CDF8009030466A
:103D30000DF12B011346FFF717F960B189498A4845
:103D400002F02FFF894B884819680A2202F0D9FF38
:103D5000854887499EE030460121FEF7CBFF0028C9
:103D60007FF4E9AE304601212246FFF767F808B13B
:103D70000124F2E030460C990D9A059BFFF792F969
:103D8000002899D0D7E6196801350491EDB2BAF14F
:103D9000000F25D0039301F087FF039B186804F000
:103DA000D9F80446584604F0D5F80146204604F0F8
:103DB000DDF9704904F026F90446404604F0CEF8D7
:103DC0000146204604F016F804F0E2FA0A23C4B2D1
:103DD000B4FBF3F203FB124313F0FF0F2ED02BE0E2
:103DE000002F33D0039301F05FFF039B40461B6815
:103DF000039304F0B3F8039B0446184604F0AAF8B2
:103E000003465846039304F0A5F8039B0146184661
:103E100004F0ACF9574904F0F5F80146204603F0E8
:103E2000E7FF04F0B5FA0A23C4B2B4FBF3F203FBD4
:103E30001243DBB2012B01D1013CE4B221464E48D2
:103E4000FEF7D1F94C482146FEF72BF9022D05D992
:103E5000304606990BAAFFF71FFD0025434B099832
:103E60001A68B2FBF0F100FB112119B91A68089821
:103E7000824227D14148FCF74BFEF3E640493A48DD
:103E800002F08FFE394B384819680A2202F039FFD8
:103E900035483C4902F096FE02E0002F7FF44EAF19
:103EA0009DF82B30ABB1642B13D0374B1B7883B903
:103EB00037E036492C4802F085FE35492A4802F0A1
:103EC00081FE4AE01B6833480122089301F052F951
:103ED000D0E730460DF12B01079A0123FFF7B4F923
:103EE00020B12D49204802F06DFE1AE01E482B49F2
:103EF00002F068FE2A4B01221A7001F0D5FE294B10
:103F000001211970284B19700FB1304604E0BAF145
:103F1000000FF2D030463946FEF7ECFE0028ECD018
:103F200009E63046FEF7CCFE01F0BEFE9DF82B10F0
:103F30001148FEF7B6F89DF82B100F48FEF753F91D
:103F400001241A4B1348214602221C7001F012F979
:103F5000174802210A2200F0D5FD20460FB0BDE827
:103F6000F08F00BF63B10008E8130020B4130020F5
:103F700088B100080000C8429B1300208E13002067
:103F8000AFB10008D6B10008BA13002036B200085D
:103F900059B20008E4130020FEB1000818B200086E
:103FA000C4130020B2130020A0130020E51300204A
:103FB000E0130020AFF3008070B5064601F074FEF8
:103FC0002C48FEF7F2F82C4905462C4802F0E9FD92
:103FD0000A222946294802F081FE2648FEF736F9D2
:103FE00027490446254802F0DCFD0A2223482146E1
:103FF00002F074FE0A23B4FBF3F203FB124313F046
:10400000FF0F08D0AC4203D9631B052B2ADD04E067
:104010002B1B052B26DDAC422AD021461548FEF786
:1040200040F829461348FEF78DF8262002F04CFF91
:104030001F2002F049FF0021102002F0BFFF304690
:10404000FFF7FAFC1F200F49022202F01FFF262073
:104050000D49022202F01AFFBDE870401020012134
:1040600002F0ACBF05480949BDE8704002F0AABDA6
:1040700070BD00BF9B130020A4B20008E81300200D
:10408000C9B20008F9290008A52A0008EFB2000803
:1040900038B5264B05461A78002A45D00022244818
:1040A00024491A7002F08EFD234B1B7813B120486F
:1040B000224935E0224C2378FBB9224B1B78E3B927
:1040C000262002F001FF1F2002F0FEFE002110203A
:1040D00002F074FF2846FFF7AFFC1F201A490222A6
:1040E00002F0D4FE26201949022202F0CFFEBDE8DC
:1040F00038401020012102F061BF1F2002F048FF6C
:1041000000B92070262002F043FF08B90D4A107054
:1041100023781BB90B4B1B78002BD1D004480C49DA
:10412000BDE8384002F04EBD38BD00BFBA130020D4
:10413000E813002017B30008B013002006A30008FE
:10414000A8130020B1130020F9290008A52A0008AF
:10415000E9A40008F8B51F460F4B15461B680C462E
:1041600013F00302069E16D10C4B197801B9F8BD65
:104170001A70FEF7B9FE38602368013323603B688C
:10418000B3F5967F03D92A6813442B60F8BD3368D2
:1041900001333360F8BDF8BDB41300209F13002035
:1041A0002DE9FF4799469DF834301446012B4FF016
:1041B00000020E460C9F039220D103A96048FEF72F
:1041C000FAFA039B40F6B732591E914288BF4FF46A
:1041D000487323605A482168FEF717FB05460028FC
:1041E00067D15849584802F0EDFC584B0A221A7022
:1041F00057482946022200F0BDFF8EE03A680D685C
:10420000AD1A2268B2FBF5F525602DB94E4851492B
:1042100002F0D8FC28468FE0002B40F0818048480F
:104220002946FEF76CFA80464748B8F1000F0BD1DB
:10423000494902F0C7FC454B0A221A7044484146DE
:10424000022200F097FF32E0444902F0AAFC0A2261
:1042500021683D4802F055FD3948FEF7BCF903F0EE
:104260002BFA00223E4B03F0B7FB03F06DFD3D49F6
:104270000546354802F095FC284603F02FFA4FF02A
:10428000020A02460B46CDF800A02F4802F0F0FDCE
:10429000206803F05FFE294603F0B4FE03F01EFA27
:1042A000CDF800A002460B46274802F0E1FD0125AB
:1042B00038E02D49244802F074FC0A222168224883
:1042C00002F01FFD1E48FEF786F903F0F5F9002203
:1042D000234B03F081FB03F037FD224980461A4847
:1042E00002F05FFC404603F0F9F94FF0020A024683
:1042F0000B46CDF800A0144802F0BAFD206803F088
:1043000029FE414603F07EFE03F0E8F9CDF800A057
:1043100002460B460C4802F0ABFD4FF0010801E0ED
:104320000125A84600239845236014BF2846184657
:104330003360C9F800303B6004B0BDE8F08700BFCF
:104340009B130020C8B30008E8130020E5130020E9
:10435000E413002039B3000854B3000894B30008F4
:1043600000002440B1B300080AB400082DE9F04F62
:104370009B498FB000269B4D04469B488DF80F60EB
:1043800004960696079608960A960B9602F01AFC73
:104390000B239648012102222B7000F0EBFE01F066
:1043A00083FC934B93481E70934BAA461E60FDF707
:1043B000F0FD074630B98C48904902F003FC0A230F
:1043C0002B705AE0DFF860828D480321142201250A
:1043D00088F8005000F096FB0CA90DAA3346204641
:1043E000FEF732FC81468348FDF7DFFE59284AD9A3
:1043F0008048FDF7DAFE642840F2938143E0814B68
:104400001A68D20702D51A6801321A60D3F80090F0
:1044100020460DF10F0132460023FEF715FF00285C
:1044200000F069817849704802F0CCFB2046FEF725
:1044300047FC07AB0093204605AB06A904AAFFF78B
:10444000E9F90BAB0093002D00F0278100230193C5
:104450000AA908AA09AB2046FFF7A2FE654849460B
:10446000FDF7B1FD07466048002F40F0188167490D
:1044700002F0A8FB0A238AF800305C483946022281
:1044800000F078FE52E162480021FEF7ADFB002506
:10449000012600F0BBF900F0E3F901F005FC8DB155
:1044A00000230093019320460DF10F010122FEF736
:1044B0005BFD00282FD120460121FEF71BFC70B1C7
:1044C000002733E10095019520460DF10F012A46A2
:1044D0002B46FEF749FDF0B920462946EDE7204678
:1044E0000C990D9A4B46FEF7DDFD0028E8D100211E
:1044F00020460A46FEF7A2FC002840F017810BABCD
:10450000009320460AA908AA09ABFFF723FE4148F9
:10451000FCF7FEFAC1E720460DF10F0132460123F8
:10452000FEF792FE60B338492F4802F04BFB20465D
:10453000FEF7C6FB0BAB009315B10123019300E01E
:10454000019508AA09AB0AA92046FFF729FE4FF0FA
:1045500001093149244888F8009002F033FB4FF4F8
:104560007A7000F031FC01F09FFB20460CA90DAAE7
:104570004B46FEF769FB83462548BDB1002116E096
:104580001948264902F01EFB012388F8003001F08B
:104590008BFB234B01211970224B2046197005B962
:1045A0002946FEF7A7FB0028F1D089E74946FEF728
:1045B0001BFB00F02BF900F053F901F075FBADB3D4
:1045C00000220DF10F010092019220461346FEF7E2
:1045D000CBFC014600287FF412AF204634E000BF38
:1045E00029B40008E5130020E8130020E41300209C
:1045F0008D1300209B130020AC13002054B400083E
:10460000E0130020B413002089B40008E0B40008CF
:10461000A91300208E130020B3B400089CB4000836
:10462000B2130020A0130020C613002000950195AE
:1046300020460DF10F0101222B46FEF795FC0028C4
:104640007FF4DDAE20460121FEF754FB00287FF405
:1046500037AF20460C990D9A5B46FEF723FD0028E4
:104660007FF42EAF002120460A46FEF7E7FB002824
:104670005CD107AB0093204606A904AA05ABFFF75F
:104680009FF80BAB009320460AA908AA09ABFFF7D5
:1046900061FD2848FCF73CFA8FE70123D7E626495D
:1046A00002F07FFA0A224946244802F02AFB2449F4
:1046B000224802F087FA9DF80F102248FDF7F1FC1E
:1046C0009DF80F101F48FDF73DFD9DF80F101D4888
:1046D000FDF789FD1B48FDF738FC0C231A48012122
:1046E00002228AF8003000F045FD184802210A2213
:1046F00000F008FA1AE01148154902F063FA0123A4
:1047000088F8003001F0D0FA124B01211970124BD9
:104710002046197005B10021FEF7ECFA0028F1D00F
:10472000CEE60E482946FEF75FFAB2E638460FB0ED
:10473000BDE8F08F8E1300200FB50008E8130020AD
:1047400039B500089B130020E4130020E01300207B
:104750009CB40008B2130020A0130020A91300206D
:104760000148112100F0A9BEC8130020034B1A68AC
:1047700001321A60024B01221A707047B4130020F4
:104780009F130020064B1A6801321A601A68B2F5AE
:10479000615F04D300221A60024B01221A70704735
:1047A000CC130020D113002010B5094C0949204634
:1047B00002F07DF920460121074A02F097F92046D0
:1047C000002102F06BF92046BDE8104002F050B91C
:1047D000E014002040420F006D47000810B5084C5F
:1047E0000849204602F063F920460121064A02F0FA
:1047F0007DF920460021BDE8104002F04FB900BF0E
:10480000E414002040420F008547000810B5074B14
:104810000021074C1960074B2046197002F03EF941
:104820002046BDE8104002F02BB900BFB4130020B1
:10483000E01400209F13002010B5054C204602F024
:104840001FF920460021BDE8104002F027B900BF43
:10485000E4140020014802F00BB900BFE01400206E
:10486000014802F005B900BFE4140020014800210E
:10487000FCF77EBD901300201FB5304801A9FDF75D
:10488000F1F92F4CC0B92F492F4802F09BF92F485E
:1048900000F002FC2E48FCF73BF940F6B83002F07D
:1048A000B9FB01F001FA23780133DBB2322B23701C
:1048B000E3D901F02DFAE0E7002323702548FDF746
:1048C0008FFDC0B92449204802F07CF91F4800F050
:1048D00075FB1F48FCF71CF940F6B83002F09AFB54
:1048E00001F0E2F923780133DBB2322B2370E5D9F2
:1048F00001F00EFAE2E7002323701648FDF7F1FD00
:10490000C0B91649104802F05DF9104800F0C4FB28
:104910000F48FCF7FDF840F6B83002F07BFB01F0E1
:10492000C3F923780133DBB2322B2370E5D901F0D0
:10493000EFF9E2E70023237004B010BD9D130020BF
:10494000D013002068B50008E8130020E41300200D
:104950008E1300209B130020B6B500080EB6000889
:1049600008B50F4B1A78CAB100221A70FFF778FF0A
:104970000C480121052200F0C5F8FFF777FFFFF78B
:104980007BFFFFF759FF074802210A2200F0BAF81F
:10499000BDE808400448054902F014B908BD00BF4D
:1049A000D1130020E0130020E813002064B60008B3
:1049B000002330B5054618468B420FDAEA5C5040BA
:1049C000082210F0010F4FEA60041ABF84F0E000E3
:1049D000C0B2E0B2013AF4D10133EDE730BD0000DE
:1049E00008B52A4B2A491A68096801328A421A60B6
:1049F0004AD300221A60274A1378DB43DBB21370D4
:104A0000254A1278032A3FD8DFE802F00B29021C5E
:104A100022200BB9012100E0002102F0CFFA23206F
:104A200007E023200BB9012100E0002102F0C6FAC3
:104A30002220002102F0C2FA2020002102F0BEFA5A
:104A400021201CE020200BB9012100E0002102F010
:104A5000B5FA2220002102F0B1FA2320EDE721204F
:104A60000BB9012100E0002102F0A8FA2220002168
:104A700002F0A4FA2320002102F0A0FA2020002155
:104A8000BDE8084002F09ABA08BD00BFD413002068
:104A9000DC130020D8130020D913002008B52520EE
:104AA000002102F025FA2220002102F021FA232021
:104AB000002102F01DFA2020002102F019FA212025
:104AC000002102F015FA2820022102F011FA272015
:104AD000022102F00DFA2220002102F06FFA2020BC
:104AE000002102F06BFA2320002102F067FA212056
:104AF000002102F063FABDE808402520012102F000
:104B00005DBA000010B50A4B0A4C19700A4B2046DA
:104B10000A491A6001F0CBFF20460121084A01F042
:104B2000E5FF20460021BDE8104001F0B7BF00BFFF
:104B3000D9130020E8140020DC130020A086010017
:104B4000E149000808B50A4801F092FF222000213F
:104B500002F034FA2020002102F030FA2320002154
:104B600002F02CFABDE808402120002102F026BA0C
:104B7000E8140020014801F083BF00BFE8140020C2
:104B800038B50D460024AC4210D00021252002F09B
:104B900015FA4FF4FA7002F04BFA2520012102F0C9
:104BA0000DFAC82002F044FA0134ECE738BD08B52C
:104BB0001620002102F09CF91720002102F098F93C
:104BC0001620012102F0FAF9BDE808401720012162
:104BD00002F0F4B91720002102F08AB9172004214D
:104BE00002F086B908B5FFF7F5FF1720012102F0A2
:104BF000E5F90121162002F0E1F9052002F018FA8A
:104C00000021172002F0DAF9062002F011FABDE8BF
:104C100008401620002102F0D1B908B5FFF7DAFFED
:104C20001620002102F0CAF91720002102F0C6F96F
:104C30000121162002F0C2F9062002F0F9F917202E
:104C4000012102F0BBF9BDE80840062002F0F0B9EE
:104C500010B500210446162002F0B0F92046FFF7F7
:104C6000B9FF0021172002F0A9F9022002F0E0F9B3
:104C70000121162002F0A2F9052002F0D9F9BDE8C1
:104C800010401620002102F099B910B50021044609
:104C9000162002F093F92046FFF79CFF0121172010
:104CA00002F08CF9022002F0C3F90121162002F073
:104CB00085F9052002F0BCF9BDE81040162000215E
:104CC00002F07CB970B50646FFF788FF0121172076
:104CD00002F074F9012002F0ABF91620012102F074
:104CE0006DF9012002F0A4F9FB25172002F050F91C
:104CF000044640B1013D15F0FF05F6D13046FFF7FF
:104D00008CFF012070BD1620214602F057F9204685
:104D100070BD38B50C46FFF75DFF1620002102F08C
:104D20004DF9082524F07F0303F0FF01172003B19C
:104D3000012102F043F90121162002F03FF902207F
:104D400002F076F91620002102F038F9013D022028
:104D5000640002F06DF915F0FF05E4B2E2D138BD50
:104D6000F8B505460F46FFF739FF08260024002155
:104D7000162002F023F9022002F05AF91620012130
:104D800002F01CF964001720E4B202F001F908B146
:104D90000134E4B20120013E02F04AF916F0FF06A8
:104DA000E5D1284617B9FFF770FF01E0FFF750FF84
:104DB0002046F8BD01F00F03090901EB810103EB67
:104DC0004100C0B270470000074A30B5136815466D
:104DD0002C6819188C42044A04D81168994238BFCB
:104DE0001368F5E730BD00BF8415002037B50C46C9
:104DF0000C480DF10701FCF794FE9DF807304FF4C5
:104E00007A705843084902F0FAF89DF807300546D1
:104E100064205843054902F0F2F82844206003B0AA
:104E200030BD00BF9D13002060E31600400D03005D
:104E300070B50E4615460024E3B2AB42074809D2CE
:104E4000315D102201F041FF0448054901F0A9FE3F
:104E50000134F1E7BDE8704001F0A8BEE81300207E
:104E600027B4000830B595B040220546002104A8BB
:104E700003F000FE002314A941F8503D284669467E
:104E8000FFF7B4FF009802F0D3F800F00DFFFE2307
:104E90008DF81030E0238DF8113011238DF8123089
:104EA00024238DF81330C0238DF8143001238DF89E
:104EB00015303B4B1B7803B155233A488DF816301B
:104EC000FDF70CFB01AC8DF8170021463548FDF7C6
:104ED00060FA002304AA1A44E15C0133052B117225
:104EE000F8D131482146FCF7C4FD002304AA1A4436
:104EF000E15C0133092B5173F8D10024012305A88B
:104F000024218DF826308DF827408DF828408DF823
:104F100029408DF82A408DF82B408DF82C408DF8D3
:104F20002D408DF82E408DF82F408DF830408DF8B3
:104F300031408DF832408DF833408DF834408DF893
:104F400035408DF836408DF83740FFF731FD8DF84C
:104F50003800E30704AB234404F1010454BF0D22DD
:104F60000A22062C83F82920F3D11049104801F0B9
:104F700029FE04A928462F22FFF75AFF0D48FFF704
:104F8000E1FD0D4804A903682F229B689847C820BB
:104F900002F040F80748FFF7EDFD15B030BD00BF47
:104FA0008C1300209B1300209D1300209CB600084A
:104FB000E8130020E01300200014002010B586B094
:104FC00014220446002101A803F054FD002306A981
:104FD00041F8183D20466946FFF708FF009802F0A7
:104FE00027F800F061FEFE238DF80430E0238DF8F1
:104FF000053012238DF8063005238DF80730C023C5
:105000008DF8083001238DF809301D4B1B7803B152
:1050100055231C488DF80A30FDF760FA01238DF8FE
:105020000B00052102A88DF80C30FFF7C1FC00230E
:105030008DF80D00DA0701AA1A4403F1010354BFE9
:105040000D210A21062B9172F4D10F490F4801F06E
:10505000B9FD01A920461022FFF7EAFE0C48FFF730
:1050600071FD0C4801A9036810229B689847C8206D
:1050700001F0D0FF0648FFF77DFD06B010BD00BF70
:105080008C1300209B130020B8B60008E813002002
:10509000E01300200014002010B586B0142204464E
:1050A000002101A803F0E6FC002306A941F8183D01
:1050B00020466946FFF79AFE009801F0B9FF00F01C
:1050C000F3FDFE238DF80430E0238DF80530132323
:1050D0008DF8063005238DF80730C0238DF8083091
:1050E00001238DF809301D4B1B7803B155231C4853
:1050F0008DF80A30FDF7F2F901238DF80B00052138
:1051000002A88DF80C30FFF753FC00238DF80D003A
:10511000DA0701AA1A4403F1010354BF0D210A2141
:10512000062B9172F4D10F490F4801F04BFD01A9F4
:1051300020461022FFF77CFE0C48FFF703FD0C48C9
:1051400001A9036810229B689847C82001F062FFFC
:105150000648FFF70FFD06B010BD00BF8C130020FE
:105160009B130020B8B60008E8130020E0130020CD
:105170000014002070B592B00C460546164602A8F1
:105180000021402203F076FC0023019300F08CFD07
:1051900034B1284601A9FFF729FE019801F048FF24
:1051A00000F082FDFE238DF80830E0238DF80930F1
:1051B00014238DF80A301A238DF80B30C0238DF894
:1051C0000C3001238DF80D304B4B1B7803B1552368
:1051D0004A488DF80E30FDF781F901238DF8103023
:1051E000474B8DF80F001B7846488DF81130FEF7BD
:1051F0007BFA454C0028B8BF4042031221788DF855
:10520000130042488DF81230FFF7D4FD61788DF815
:1052100014003E48FFF7CEFD8DF815003748FDF726
:1052200015F88DF816003548FDF7C3F900248DF800
:10523000180032488DF81740FDF7CDF98DF81A00A7
:1052400030488DF81940FDF74FFE030A8DF81C0019
:105250002A488DF81B30FDF7D0F901462B48FFF79F
:10526000A9FD8DF81D002A48FCF7B6FD14238DF822
:105270001E008DF81F3003A853231A218DF820300B
:105280008DF821408DF822408DF823408DF8244080
:105290008DF82540FFF78CFB8DF82600E30702AB65
:1052A000234404F1010454BF0D220A22062CDA77AC
:1052B000F4D11849184801F085FC284602A9252296
:1052C000FFF7B6FD0024E3B2B34212D200F0ECFCCB
:1052D0001248FFF737FC124802A9036825229B6891
:1052E0009847104801F0A4FE0C48FFF743FC013436
:1052F000E9E712B070BD00BF8C1300209B130020A3
:10530000E5130020A9130020E2130020E113002080
:105310009A130020DEB60008E8130020E0130020F6
:1053200000140020400D03002DE9F0418AB005462D
:10533000884617460021192203A803F09BFB00268C
:105340000AA941F8206D2846404CFFF74FFD02980E
:1053500001F06EFE00F0A8FC23780BB1637833B93E
:1053600000963B48394901223A4BFBF78BFEFE235E
:105370008DF80C30E0238DF80D3015238DF80E30AC
:105380000E238DF80F30C0238DF8103001238DF8D7
:105390001130314B1B7803B1552330488DF8123052
:1053A000FDF79CF8012321788DF813002C488DF827
:1053B00014308DF81580FFF7FDFC61788DF816002C
:1053C0002748FFF7F7FC00248DF817000E2104A8EA
:1053D0008DF818408DF819408DF81A408DF81B4053
:1053E0008DF81C408DF81D40FFF7E2FA8DF81E0085
:1053F000E30703AB234404F1010454BF0D220A2246
:10540000062CDA74F4D11749174801F0DBFB284663
:1054100003A91922FFF70CFD1448FFF793FB0024A2
:10542000E3B2BB420CD200F03FFC114803A9036871
:1054300019229B689847C82001F0ECFD0134EFE782
:105440000A48FFF797FB0AB0BDE8F081E21300209D
:1054500090130020F8B600088C1300209B13002046
:10546000E113002002B70008E8130020E013002039
:1054700000140020122938B50546144608460BD002
:10548000132910D0112916D100F06CF80CB1204668
:105490000FE047F6FF700CE000F064F8002CF6D146
:1054A00049F63F4005E000F05DF8002CEFD14FF2E7
:1054B000234000F0DFF8284638BD13B5002204462B
:1054C00001A8FFF7D7FF204602B010BD054B1B68AF
:1054D0001B685B0103F1844394331A68002AFCD0F3
:1054E000704700BF0C000020054B1B681B685B0168
:1054F00003F184438C331A68002AFCD0704700BF44
:105500000C00002008B5FFF7E1FF054B00221B68E7
:105510001B685B0103F18443C3F88C2008BD00BF06
:105520000C00002008B5FFF7D1FF054B01221B68D6
:105530001B685B0103F18443C3F8902008BD00BFE2
:105540000C00002008B5FFF7C1FF054B00221B68C7
:105550001B685B0103F18443C3F8902008BD00BFC2
:105560000C00002010B5044600F006FB00F010FB14
:10557000204A112C136A23F44073136213460BD094
:1055800005D8C4B1102C2AD10023136227E0122CB5
:1055900011D0132C1AD022E0174A002111600121EA
:1055A00042F8081C154A126812F0FF0FFAD01A6A66
:1055B00042F4807212E0124A01211160114A12680D
:1055C000002AFBD01A6A42F4007207E00E4A126801
:1055D00012F0FF0FFAD01A6A42F440721A620B4BB3
:1055E00001221A60FFF78EFFFFF77EFFBDE8104033
:1055F000FFF76CBF0010024008044242040442421C
:105600008004424284044242440042423C044242FA
:10561000F8B5104B1E6835682B686F681F4017F08F
:10562000010403D074680CB1A0470124BA0704D563
:10563000B36813B1984744F002047B0704D5F368BC
:1056400013B1984744F004046B6823EA04046C60C7
:10565000F8BD00BF0C00002008B5044B1B681B6997
:105660001BB19847024B01221A6008BD0C000020B4
:10567000C482204210B50446FFF744FFFFF734FF11
:10568000FFF724FFFFF74EFF064B220C1B68A4B266
:105690001B689A60DC60FFF755FFBDE81040FFF71C
:1056A00015BF00BF0C00002001498D460149084785
:1056B00000C00020B956000808B5124B124A1968FC
:1056C000914201D0002301E0104B07E01048D418AC
:1056D0008442F9D2C858D0500433F7E70D4A9342B8
:1056E00003D2002243F8042BF8E703F09BF90020D3
:1056F0000146024601F0F6FB074B0BB103F082F9BD
:10570000FEE700BF20BC000800000020F0120020CF
:10571000F012002088150020058A0008FEE700002E
:10572000124B10B5196809220A23114801F02CF90F
:10573000104B022219681048032301F025F90F4B82
:105740001A2219680E481B2301F01EF90D4B2A225C
:1057500019680D482B2301F017F9BDE810400B4BD9
:105760000B4819682C22322301F00EB9C801002021
:10577000E8130020CC01002000140020D0010020FC
:1057800018140020B80E002030140020BC0E002099
:105790004814002010B5044600F0BEF9034B204623
:1057A0001978BDE8104000F017B900BF28000020AC
:1057B000F8B50446056800F0D3FB226800235101C8
:1057C00001F184410B60802129600121A9622B61D4
:1057D000EB606379696113B18B4203D02BE04FF426
:1057E00000436B644FF6FF73D36200256E1CF7B263
:1057F0002046394600F0BEFBD0B1236848F6FF7161
:1058000003F1340242F8251018336D1017F0010F20
:1058100053F8252014BF6FF0FF016FF47F4101EAB8
:10582000020214BF68214FF4D0410A4343F82520F7
:10583000042E3546DAD1216801224B01490103F1DA
:10584000844301F18441C3F880220A60F8BD7047A7
:1058500038B5274B274C1A68022042F010021A6014
:1058600000F0B0F90025002000F076FA65602368AA
:10587000182023F40023236000F07BFA102000F0AE
:1058800078FA00F043F8A560102000F065FA1020C7
:1058900000F08CFA0028FAD000F039F8164800F031
:1058A00091FA182000F058FA182000F07FFA00282A
:1058B000FAD0022000F040FA00214FF0006000F022
:1058C0000FFA0E4800F0F4FA00F038F80C4B188884
:1058D00000F00CF90B4800F00DF90B4800F01CFB30
:1058E00000F02EF800F02DF8FFF7B1FF38BD00BF33
:1058F00000200240001002402C0000203F1901004F
:105900002A00002095570008B1570008704708B5D5
:105910000020014600F0A4FA01204FF4806100F05D
:105920009FFA0021022000F09BFA2D2000F0A8FA37
:10593000BDE808400320002100F092BA00F04CB905
:10594000704700F097B90000000000000000000060
:10595000012007E0022005E0032003E0042001E02D
:105960000520FFE70D4A0121116072B60C4A0021A3
:105970001160074902B4084902B486B005498E4651
:10598000704700BFAFF30080AFF30080AFF300803B
:1059900000000061F9FFFFFF4168000814ED00E01E
:1059A00010E000E0AFF30080AFF30080AFF30080C1
:1059B000FEE710B50446007900F020FA2079BDE832
:1059C000104000F033BA03689A6822F4602242F46F
:1059D0008012114399607047002370B51A461C4627
:1059E000072B4FEA430503DCEE1801FA06F63443B1
:1059F0001D4401FA05F501330A2B42EA0502EFD1F5
:105A00000368DC601A6170BD0368DA6A22F0F8721C
:105A1000DA6259639A6842F480029A601A689207BF
:105A2000FCD5D86C80B2704738B5124D2A6813681F
:105A30001C68A10706D5196821F002011960936856
:105A400003B19847620708D52B681A681B6911686B
:105A500021F00401116003B19847E30708D52B68D2
:105A60001A68DB68116821F00101116003B19847E1
:105A700038BD00BF7000002038B5124D2A68136889
:105A80001C68A10706D5196821F002011960936806
:105A900003B19847620708D52B681A681B6911681B
:105AA00021F00401116003B19847E30708D52B6882
:105AB0001A68DB68116821F00101116003B1984791
:105AC00038BD00BF74000020036801225B0103F1B0
:105AD000844303F58673191F1A6018680028FCD1E7
